{
  "_format": "hh-sol-artifact-1",
  "contractName": "AdContract",
  "sourceName": "contracts/AdContract.sol",
  "abi": [
    {
      "inputs": [],
      "stateMutability": "nonpayable",
      "type": "constructor"
    },
    {
      "anonymous": false,
      "inputs": [
        {
          "indexed": false,
          "internalType": "string",
          "name": "ipfsLink",
          "type": "string"
        }
      ],
      "name": "AdSubmitted",
      "type": "event"
    },
    {
      "anonymous": false,
      "inputs": [
        {
          "indexed": false,
          "internalType": "address",
          "name": "who",
          "type": "address"
        }
      ],
      "name": "Withdrawn",
      "type": "event"
    },
    {
      "inputs": [],
      "name": "adCost",
      "outputs": [
        {
          "internalType": "uint256",
          "name": "",
          "type": "uint256"
        }
      ],
      "stateMutability": "view",
      "type": "function"
    },
    {
      "inputs": [
        {
          "internalType": "uint256",
          "name": "",
          "type": "uint256"
        }
      ],
      "name": "ads",
      "outputs": [
        {
          "internalType": "string",
          "name": "",
          "type": "string"
        }
      ],
      "stateMutability": "view",
      "type": "function"
    },
    {
      "inputs": [
        {
          "internalType": "uint256",
          "name": "_index",
          "type": "uint256"
        }
      ],
      "name": "getAd",
      "outputs": [
        {
          "internalType": "string",
          "name": "",
          "type": "string"
        }
      ],
      "stateMutability": "view",
      "type": "function"
    },
    {
      "inputs": [],
      "name": "getAllAds",
      "outputs": [
        {
          "internalType": "string[]",
          "name": "",
          "type": "string[]"
        }
      ],
      "stateMutability": "view",
      "type": "function"
    },
    {
      "inputs": [],
      "name": "owner",
      "outputs": [
        {
          "internalType": "address payable",
          "name": "",
          "type": "address"
        }
      ],
      "stateMutability": "view",
      "type": "function"
    },
    {
      "inputs": [
        {
          "internalType": "string",
          "name": "ipfs_ad",
          "type": "string"
        }
      ],
      "name": "submitAd",
      "outputs": [],
      "stateMutability": "payable",
      "type": "function"
    },
    {
      "inputs": [],
      "name": "withdrawFunds",
      "outputs": [],
      "stateMutability": "nonpayable",
      "type": "function"
    }
  ],
  "bytecode": "0x608060405234801561001057600080fd5b50336000806101000a81548173ffffffffffffffffffffffffffffffffffffffff021916908373ffffffffffffffffffffffffffffffffffffffff160217905550633b9aca0060018190555061101d8061006b6000396000f3fe6080604052600436106100705760003560e01c80638da5cb5b1161004e5780638da5cb5b14610106578063b79f442314610131578063c9430e6a1461015c578063c9f21c381461018757610070565b806311a7a4c01461007557806324600fc3146100b25780637ede1c07146100c9575b600080fd5b34801561008157600080fd5b5061009c600480360381019061009791906106b7565b6101a3565b6040516100a99190610774565b60405180910390f35b3480156100be57600080fd5b506100c761024f565b005b3480156100d557600080fd5b506100f060048036038101906100eb91906106b7565b6103c0565b6040516100fd9190610774565b60405180910390f35b34801561011257600080fd5b5061011b6104b7565b60405161012891906107d7565b60405180910390f35b34801561013d57600080fd5b506101466104db565b60405161015391906108fe565b60405180910390f35b34801561016857600080fd5b506101716105b4565b60405161017e919061092f565b60405180910390f35b6101a1600480360381019061019c9190610a7f565b6105ba565b005b600281815481106101b357600080fd5b9060005260206000200160009150905080546101ce90610af7565b80601f01602080910402602001604051908101604052809291908181526020018280546101fa90610af7565b80156102475780601f1061021c57610100808354040283529160200191610247565b820191906000526020600020905b81548152906001019060200180831161022a57829003601f168201915b505050505081565b60004711610292576040517f08c379a000000000000000000000000000000000000000000000000000000000815260040161028990610b74565b60405180910390fd5b60008054906101000a900473ffffffffffffffffffffffffffffffffffffffff1673ffffffffffffffffffffffffffffffffffffffff163373ffffffffffffffffffffffffffffffffffffffff1614610320576040517f08c379a000000000000000000000000000000000000000000000000000000000815260040161031790610be0565b60405180910390fd5b60008054906101000a900473ffffffffffffffffffffffffffffffffffffffff1673ffffffffffffffffffffffffffffffffffffffff166108fc479081150290604051600060405180830381858888f19350505050158015610386573d6000803e3d6000fd5b507ff45a04d08a70caa7eb4b747571305559ad9fdf4a093afd41506b35c8a306fa94336040516103b69190610c21565b60405180910390a1565b60606002805490508210610409576040517f08c379a000000000000000000000000000000000000000000000000000000000815260040161040090610c88565b60405180910390fd5b6002828154811061041d5761041c610ca8565b5b90600052602060002001805461043290610af7565b80601f016020809104026020016040519081016040528092919081815260200182805461045e90610af7565b80156104ab5780601f10610480576101008083540402835291602001916104ab565b820191906000526020600020905b81548152906001019060200180831161048e57829003601f168201915b50505050509050919050565b60008054906101000a900473ffffffffffffffffffffffffffffffffffffffff1681565b60606002805480602002602001604051908101604052809291908181526020016000905b828210156105ab57838290600052602060002001805461051e90610af7565b80601f016020809104026020016040519081016040528092919081815260200182805461054a90610af7565b80156105975780601f1061056c57610100808354040283529160200191610597565b820191906000526020600020905b81548152906001019060200180831161057a57829003601f168201915b5050505050815260200190600101906104ff565b50505050905090565b60015481565b60015434146105fe576040517f08c379a00000000000000000000000000000000000000000000000000000000081526004016105f590610d49565b60405180910390fd5b6002819080600181540180825580915050600190039060005260206000200160009091909190915090816106329190610f15565b507f4740f117d4149275cd46780c96fb8aa3d31da51914c372d8b650336a3d3f80c8816040516106629190610774565b60405180910390a150565b6000604051905090565b600080fd5b600080fd5b6000819050919050565b61069481610681565b811461069f57600080fd5b50565b6000813590506106b18161068b565b92915050565b6000602082840312156106cd576106cc610677565b5b60006106db848285016106a2565b91505092915050565b600081519050919050565b600082825260208201905092915050565b60005b8381101561071e578082015181840152602081019050610703565b60008484015250505050565b6000601f19601f8301169050919050565b6000610746826106e4565b61075081856106ef565b9350610760818560208601610700565b6107698161072a565b840191505092915050565b6000602082019050818103600083015261078e818461073b565b905092915050565b600073ffffffffffffffffffffffffffffffffffffffff82169050919050565b60006107c182610796565b9050919050565b6107d1816107b6565b82525050565b60006020820190506107ec60008301846107c8565b92915050565b600081519050919050565b600082825260208201905092915050565b6000819050602082019050919050565b600082825260208201905092915050565b600061083a826106e4565b610844818561081e565b9350610854818560208601610700565b61085d8161072a565b840191505092915050565b6000610874838361082f565b905092915050565b6000602082019050919050565b6000610894826107f2565b61089e81856107fd565b9350836020820285016108b08561080e565b8060005b858110156108ec57848403895281516108cd8582610868565b94506108d88361087c565b925060208a019950506001810190506108b4565b50829750879550505050505092915050565b600060208201905081810360008301526109188184610889565b905092915050565b61092981610681565b82525050565b60006020820190506109446000830184610920565b92915050565b600080fd5b600080fd5b7f4e487b7100000000000000000000000000000000000000000000000000000000600052604160045260246000fd5b61098c8261072a565b810181811067ffffffffffffffff821117156109ab576109aa610954565b5b80604052505050565b60006109be61066d565b90506109ca8282610983565b919050565b600067ffffffffffffffff8211156109ea576109e9610954565b5b6109f38261072a565b9050602081019050919050565b82818337600083830152505050565b6000610a22610a1d846109cf565b6109b4565b905082815260208101848484011115610a3e57610a3d61094f565b5b610a49848285610a00565b509392505050565b600082601f830112610a6657610a6561094a565b5b8135610a76848260208601610a0f565b91505092915050565b600060208284031215610a9557610a94610677565b5b600082013567ffffffffffffffff811115610ab357610ab261067c565b5b610abf84828501610a51565b91505092915050565b7f4e487b7100000000000000000000000000000000000000000000000000000000600052602260045260246000fd5b60006002820490506001821680610b0f57607f821691505b602082108103610b2257610b21610ac8565b5b50919050565b7f436f6e74726163742062616c616e6365206973207a65726f0000000000000000600082015250565b6000610b5e6018836106ef565b9150610b6982610b28565b602082019050919050565b60006020820190508181036000830152610b8d81610b51565b9050919050565b7f4f6e6c79206f776e65722063616e207769746864726177000000000000000000600082015250565b6000610bca6017836106ef565b9150610bd582610b94565b602082019050919050565b60006020820190508181036000830152610bf981610bbd565b9050919050565b6000610c0b82610796565b9050919050565b610c1b81610c00565b82525050565b6000602082019050610c366000830184610c12565b92915050565b7f416420646f6573206e6f742065786973742e0000000000000000000000000000600082015250565b6000610c726012836106ef565b9150610c7d82610c3c565b602082019050919050565b60006020820190508181036000830152610ca181610c65565b9050919050565b7f4e487b7100000000000000000000000000000000000000000000000000000000600052603260045260246000fd5b7f496e636f7272656374207061796d656e7420616d6f756e742e20416420636f7360008201527f747320302e303030303030303031204554482e00000000000000000000000000602082015250565b6000610d336033836106ef565b9150610d3e82610cd7565b604082019050919050565b60006020820190508181036000830152610d6281610d26565b9050919050565b60008190508160005260206000209050919050565b60006020601f8301049050919050565b600082821b905092915050565b600060088302610dcb7fffffffffffffffffffffffffffffffffffffffffffffffffffffffffffffffff82610d8e565b610dd58683610d8e565b95508019841693508086168417925050509392505050565b6000819050919050565b6000610e12610e0d610e0884610681565b610ded565b610681565b9050919050565b6000819050919050565b610e2c83610df7565b610e40610e3882610e19565b848454610d9b565b825550505050565b600090565b610e55610e48565b610e60818484610e23565b505050565b5b81811015610e8457610e79600082610e4d565b600181019050610e66565b5050565b601f821115610ec957610e9a81610d69565b610ea384610d7e565b81016020851015610eb2578190505b610ec6610ebe85610d7e565b830182610e65565b50505b505050565b600082821c905092915050565b6000610eec60001984600802610ece565b1980831691505092915050565b6000610f058383610edb565b9150826002028217905092915050565b610f1e826106e4565b67ffffffffffffffff811115610f3757610f36610954565b5b610f418254610af7565b610f4c828285610e88565b600060209050601f831160018114610f7f5760008415610f6d578287015190505b610f778582610ef9565b865550610fdf565b601f198416610f8d86610d69565b60005b82811015610fb557848901518255600182019150602085019450602081019050610f90565b86831015610fd25784890151610fce601f891682610edb565b8355505b6001600288020188555050505b50505050505056fea26469706673582212209cb6ef61822659c4a74f7a5220c8454f6988534dd2b9640a95dfead8bc65734764736f6c63430008110033",
  "linkReferences": {},
  "deployedLinkReferences": {}
}