{
  "_format": "hh-sol-artifact-1",
  "contractName": "DeReal",
  "sourceName": "contracts/DeReal.sol",
  "abi": [
    {
      "inputs": [],
      "stateMutability": "nonpayable",
      "type": "constructor"
    },
    {
      "anonymous": false,
      "inputs": [
        {
          "indexed": false,
          "internalType": "address",
          "name": "triggeredBy",
          "type": "address"
        },
        {
          "indexed": false,
          "internalType": "uint256",
          "name": "timestamp",
          "type": "uint256"
        }
      ],
      "name": "CamerasTriggered",
      "type": "event"
    },
    {
      "anonymous": false,
      "inputs": [
        {
          "indexed": false,
          "internalType": "address",
          "name": "user",
          "type": "address"
        },
        {
          "indexed": false,
          "internalType": "uint256",
          "name": "interactionId",
          "type": "uint256"
        }
      ],
      "name": "InteractionPosted",
      "type": "event"
    },
    {
      "anonymous": false,
      "inputs": [
        {
          "indexed": false,
          "internalType": "address",
          "name": "user",
          "type": "address"
        },
        {
          "indexed": false,
          "internalType": "uint256",
          "name": "interactionId",
          "type": "uint256"
        }
      ],
      "name": "Liked",
      "type": "event"
    },
    {
      "anonymous": false,
      "inputs": [
        {
          "indexed": false,
          "internalType": "address",
          "name": "user",
          "type": "address"
        }
      ],
      "name": "UserRegistered",
      "type": "event"
    },
    {
      "inputs": [],
      "name": "getUser",
      "outputs": [
        {
          "components": [
            {
              "internalType": "string",
              "name": "bio",
              "type": "string"
            },
            {
              "internalType": "uint256",
              "name": "likes",
              "type": "uint256"
            },
            {
              "internalType": "uint256[]",
              "name": "interactions",
              "type": "uint256[]"
            },
            {
              "internalType": "bool",
              "name": "exists",
              "type": "bool"
            }
          ],
          "internalType": "struct DeReal.User",
          "name": "",
          "type": "tuple"
        }
      ],
      "stateMutability": "view",
      "type": "function"
    },
    {
      "inputs": [],
      "name": "interactionCount",
      "outputs": [
        {
          "internalType": "uint256",
          "name": "",
          "type": "uint256"
        }
      ],
      "stateMutability": "view",
      "type": "function"
    },
    {
      "inputs": [
        {
          "internalType": "uint256",
          "name": "",
          "type": "uint256"
        }
      ],
      "name": "interactions",
      "outputs": [
        {
          "internalType": "address",
          "name": "user",
          "type": "address"
        },
        {
          "internalType": "string",
          "name": "content",
          "type": "string"
        },
        {
          "internalType": "uint256",
          "name": "timestamp",
          "type": "uint256"
        }
      ],
      "stateMutability": "view",
      "type": "function"
    },
    {
      "inputs": [
        {
          "internalType": "uint256",
          "name": "_interactionId",
          "type": "uint256"
        }
      ],
      "name": "likeInteraction",
      "outputs": [],
      "stateMutability": "nonpayable",
      "type": "function"
    },
    {
      "inputs": [],
      "name": "owner",
      "outputs": [
        {
          "internalType": "address",
          "name": "",
          "type": "address"
        }
      ],
      "stateMutability": "view",
      "type": "function"
    },
    {
      "inputs": [
        {
          "internalType": "string",
          "name": "_ipfsHash",
          "type": "string"
        }
      ],
      "name": "postInteraction",
      "outputs": [],
      "stateMutability": "nonpayable",
      "type": "function"
    },
    {
      "inputs": [
        {
          "internalType": "string",
          "name": "_bio",
          "type": "string"
        },
        {
          "internalType": "address",
          "name": "_user",
          "type": "address"
        }
      ],
      "name": "registerUser",
      "outputs": [],
      "stateMutability": "nonpayable",
      "type": "function"
    },
    {
      "inputs": [],
      "name": "triggerCameras",
      "outputs": [],
      "stateMutability": "nonpayable",
      "type": "function"
    },
    {
      "inputs": [
        {
          "internalType": "string",
          "name": "_bio",
          "type": "string"
        }
      ],
      "name": "updateBio",
      "outputs": [],
      "stateMutability": "nonpayable",
      "type": "function"
    },
    {
      "inputs": [
        {
          "internalType": "address",
          "name": "",
          "type": "address"
        }
      ],
      "name": "users",
      "outputs": [
        {
          "internalType": "string",
          "name": "bio",
          "type": "string"
        },
        {
          "internalType": "uint256",
          "name": "likes",
          "type": "uint256"
        },
        {
          "internalType": "bool",
          "name": "exists",
          "type": "bool"
        }
      ],
      "stateMutability": "view",
      "type": "function"
    },
    {
      "inputs": [
        {
          "internalType": "address",
          "name": "_address",
          "type": "address"
        }
      ],
      "name": "viewBio",
      "outputs": [
        {
          "internalType": "string",
          "name": "",
          "type": "string"
        }
      ],
      "stateMutability": "view",
      "type": "function"
    }
  ],
  "bytecode": "0x608060405234801561001057600080fd5b50336000806101000a81548173ffffffffffffffffffffffffffffffffffffffff021916908373ffffffffffffffffffffffffffffffffffffffff160217905550611747806100606000396000f3fe608060405234801561001057600080fd5b50600436106100a95760003560e01c8063832880e711610071578063832880e7146101505780638da5cb5b1461016e578063938d0b1e1461018c578063a87430ba14610196578063a890610b146101c8578063f22f6fb6146101e6576100a9565b80630ba460ff146100ae5780630e54b872146100e05780631e88b388146100fc578063728f9b3d1461011857806376487b3814610134575b600080fd5b6100c860048036038101906100c39190611014565b610216565b6040516100d7939291906112f5565b60405180910390f35b6100fa60048036038101906100f59190610fc0565b6102e8565b005b61011660048036038101906101119190610f7f565b6104ed565b005b610132600480360381019061012d9190611014565b6106f4565b005b61014e60048036038101906101499190610f7f565b6108d4565b005b6101586109bd565b604051610165919061143c565b60405180910390f35b610176610bb2565b60405161018391906112da565b60405180910390f35b610194610bd6565b005b6101b060048036038101906101ab9190610f56565b610c11565b6040516101bf9392919061137e565b60405180910390f35b6101d0610cd0565b6040516101dd919061145e565b60405180910390f35b61020060048036038101906101fb9190610f56565b610cd6565b60405161020d919061135c565b60405180910390f35b60026020528060005260406000206000915090508060000160009054906101000a900473ffffffffffffffffffffffffffffffffffffffff169080600101805461025f906115ca565b80601f016020809104026020016040519081016040528092919081815260200182805461028b906115ca565b80156102d85780601f106102ad576101008083540402835291602001916102d8565b820191906000526020600020905b8154815290600101906020018083116102bb57829003601f168201915b5050505050908060020154905083565b600160003373ffffffffffffffffffffffffffffffffffffffff1673ffffffffffffffffffffffffffffffffffffffff16815260200190815260200160002060030160009054906101000a900460ff1615610378576040517f08c379a000000000000000000000000000000000000000000000000000000000815260040161036f906113dc565b60405180910390fd5b604051806080016040528083815260200160008152602001600067ffffffffffffffff8111156103d1577f4e487b7100000000000000000000000000000000000000000000000000000000600052604160045260246000fd5b6040519080825280602002602001820160405280156103ff5781602001602082028036833780820191505090505b50815260200160011515815250600160008373ffffffffffffffffffffffffffffffffffffffff1673ffffffffffffffffffffffffffffffffffffffff1681526020019081526020016000206000820151816000019080519060200190610467929190610daa565b5060208201518160010155604082015181600201908051906020019061048e929190610e30565b5060608201518160030160006101000a81548160ff0219169083151502179055509050507f54db7a5cb4735e1aac1f53db512d3390390bb6637bd30ad4bf9fc98667d9b9b9816040516104e191906112da565b60405180910390a15050565b600160003373ffffffffffffffffffffffffffffffffffffffff1673ffffffffffffffffffffffffffffffffffffffff16815260200190815260200160002060030160009054906101000a900460ff1661057c576040517f08c379a0000000000000000000000000000000000000000000000000000000008152600401610573906113bc565b60405180910390fd5b6003600081548092919061058f906115fc565b919050555060405180606001604052803373ffffffffffffffffffffffffffffffffffffffff1681526020018281526020014281525060026000600354815260200190815260200160002060008201518160000160006101000a81548173ffffffffffffffffffffffffffffffffffffffff021916908373ffffffffffffffffffffffffffffffffffffffff160217905550602082015181600101908051906020019061063d929190610daa565b5060408201518160020155905050600160003373ffffffffffffffffffffffffffffffffffffffff1673ffffffffffffffffffffffffffffffffffffffff16815260200190815260200160002060020160035490806001815401808255809150506001900390600052602060002001600090919091909150557f7ff842779923f2243e84bae82a18191e112275e431d8de2018a34429a007d8aa336003546040516106e9929190611333565b60405180910390a150565b600160003373ffffffffffffffffffffffffffffffffffffffff1673ffffffffffffffffffffffffffffffffffffffff16815260200190815260200160002060030160009054906101000a900460ff16610783576040517f08c379a000000000000000000000000000000000000000000000000000000000815260040161077a906113bc565b60405180910390fd5b60008111801561079557506003548111155b6107d4576040517f08c379a00000000000000000000000000000000000000000000000000000000081526004016107cb9061141c565b60405180910390fd5b600160006002600084815260200190815260200160002060000160009054906101000a900473ffffffffffffffffffffffffffffffffffffffff1673ffffffffffffffffffffffffffffffffffffffff1673ffffffffffffffffffffffffffffffffffffffff168152602001908152602001600020600101600081548092919061085d906115fc565b91905055507f3e0a236119aa7dbac5cfd31309977ad6f3c7f39721b4a28205e1386fef72499a6002600083815260200190815260200160002060000160009054906101000a900473ffffffffffffffffffffffffffffffffffffffff16826040516108c9929190611333565b60405180910390a150565b600160003373ffffffffffffffffffffffffffffffffffffffff1673ffffffffffffffffffffffffffffffffffffffff16815260200190815260200160002060030160009054906101000a900460ff16610963576040517f08c379a000000000000000000000000000000000000000000000000000000000815260040161095a906113bc565b60405180910390fd5b80600160003373ffffffffffffffffffffffffffffffffffffffff1673ffffffffffffffffffffffffffffffffffffffff16815260200190815260200160002060000190805190602001906109b9929190610daa565b5050565b6109c5610e7d565b600160003373ffffffffffffffffffffffffffffffffffffffff1673ffffffffffffffffffffffffffffffffffffffff16815260200190815260200160002060030160009054906101000a900460ff16610a54576040517f08c379a0000000000000000000000000000000000000000000000000000000008152600401610a4b906113fc565b60405180910390fd5b600160003373ffffffffffffffffffffffffffffffffffffffff1673ffffffffffffffffffffffffffffffffffffffff168152602001908152602001600020604051806080016040529081600082018054610aae906115ca565b80601f0160208091040260200160405190810160405280929190818152602001828054610ada906115ca565b8015610b275780601f10610afc57610100808354040283529160200191610b27565b820191906000526020600020905b815481529060010190602001808311610b0a57829003601f168201915b505050505081526020016001820154815260200160028201805480602002602001604051908101604052809291908181526020018280548015610b8957602002820191906000526020600020905b815481526020019060010190808311610b75575b505050505081526020016003820160009054906101000a900460ff161515151581525050905090565b60008054906101000a900473ffffffffffffffffffffffffffffffffffffffff1681565b7fae77cf99e72f84a1ab50aa4646254ce291055b92e39a60657e4d496c9301c32d3342604051610c07929190611333565b60405180910390a1565b6001602052806000526040600020600091509050806000018054610c34906115ca565b80601f0160208091040260200160405190810160405280929190818152602001828054610c60906115ca565b8015610cad5780601f10610c8257610100808354040283529160200191610cad565b820191906000526020600020905b815481529060010190602001808311610c9057829003601f168201915b5050505050908060010154908060030160009054906101000a900460ff16905083565b60035481565b6060600160008373ffffffffffffffffffffffffffffffffffffffff1673ffffffffffffffffffffffffffffffffffffffff1681526020019081526020016000206000018054610d25906115ca565b80601f0160208091040260200160405190810160405280929190818152602001828054610d51906115ca565b8015610d9e5780601f10610d7357610100808354040283529160200191610d9e565b820191906000526020600020905b815481529060010190602001808311610d8157829003601f168201915b50505050509050919050565b828054610db6906115ca565b90600052602060002090601f016020900481019282610dd85760008555610e1f565b82601f10610df157805160ff1916838001178555610e1f565b82800160010185558215610e1f579182015b82811115610e1e578251825591602001919060010190610e03565b5b509050610e2c9190610ea7565b5090565b828054828255906000526020600020908101928215610e6c579160200282015b82811115610e6b578251825591602001919060010190610e50565b5b509050610e799190610ea7565b5090565b60405180608001604052806060815260200160008152602001606081526020016000151581525090565b5b80821115610ec0576000816000905550600101610ea8565b5090565b6000610ed7610ed2846114aa565b611479565b905082815260208101848484011115610eef57600080fd5b610efa848285611588565b509392505050565b600081359050610f11816116e3565b92915050565b600082601f830112610f2857600080fd5b8135610f38848260208601610ec4565b91505092915050565b600081359050610f50816116fa565b92915050565b600060208284031215610f6857600080fd5b6000610f7684828501610f02565b91505092915050565b600060208284031215610f9157600080fd5b600082013567ffffffffffffffff811115610fab57600080fd5b610fb784828501610f17565b91505092915050565b60008060408385031215610fd357600080fd5b600083013567ffffffffffffffff811115610fed57600080fd5b610ff985828601610f17565b925050602061100a85828601610f02565b9150509250929050565b60006020828403121561102657600080fd5b600061103484828501610f41565b91505092915050565b600061104983836112bc565b60208301905092915050565b61105e81611540565b82525050565b600061106f826114ea565b611079818561150d565b9350611084836114da565b8060005b838110156110b557815161109c888261103d565b97506110a783611500565b925050600181019050611088565b5085935050505092915050565b6110cb81611552565b82525050565b6110da81611552565b82525050565b60006110eb826114f5565b6110f5818561151e565b9350611105818560208601611597565b61110e816116d2565b840191505092915050565b6000611124826114f5565b61112e818561152f565b935061113e818560208601611597565b611147816116d2565b840191505092915050565b600061115f60138361152f565b91507f55736572206e6f742072656769737465726564000000000000000000000000006000830152602082019050919050565b600061119f60138361152f565b91507f5573657220616c726561647920657869737473000000000000000000000000006000830152602082019050919050565b60006111df60138361152f565b91507f5573657220646f6573206e6f74206578697374000000000000000000000000006000830152602082019050919050565b600061121f60168361152f565b91507f496e76616c696420696e746572616374696f6e204944000000000000000000006000830152602082019050919050565b6000608083016000830151848203600086015261126f82826110e0565b915050602083015161128460208601826112bc565b506040830151848203604086015261129c8282611064565b91505060608301516112b160608601826110c2565b508091505092915050565b6112c58161157e565b82525050565b6112d48161157e565b82525050565b60006020820190506112ef6000830184611055565b92915050565b600060608201905061130a6000830186611055565b818103602083015261131c8185611119565b905061132b60408301846112cb565b949350505050565b60006040820190506113486000830185611055565b61135560208301846112cb565b9392505050565b600060208201905081810360008301526113768184611119565b905092915050565b600060608201905081810360008301526113988186611119565b90506113a760208301856112cb565b6113b460408301846110d1565b949350505050565b600060208201905081810360008301526113d581611152565b9050919050565b600060208201905081810360008301526113f581611192565b9050919050565b60006020820190508181036000830152611415816111d2565b9050919050565b6000602082019050818103600083015261143581611212565b9050919050565b600060208201905081810360008301526114568184611252565b905092915050565b600060208201905061147360008301846112cb565b92915050565b6000604051905081810181811067ffffffffffffffff821117156114a05761149f6116a3565b5b8060405250919050565b600067ffffffffffffffff8211156114c5576114c46116a3565b5b601f19601f8301169050602081019050919050565b6000819050602082019050919050565b600081519050919050565b600081519050919050565b6000602082019050919050565b600082825260208201905092915050565b600082825260208201905092915050565b600082825260208201905092915050565b600061154b8261155e565b9050919050565b60008115159050919050565b600073ffffffffffffffffffffffffffffffffffffffff82169050919050565b6000819050919050565b82818337600083830152505050565b60005b838110156115b557808201518184015260208101905061159a565b838111156115c4576000848401525b50505050565b600060028204905060018216806115e257607f821691505b602082108114156115f6576115f5611674565b5b50919050565b60006116078261157e565b91507fffffffffffffffffffffffffffffffffffffffffffffffffffffffffffffffff82141561163a57611639611645565b5b600182019050919050565b7f4e487b7100000000000000000000000000000000000000000000000000000000600052601160045260246000fd5b7f4e487b7100000000000000000000000000000000000000000000000000000000600052602260045260246000fd5b7f4e487b7100000000000000000000000000000000000000000000000000000000600052604160045260246000fd5b6000601f19601f8301169050919050565b6116ec81611540565b81146116f757600080fd5b50565b6117038161157e565b811461170e57600080fd5b5056fea264697066735822122024fa5056548227fd2d9bd646a5c731c999ba2456e252861cac1b6ece7de5899764736f6c63430008000033",
  "linkReferences": {},
  "deployedLinkReferences": {}
}