{
  "_format": "hh-sol-artifact-1",
  "contractName": "DeReal",
  "sourceName": "contracts/DeReal.sol",
  "abi": [
    {
      "inputs": [],
      "stateMutability": "payable",
      "type": "constructor"
    },
    {
      "anonymous": false,
      "inputs": [
        {
          "indexed": false,
          "internalType": "address",
          "name": "triggeredBy",
          "type": "address"
        },
        {
          "indexed": false,
          "internalType": "uint256",
          "name": "timestamp",
          "type": "uint256"
        }
      ],
      "name": "CamerasTriggered",
      "type": "event"
    },
    {
      "anonymous": false,
      "inputs": [
        {
          "indexed": false,
          "internalType": "address",
          "name": "triggeredBy",
          "type": "address"
        },
        {
          "indexed": false,
          "internalType": "uint256",
          "name": "timestamp",
          "type": "uint256"
        },
        {
          "indexed": false,
          "internalType": "uint256",
          "name": "eventId",
          "type": "uint256"
        }
      ],
      "name": "EventTriggered",
      "type": "event"
    },
    {
      "anonymous": false,
      "inputs": [
        {
          "indexed": false,
          "internalType": "address",
          "name": "user",
          "type": "address"
        },
        {
          "indexed": false,
          "internalType": "uint256",
          "name": "postId",
          "type": "uint256"
        },
        {
          "indexed": false,
          "internalType": "bool",
          "name": "isLiked",
          "type": "bool"
        }
      ],
      "name": "LikeToggled",
      "type": "event"
    },
    {
      "anonymous": false,
      "inputs": [
        {
          "indexed": false,
          "internalType": "uint256",
          "name": "timestamp",
          "type": "uint256"
        }
      ],
      "name": "NextEventScheduled",
      "type": "event"
    },
    {
      "anonymous": false,
      "inputs": [
        {
          "indexed": false,
          "internalType": "address",
          "name": "user",
          "type": "address"
        },
        {
          "indexed": false,
          "internalType": "uint256",
          "name": "postId",
          "type": "uint256"
        }
      ],
      "name": "PostCreated",
      "type": "event"
    },
    {
      "anonymous": false,
      "inputs": [
        {
          "indexed": false,
          "internalType": "address",
          "name": "user",
          "type": "address"
        }
      ],
      "name": "UserBioUpdated",
      "type": "event"
    },
    {
      "anonymous": false,
      "inputs": [
        {
          "indexed": false,
          "internalType": "address",
          "name": "user",
          "type": "address"
        }
      ],
      "name": "UserRegistered",
      "type": "event"
    },
    {
      "inputs": [
        {
          "internalType": "string",
          "name": "_ipfsHash",
          "type": "string"
        }
      ],
      "name": "createPost",
      "outputs": [],
      "stateMutability": "nonpayable",
      "type": "function"
    },
    {
      "inputs": [
        {
          "internalType": "string",
          "name": "_ipfsHash",
          "type": "string"
        },
        {
          "internalType": "uint256",
          "name": "_eventId",
          "type": "uint256"
        }
      ],
      "name": "createPostDuringEvent",
      "outputs": [],
      "stateMutability": "nonpayable",
      "type": "function"
    },
    {
      "inputs": [],
      "name": "eventId",
      "outputs": [
        {
          "internalType": "uint256",
          "name": "",
          "type": "uint256"
        }
      ],
      "stateMutability": "view",
      "type": "function"
    },
    {
      "inputs": [],
      "name": "getAllPosts",
      "outputs": [
        {
          "components": [
            {
              "internalType": "address",
              "name": "user",
              "type": "address"
            },
            {
              "internalType": "string",
              "name": "content",
              "type": "string"
            },
            {
              "internalType": "uint256",
              "name": "timestamp",
              "type": "uint256"
            },
            {
              "internalType": "address[]",
              "name": "likedBy",
              "type": "address[]"
            }
          ],
          "internalType": "struct DeReal.Post[]",
          "name": "",
          "type": "tuple[]"
        }
      ],
      "stateMutability": "view",
      "type": "function"
    },
    {
      "inputs": [
        {
          "internalType": "uint256",
          "name": "_postId",
          "type": "uint256"
        }
      ],
      "name": "getLikes",
      "outputs": [
        {
          "internalType": "uint256",
          "name": "",
          "type": "uint256"
        }
      ],
      "stateMutability": "view",
      "type": "function"
    },
    {
      "inputs": [
        {
          "internalType": "uint256",
          "name": "_postId",
          "type": "uint256"
        }
      ],
      "name": "getPost",
      "outputs": [
        {
          "components": [
            {
              "internalType": "address",
              "name": "user",
              "type": "address"
            },
            {
              "internalType": "string",
              "name": "content",
              "type": "string"
            },
            {
              "internalType": "uint256",
              "name": "timestamp",
              "type": "uint256"
            },
            {
              "internalType": "address[]",
              "name": "likedBy",
              "type": "address[]"
            }
          ],
          "internalType": "struct DeReal.Post",
          "name": "",
          "type": "tuple"
        }
      ],
      "stateMutability": "view",
      "type": "function"
    },
    {
      "inputs": [],
      "name": "getUser",
      "outputs": [
        {
          "components": [
            {
              "internalType": "string",
              "name": "bio",
              "type": "string"
            }
          ],
          "internalType": "struct DeReal.User",
          "name": "",
          "type": "tuple"
        }
      ],
      "stateMutability": "view",
      "type": "function"
    },
    {
      "inputs": [
        {
          "internalType": "uint256",
          "name": "_postId",
          "type": "uint256"
        }
      ],
      "name": "likePost",
      "outputs": [],
      "stateMutability": "nonpayable",
      "type": "function"
    },
    {
      "inputs": [],
      "name": "nextEventTimestamp",
      "outputs": [
        {
          "internalType": "uint256",
          "name": "",
          "type": "uint256"
        }
      ],
      "stateMutability": "view",
      "type": "function"
    },
    {
      "inputs": [],
      "name": "owner",
      "outputs": [
        {
          "internalType": "address",
          "name": "",
          "type": "address"
        }
      ],
      "stateMutability": "view",
      "type": "function"
    },
    {
      "inputs": [],
      "name": "postCount",
      "outputs": [
        {
          "internalType": "uint256",
          "name": "",
          "type": "uint256"
        }
      ],
      "stateMutability": "view",
      "type": "function"
    },
    {
      "inputs": [
        {
          "internalType": "uint256",
          "name": "",
          "type": "uint256"
        }
      ],
      "name": "posts",
      "outputs": [
        {
          "internalType": "address",
          "name": "user",
          "type": "address"
        },
        {
          "internalType": "string",
          "name": "content",
          "type": "string"
        },
        {
          "internalType": "uint256",
          "name": "timestamp",
          "type": "uint256"
        }
      ],
      "stateMutability": "view",
      "type": "function"
    },
    {
      "inputs": [
        {
          "internalType": "string",
          "name": "_bio",
          "type": "string"
        }
      ],
      "name": "registerUser",
      "outputs": [],
      "stateMutability": "nonpayable",
      "type": "function"
    },
    {
      "inputs": [],
      "name": "triggerCamera",
      "outputs": [],
      "stateMutability": "nonpayable",
      "type": "function"
    },
    {
      "inputs": [
        {
          "internalType": "string",
          "name": "_bio",
          "type": "string"
        }
      ],
      "name": "updateBio",
      "outputs": [],
      "stateMutability": "nonpayable",
      "type": "function"
    },
    {
      "inputs": [
        {
          "internalType": "address",
          "name": "",
          "type": "address"
        }
      ],
      "name": "users",
      "outputs": [
        {
          "internalType": "string",
          "name": "bio",
          "type": "string"
        }
      ],
      "stateMutability": "view",
      "type": "function"
    },
    {
      "inputs": [
        {
          "internalType": "address",
          "name": "_address",
          "type": "address"
        }
      ],
      "name": "viewBio",
      "outputs": [
        {
          "internalType": "string",
          "name": "",
          "type": "string"
        }
      ],
      "stateMutability": "view",
      "type": "function"
    }
  ],
  "bytecode": "0x6080604052336000806101000a81548173ffffffffffffffffffffffffffffffffffffffff021916908373ffffffffffffffffffffffffffffffffffffffff16021790555062015180426200005591906200009a565b600481905550620000d5565b6000819050919050565b7f4e487b7100000000000000000000000000000000000000000000000000000000600052601160045260246000fd5b6000620000a78262000061565b9150620000b48362000061565b9250828201905080821115620000cf57620000ce6200006b565b5b92915050565b61238680620000e56000396000f3fe608060405234801561001057600080fd5b506004361061010b5760003560e01c806376487b38116100a2578063a87430ba11610071578063a87430ba14610296578063c3066e2a146102c6578063c7303c61146102e4578063f06421bc14610300578063f22f6fb61461031c5761010b565b806376487b381461020e578063832880e71461022a5780638da5cb5b14610248578063a209081e146102665761010b565b806330561100116100de578063305611001461018857806340731c24146101a6578063704f1b94146101d6578063725009d3146101f25761010b565b8063089cdd0c146101105780630b1e7f831461012e57806317906c2e1461016057806326a0ea081461017e575b600080fd5b61011861034c565b60405161012591906114fd565b60405180910390f35b61014860048036038101906101439190611558565b610352565b60405161015793929190611656565b60405180910390f35b610168610424565b60405161017591906114fd565b60405180910390f35b61018661042a565b005b6101906104b1565b60405161019d91906118d7565b60405180910390f35b6101c060048036038101906101bb9190611558565b610700565b6040516101cd9190611963565b60405180910390f35b6101f060048036038101906101eb9190611aba565b6108fe565b005b61020c60048036038101906102079190611558565b610a30565b005b61022860048036038101906102239190611aba565b610ce2565b005b610232610d6c565b60405161023f9190611b2d565b60405180910390f35b610250610e55565b60405161025d9190611b4f565b60405180910390f35b610280600480360381019061027b9190611558565b610e79565b60405161028d91906114fd565b60405180910390f35b6102b060048036038101906102ab9190611b96565b610eec565b6040516102bd9190611bc3565b60405180910390f35b6102ce610f92565b6040516102db91906114fd565b60405180910390f35b6102fe60048036038101906102f99190611aba565b610f98565b005b61031a60048036038101906103159190611be5565b61110a565b005b61033660048036038101906103319190611b96565b611318565b6040516103439190611bc3565b60405180910390f35b60055481565b60026020528060005260406000206000915090508060000160009054906101000a900473ffffffffffffffffffffffffffffffffffffffff169080600101805461039b90611c70565b80601f01602080910402602001604051908101604052809291908181526020018280546103c790611c70565b80156104145780601f106103e957610100808354040283529160200191610414565b820191906000526020600020905b8154815290600101906020018083116103f757829003601f168201915b5050505050908060020154905083565b60035481565b6005600081548092919061043d90611cd0565b91905055506040518060400160405280428152602001600554815250600660008201518160000155602082015181600101559050507f225360e90508d0205c478ae016d2c5fda3471af1906c8d9da5ec4f49d706868b33426005546040516104a793929190611d18565b60405180910390a1565b6060600060035467ffffffffffffffff8111156104d1576104d061198f565b5b60405190808252806020026020018201604052801561050a57816020015b6104f76113ec565b8152602001906001900390816104ef5790505b5090506000600190505b60035481116106f857600260008281526020019081526020016000206040518060800160405290816000820160009054906101000a900473ffffffffffffffffffffffffffffffffffffffff1673ffffffffffffffffffffffffffffffffffffffff1673ffffffffffffffffffffffffffffffffffffffff1681526020016001820180546105a190611c70565b80601f01602080910402602001604051908101604052809291908181526020018280546105cd90611c70565b801561061a5780601f106105ef5761010080835404028352916020019161061a565b820191906000526020600020905b8154815290600101906020018083116105fd57829003601f168201915b5050505050815260200160028201548152602001600382018054806020026020016040519081016040528092919081815260200182805480156106b257602002820191906000526020600020905b8160009054906101000a900473ffffffffffffffffffffffffffffffffffffffff1673ffffffffffffffffffffffffffffffffffffffff1681526020019060010190808311610668575b505050505081525050826001836106c99190611d4f565b815181106106da576106d9611d83565b5b602002602001018190525080806106f090611cd0565b915050610514565b508091505090565b6107086113ec565b60008211801561071a57506003548211155b610759576040517f08c379a000000000000000000000000000000000000000000000000000000000815260040161075090611dfe565b60405180910390fd5b600260008381526020019081526020016000206040518060800160405290816000820160009054906101000a900473ffffffffffffffffffffffffffffffffffffffff1673ffffffffffffffffffffffffffffffffffffffff1673ffffffffffffffffffffffffffffffffffffffff1681526020016001820180546107dd90611c70565b80601f016020809104026020016040519081016040528092919081815260200182805461080990611c70565b80156108565780601f1061082b57610100808354040283529160200191610856565b820191906000526020600020905b81548152906001019060200180831161083957829003601f168201915b5050505050815260200160028201548152602001600382018054806020026020016040519081016040528092919081815260200182805480156108ee57602002820191906000526020600020905b8160009054906101000a900473ffffffffffffffffffffffffffffffffffffffff1673ffffffffffffffffffffffffffffffffffffffff16815260200190600101908083116108a4575b5050505050815250509050919050565b6000600160003373ffffffffffffffffffffffffffffffffffffffff1673ffffffffffffffffffffffffffffffffffffffff168152602001908152602001600020600001805461094d90611c70565b90501461098f576040517f08c379a000000000000000000000000000000000000000000000000000000000815260040161098690611e6a565b60405180910390fd5b604051806020016040528082815250600160003373ffffffffffffffffffffffffffffffffffffffff1673ffffffffffffffffffffffffffffffffffffffff16815260200190815260200160002060008201518160000190816109f29190612036565b509050507f54db7a5cb4735e1aac1f53db512d3390390bb6637bd30ad4bf9fc98667d9b9b933604051610a259190611b4f565b60405180910390a150565b600081118015610a4257506003548111155b610a81576040517f08c379a0000000000000000000000000000000000000000000000000000000008152600401610a7890612154565b60405180910390fd5b60006002600083815260200190815260200160002090506000805b8260030180549050811015610c35573373ffffffffffffffffffffffffffffffffffffffff16836003018281548110610ad857610ad7611d83565b5b9060005260206000200160009054906101000a900473ffffffffffffffffffffffffffffffffffffffff1673ffffffffffffffffffffffffffffffffffffffff1603610c22578260030160018460030180549050610b369190611d4f565b81548110610b4757610b46611d83565b5b9060005260206000200160009054906101000a900473ffffffffffffffffffffffffffffffffffffffff16836003018281548110610b8857610b87611d83565b5b9060005260206000200160006101000a81548173ffffffffffffffffffffffffffffffffffffffff021916908373ffffffffffffffffffffffffffffffffffffffff16021790555082600301805480610be457610be3612174565b5b6001900381819060005260206000200160006101000a81549073ffffffffffffffffffffffffffffffffffffffff0219169055905560019150610c35565b8080610c2d90611cd0565b915050610a9c565b5080610ca15781600301339080600181540180825580915050600190039060005260206000200160009091909190916101000a81548173ffffffffffffffffffffffffffffffffffffffff021916908373ffffffffffffffffffffffffffffffffffffffff1602179055505b7f4d5c3df35a8d7d04f2e10db1454548af37ee7449c97a4b4c243681f29c2ea40733848315604051610cd5939291906121be565b60405180910390a1505050565b80600160003373ffffffffffffffffffffffffffffffffffffffff1673ffffffffffffffffffffffffffffffffffffffff1681526020019081526020016000206000019081610d319190612036565b507f4fb6ef93ce36ff223115f0546a70e86405e3843d8ffe9f9ddc5d3107dd58245333604051610d619190611b4f565b60405180910390a150565b610d7461142a565b600160003373ffffffffffffffffffffffffffffffffffffffff1673ffffffffffffffffffffffffffffffffffffffff168152602001908152602001600020604051806020016040529081600082018054610dce90611c70565b80601f0160208091040260200160405190810160405280929190818152602001828054610dfa90611c70565b8015610e475780601f10610e1c57610100808354040283529160200191610e47565b820191906000526020600020905b815481529060010190602001808311610e2a57829003601f168201915b505050505081525050905090565b60008054906101000a900473ffffffffffffffffffffffffffffffffffffffff1681565b60008082118015610e8c57506003548211155b610ecb576040517f08c379a0000000000000000000000000000000000000000000000000000000008152600401610ec290612154565b60405180910390fd5b60026000838152602001908152602001600020600301805490509050919050565b6001602052806000526040600020600091509050806000018054610f0f90611c70565b80601f0160208091040260200160405190810160405280929190818152602001828054610f3b90611c70565b8015610f885780601f10610f5d57610100808354040283529160200191610f88565b820191906000526020600020905b815481529060010190602001808311610f6b57829003601f168201915b5050505050905081565b60045481565b60036000815480929190610fab90611cd0565b919050555060405180608001604052803373ffffffffffffffffffffffffffffffffffffffff168152602001828152602001428152602001600067ffffffffffffffff811115610ffe57610ffd61198f565b5b60405190808252806020026020018201604052801561102c5781602001602082028036833780820191505090505b5081525060026000600354815260200190815260200160002060008201518160000160006101000a81548173ffffffffffffffffffffffffffffffffffffffff021916908373ffffffffffffffffffffffffffffffffffffffff16021790555060208201518160010190816110a19190612036565b506040820151816002015560608201518160030190805190602001906110c892919061143d565b509050507f09cf2578b7d56ad392e46d90ca0c5004ffca074e158a150ccc34aac58ce1b8c6336003546040516110ff9291906121f5565b60405180910390a150565b607860066000015461111c919061221e565b42111561115e576040517f08c379a0000000000000000000000000000000000000000000000000000000008152600401611155906122c4565b60405180910390fd5b60066001015481146111a5576040517f08c379a000000000000000000000000000000000000000000000000000000000815260040161119c90612330565b60405180910390fd5b600360008154809291906111b890611cd0565b919050555060405180608001604052803373ffffffffffffffffffffffffffffffffffffffff168152602001838152602001428152602001600067ffffffffffffffff81111561120b5761120a61198f565b5b6040519080825280602002602001820160405280156112395781602001602082028036833780820191505090505b5081525060026000600354815260200190815260200160002060008201518160000160006101000a81548173ffffffffffffffffffffffffffffffffffffffff021916908373ffffffffffffffffffffffffffffffffffffffff16021790555060208201518160010190816112ae9190612036565b506040820151816002015560608201518160030190805190602001906112d592919061143d565b509050507f09cf2578b7d56ad392e46d90ca0c5004ffca074e158a150ccc34aac58ce1b8c63360035460405161130c9291906121f5565b60405180910390a15050565b6060600160008373ffffffffffffffffffffffffffffffffffffffff1673ffffffffffffffffffffffffffffffffffffffff168152602001908152602001600020600001805461136790611c70565b80601f016020809104026020016040519081016040528092919081815260200182805461139390611c70565b80156113e05780601f106113b5576101008083540402835291602001916113e0565b820191906000526020600020905b8154815290600101906020018083116113c357829003601f168201915b50505050509050919050565b6040518060800160405280600073ffffffffffffffffffffffffffffffffffffffff1681526020016060815260200160008152602001606081525090565b6040518060200160405280606081525090565b8280548282559060005260206000209081019282156114b6579160200282015b828111156114b55782518260006101000a81548173ffffffffffffffffffffffffffffffffffffffff021916908373ffffffffffffffffffffffffffffffffffffffff1602179055509160200191906001019061145d565b5b5090506114c391906114c7565b5090565b5b808211156114e05760008160009055506001016114c8565b5090565b6000819050919050565b6114f7816114e4565b82525050565b600060208201905061151260008301846114ee565b92915050565b6000604051905090565b600080fd5b600080fd5b611535816114e4565b811461154057600080fd5b50565b6000813590506115528161152c565b92915050565b60006020828403121561156e5761156d611522565b5b600061157c84828501611543565b91505092915050565b600073ffffffffffffffffffffffffffffffffffffffff82169050919050565b60006115b082611585565b9050919050565b6115c0816115a5565b82525050565b600081519050919050565b600082825260208201905092915050565b60005b838110156116005780820151818401526020810190506115e5565b60008484015250505050565b6000601f19601f8301169050919050565b6000611628826115c6565b61163281856115d1565b93506116428185602086016115e2565b61164b8161160c565b840191505092915050565b600060608201905061166b60008301866115b7565b818103602083015261167d818561161d565b905061168c60408301846114ee565b949350505050565b600081519050919050565b600082825260208201905092915050565b6000819050602082019050919050565b6116c9816115a5565b82525050565b600082825260208201905092915050565b60006116eb826115c6565b6116f581856116cf565b93506117058185602086016115e2565b61170e8161160c565b840191505092915050565b611722816114e4565b82525050565b600081519050919050565b600082825260208201905092915050565b6000819050602082019050919050565b600061176083836116c0565b60208301905092915050565b6000602082019050919050565b600061178482611728565b61178e8185611733565b935061179983611744565b8060005b838110156117ca5781516117b18882611754565b97506117bc8361176c565b92505060018101905061179d565b5085935050505092915050565b60006080830160008301516117ef60008601826116c0565b506020830151848203602086015261180782826116e0565b915050604083015161181c6040860182611719565b50606083015184820360608601526118348282611779565b9150508091505092915050565b600061184d83836117d7565b905092915050565b6000602082019050919050565b600061186d82611694565b611877818561169f565b935083602082028501611889856116b0565b8060005b858110156118c557848403895281516118a68582611841565b94506118b183611855565b925060208a0199505060018101905061188d565b50829750879550505050505092915050565b600060208201905081810360008301526118f18184611862565b905092915050565b600060808301600083015161191160008601826116c0565b506020830151848203602086015261192982826116e0565b915050604083015161193e6040860182611719565b50606083015184820360608601526119568282611779565b9150508091505092915050565b6000602082019050818103600083015261197d81846118f9565b905092915050565b600080fd5b600080fd5b7f4e487b7100000000000000000000000000000000000000000000000000000000600052604160045260246000fd5b6119c78261160c565b810181811067ffffffffffffffff821117156119e6576119e561198f565b5b80604052505050565b60006119f9611518565b9050611a0582826119be565b919050565b600067ffffffffffffffff821115611a2557611a2461198f565b5b611a2e8261160c565b9050602081019050919050565b82818337600083830152505050565b6000611a5d611a5884611a0a565b6119ef565b905082815260208101848484011115611a7957611a7861198a565b5b611a84848285611a3b565b509392505050565b600082601f830112611aa157611aa0611985565b5b8135611ab1848260208601611a4a565b91505092915050565b600060208284031215611ad057611acf611522565b5b600082013567ffffffffffffffff811115611aee57611aed611527565b5b611afa84828501611a8c565b91505092915050565b60006020830160008301518482036000860152611b2082826116e0565b9150508091505092915050565b60006020820190508181036000830152611b478184611b03565b905092915050565b6000602082019050611b6460008301846115b7565b92915050565b611b73816115a5565b8114611b7e57600080fd5b50565b600081359050611b9081611b6a565b92915050565b600060208284031215611bac57611bab611522565b5b6000611bba84828501611b81565b91505092915050565b60006020820190508181036000830152611bdd818461161d565b905092915050565b60008060408385031215611bfc57611bfb611522565b5b600083013567ffffffffffffffff811115611c1a57611c19611527565b5b611c2685828601611a8c565b9250506020611c3785828601611543565b9150509250929050565b7f4e487b7100000000000000000000000000000000000000000000000000000000600052602260045260246000fd5b60006002820490506001821680611c8857607f821691505b602082108103611c9b57611c9a611c41565b5b50919050565b7f4e487b7100000000000000000000000000000000000000000000000000000000600052601160045260246000fd5b6000611cdb826114e4565b91507fffffffffffffffffffffffffffffffffffffffffffffffffffffffffffffffff8203611d0d57611d0c611ca1565b5b600182019050919050565b6000606082019050611d2d60008301866115b7565b611d3a60208301856114ee565b611d4760408301846114ee565b949350505050565b6000611d5a826114e4565b9150611d65836114e4565b9250828203905081811115611d7d57611d7c611ca1565b5b92915050565b7f4e487b7100000000000000000000000000000000000000000000000000000000600052603260045260246000fd5b7f4e6f207375636820706f73742065786973747300000000000000000000000000600082015250565b6000611de86013836115d1565b9150611df382611db2565b602082019050919050565b60006020820190508181036000830152611e1781611ddb565b9050919050565b7f5573657220616c72656164792072656769737465726564000000000000000000600082015250565b6000611e546017836115d1565b9150611e5f82611e1e565b602082019050919050565b60006020820190508181036000830152611e8381611e47565b9050919050565b60008190508160005260206000209050919050565b60006020601f8301049050919050565b600082821b905092915050565b600060088302611eec7fffffffffffffffffffffffffffffffffffffffffffffffffffffffffffffffff82611eaf565b611ef68683611eaf565b95508019841693508086168417925050509392505050565b6000819050919050565b6000611f33611f2e611f29846114e4565b611f0e565b6114e4565b9050919050565b6000819050919050565b611f4d83611f18565b611f61611f5982611f3a565b848454611ebc565b825550505050565b600090565b611f76611f69565b611f81818484611f44565b505050565b5b81811015611fa557611f9a600082611f6e565b600181019050611f87565b5050565b601f821115611fea57611fbb81611e8a565b611fc484611e9f565b81016020851015611fd3578190505b611fe7611fdf85611e9f565b830182611f86565b50505b505050565b600082821c905092915050565b600061200d60001984600802611fef565b1980831691505092915050565b60006120268383611ffc565b9150826002028217905092915050565b61203f826115c6565b67ffffffffffffffff8111156120585761205761198f565b5b6120628254611c70565b61206d828285611fa9565b600060209050601f8311600181146120a0576000841561208e578287015190505b612098858261201a565b865550612100565b601f1984166120ae86611e8a565b60005b828110156120d6578489015182556001820191506020850194506020810190506120b1565b868310156120f357848901516120ef601f891682611ffc565b8355505b6001600288020188555050505b505050505050565b7f496e76616c696420706f73742049440000000000000000000000000000000000600082015250565b600061213e600f836115d1565b915061214982612108565b602082019050919050565b6000602082019050818103600083015261216d81612131565b9050919050565b7f4e487b7100000000000000000000000000000000000000000000000000000000600052603160045260246000fd5b60008115159050919050565b6121b8816121a3565b82525050565b60006060820190506121d360008301866115b7565b6121e060208301856114ee565b6121ed60408301846121af565b949350505050565b600060408201905061220a60008301856115b7565b61221760208301846114ee565b9392505050565b6000612229826114e4565b9150612234836114e4565b925082820190508082111561224c5761224b611ca1565b5b92915050565b7f5468652074696d6520706572696f6420666f72206576656e74206973206f766560008201527f7200000000000000000000000000000000000000000000000000000000000000602082015250565b60006122ae6021836115d1565b91506122b982612252565b604082019050919050565b600060208201905081810360008301526122dd816122a1565b9050919050565b7f4e6f74207468652073616d65206576656e742069640000000000000000000000600082015250565b600061231a6015836115d1565b9150612325826122e4565b602082019050919050565b600060208201905081810360008301526123498161230d565b905091905056fea2646970667358221220b87e1e33e78c12e0f542d1dc4b7edfeae256c4fa1a49c767201027e679c04c6d64736f6c63430008110033",
  "linkReferences": {},
  "deployedLinkReferences": {}
}