{
  "_format": "hh-sol-artifact-1",
  "contractName": "DeReal",
  "sourceName": "contracts/DeReal.sol",
  "abi": [
    {
      "inputs": [],
      "stateMutability": "payable",
      "type": "constructor"
    },
    {
      "anonymous": false,
      "inputs": [
        {
          "indexed": false,
          "internalType": "address",
          "name": "triggeredBy",
          "type": "address"
        },
        {
          "indexed": false,
          "internalType": "uint256",
          "name": "timestamp",
          "type": "uint256"
        }
      ],
      "name": "CamerasTriggered",
      "type": "event"
    },
    {
      "anonymous": false,
      "inputs": [
        {
          "indexed": false,
          "internalType": "address",
          "name": "triggeredBy",
          "type": "address"
        },
        {
          "indexed": false,
          "internalType": "uint256",
          "name": "timestamp",
          "type": "uint256"
        }
      ],
      "name": "EventTriggered",
      "type": "event"
    },
    {
      "anonymous": false,
      "inputs": [
        {
          "indexed": false,
          "internalType": "address",
          "name": "user",
          "type": "address"
        },
        {
          "indexed": false,
          "internalType": "uint256",
          "name": "postId",
          "type": "uint256"
        },
        {
          "indexed": false,
          "internalType": "bool",
          "name": "isLiked",
          "type": "bool"
        }
      ],
      "name": "LikeToggled",
      "type": "event"
    },
    {
      "anonymous": false,
      "inputs": [
        {
          "indexed": false,
          "internalType": "uint256",
          "name": "timestamp",
          "type": "uint256"
        }
      ],
      "name": "NextEventScheduled",
      "type": "event"
    },
    {
      "anonymous": false,
      "inputs": [
        {
          "indexed": false,
          "internalType": "address",
          "name": "user",
          "type": "address"
        },
        {
          "indexed": false,
          "internalType": "uint256",
          "name": "postId",
          "type": "uint256"
        }
      ],
      "name": "PostCreated",
      "type": "event"
    },
    {
      "anonymous": false,
      "inputs": [
        {
          "indexed": false,
          "internalType": "address",
          "name": "user",
          "type": "address"
        }
      ],
      "name": "UserBioUpdated",
      "type": "event"
    },
    {
      "anonymous": false,
      "inputs": [
        {
          "indexed": false,
          "internalType": "address",
          "name": "user",
          "type": "address"
        }
      ],
      "name": "UserRegistered",
      "type": "event"
    },
    {
      "inputs": [
        {
          "internalType": "string",
          "name": "_ipfsHash",
          "type": "string"
        }
      ],
      "name": "createPost",
      "outputs": [],
      "stateMutability": "nonpayable",
      "type": "function"
    },
    {
      "inputs": [],
      "name": "getAllPosts",
      "outputs": [
        {
          "components": [
            {
              "internalType": "address",
              "name": "user",
              "type": "address"
            },
            {
              "internalType": "string",
              "name": "content",
              "type": "string"
            },
            {
              "internalType": "uint256",
              "name": "timestamp",
              "type": "uint256"
            },
            {
              "internalType": "address[]",
              "name": "likedBy",
              "type": "address[]"
            }
          ],
          "internalType": "struct DeReal.Post[]",
          "name": "",
          "type": "tuple[]"
        }
      ],
      "stateMutability": "view",
      "type": "function"
    },
    {
      "inputs": [
        {
          "internalType": "uint256",
          "name": "_postId",
          "type": "uint256"
        }
      ],
      "name": "getLikes",
      "outputs": [
        {
          "internalType": "uint256",
          "name": "",
          "type": "uint256"
        }
      ],
      "stateMutability": "view",
      "type": "function"
    },
    {
      "inputs": [
        {
          "internalType": "uint256",
          "name": "_postId",
          "type": "uint256"
        }
      ],
      "name": "getPost",
      "outputs": [
        {
          "components": [
            {
              "internalType": "address",
              "name": "user",
              "type": "address"
            },
            {
              "internalType": "string",
              "name": "content",
              "type": "string"
            },
            {
              "internalType": "uint256",
              "name": "timestamp",
              "type": "uint256"
            },
            {
              "internalType": "address[]",
              "name": "likedBy",
              "type": "address[]"
            }
          ],
          "internalType": "struct DeReal.Post",
          "name": "",
          "type": "tuple"
        }
      ],
      "stateMutability": "view",
      "type": "function"
    },
    {
      "inputs": [],
      "name": "getUser",
      "outputs": [
        {
          "components": [
            {
              "internalType": "string",
              "name": "bio",
              "type": "string"
            }
          ],
          "internalType": "struct DeReal.User",
          "name": "",
          "type": "tuple"
        }
      ],
      "stateMutability": "view",
      "type": "function"
    },
    {
      "inputs": [
        {
          "internalType": "uint256",
          "name": "_postId",
          "type": "uint256"
        }
      ],
      "name": "likePost",
      "outputs": [],
      "stateMutability": "nonpayable",
      "type": "function"
    },
    {
      "inputs": [],
      "name": "nextEventTimestamp",
      "outputs": [
        {
          "internalType": "uint256",
          "name": "",
          "type": "uint256"
        }
      ],
      "stateMutability": "view",
      "type": "function"
    },
    {
      "inputs": [],
      "name": "owner",
      "outputs": [
        {
          "internalType": "address",
          "name": "",
          "type": "address"
        }
      ],
      "stateMutability": "view",
      "type": "function"
    },
    {
      "inputs": [],
      "name": "postCount",
      "outputs": [
        {
          "internalType": "uint256",
          "name": "",
          "type": "uint256"
        }
      ],
      "stateMutability": "view",
      "type": "function"
    },
    {
      "inputs": [
        {
          "internalType": "uint256",
          "name": "",
          "type": "uint256"
        }
      ],
      "name": "posts",
      "outputs": [
        {
          "internalType": "address",
          "name": "user",
          "type": "address"
        },
        {
          "internalType": "string",
          "name": "content",
          "type": "string"
        },
        {
          "internalType": "uint256",
          "name": "timestamp",
          "type": "uint256"
        }
      ],
      "stateMutability": "view",
      "type": "function"
    },
    {
      "inputs": [
        {
          "internalType": "string",
          "name": "_bio",
          "type": "string"
        }
      ],
      "name": "registerUser",
      "outputs": [],
      "stateMutability": "nonpayable",
      "type": "function"
    },
    {
      "inputs": [],
      "name": "triggerCamera",
      "outputs": [],
      "stateMutability": "nonpayable",
      "type": "function"
    },
    {
      "inputs": [
        {
          "internalType": "string",
          "name": "_bio",
          "type": "string"
        }
      ],
      "name": "updateBio",
      "outputs": [],
      "stateMutability": "nonpayable",
      "type": "function"
    },
    {
      "inputs": [
        {
          "internalType": "address",
          "name": "",
          "type": "address"
        }
      ],
      "name": "users",
      "outputs": [
        {
          "internalType": "string",
          "name": "bio",
          "type": "string"
        }
      ],
      "stateMutability": "view",
      "type": "function"
    },
    {
      "inputs": [
        {
          "internalType": "address",
          "name": "_address",
          "type": "address"
        }
      ],
      "name": "viewBio",
      "outputs": [
        {
          "internalType": "string",
          "name": "",
          "type": "string"
        }
      ],
      "stateMutability": "view",
      "type": "function"
    }
  ],
  "bytecode": "0x6080604052336000806101000a81548173ffffffffffffffffffffffffffffffffffffffff021916908373ffffffffffffffffffffffffffffffffffffffff16021790555062015180426200005591906200009a565b600481905550620000d5565b6000819050919050565b7f4e487b7100000000000000000000000000000000000000000000000000000000600052601160045260246000fd5b6000620000a78262000061565b9150620000b48362000061565b9250828201905080821115620000cf57620000ce6200006b565b5b92915050565b611f1180620000e56000396000f3fe608060405234801561001057600080fd5b50600436106100f55760003560e01c806376487b3811610097578063a87430ba11610066578063a87430ba14610262578063c3066e2a14610292578063c7303c61146102b0578063f22f6fb6146102cc576100f5565b806376487b38146101da578063832880e7146101f65780638da5cb5b14610214578063a209081e14610232576100f5565b806330561100116100d3578063305611001461015457806340731c2414610172578063704f1b94146101a2578063725009d3146101be576100f5565b80630b1e7f83146100fa57806317906c2e1461012c57806326a0ea081461014a575b600080fd5b610114600480360381019061010f919061127e565b6102fc565b6040516101239392919061138b565b60405180910390f35b6101346103ce565b60405161014191906113c9565b60405180910390f35b6101526103d4565b005b61015c61040f565b6040516101699190611627565b60405180910390f35b61018c6004803603810190610187919061127e565b61065e565b60405161019991906116b3565b60405180910390f35b6101bc60048036038101906101b7919061180a565b61085c565b005b6101d860048036038101906101d3919061127e565b61098e565b005b6101f460048036038101906101ef919061180a565b610c40565b005b6101fe610cca565b60405161020b919061187d565b60405180910390f35b61021c610db3565b604051610229919061189f565b60405180910390f35b61024c6004803603810190610247919061127e565b610dd7565b60405161025991906113c9565b60405180910390f35b61027c600480360381019061027791906118e6565b610e4a565b6040516102899190611913565b60405180910390f35b61029a610ef0565b6040516102a791906113c9565b60405180910390f35b6102ca60048036038101906102c5919061180a565b610ef6565b005b6102e660048036038101906102e191906118e6565b611068565b6040516102f39190611913565b60405180910390f35b60026020528060005260406000206000915090508060000160009054906101000a900473ffffffffffffffffffffffffffffffffffffffff169080600101805461034590611964565b80601f016020809104026020016040519081016040528092919081815260200182805461037190611964565b80156103be5780601f10610393576101008083540402835291602001916103be565b820191906000526020600020905b8154815290600101906020018083116103a157829003601f168201915b5050505050908060020154905083565b60035481565b7f51a0b84b84e5d7bb3c368d8b8875989d3ae6e611d5777cb2fdb9c2e382feee313342604051610405929190611995565b60405180910390a1565b6060600060035467ffffffffffffffff81111561042f5761042e6116df565b5b60405190808252806020026020018201604052801561046857816020015b61045561113c565b81526020019060019003908161044d5790505b5090506000600190505b600354811161065657600260008281526020019081526020016000206040518060800160405290816000820160009054906101000a900473ffffffffffffffffffffffffffffffffffffffff1673ffffffffffffffffffffffffffffffffffffffff1673ffffffffffffffffffffffffffffffffffffffff1681526020016001820180546104ff90611964565b80601f016020809104026020016040519081016040528092919081815260200182805461052b90611964565b80156105785780601f1061054d57610100808354040283529160200191610578565b820191906000526020600020905b81548152906001019060200180831161055b57829003601f168201915b50505050508152602001600282015481526020016003820180548060200260200160405190810160405280929190818152602001828054801561061057602002820191906000526020600020905b8160009054906101000a900473ffffffffffffffffffffffffffffffffffffffff1673ffffffffffffffffffffffffffffffffffffffff16815260200190600101908083116105c6575b5050505050815250508260018361062791906119ed565b8151811061063857610637611a21565b5b6020026020010181905250808061064e90611a50565b915050610472565b508091505090565b61066661113c565b60008211801561067857506003548211155b6106b7576040517f08c379a00000000000000000000000000000000000000000000000000000000081526004016106ae90611ae4565b60405180910390fd5b600260008381526020019081526020016000206040518060800160405290816000820160009054906101000a900473ffffffffffffffffffffffffffffffffffffffff1673ffffffffffffffffffffffffffffffffffffffff1673ffffffffffffffffffffffffffffffffffffffff16815260200160018201805461073b90611964565b80601f016020809104026020016040519081016040528092919081815260200182805461076790611964565b80156107b45780601f10610789576101008083540402835291602001916107b4565b820191906000526020600020905b81548152906001019060200180831161079757829003601f168201915b50505050508152602001600282015481526020016003820180548060200260200160405190810160405280929190818152602001828054801561084c57602002820191906000526020600020905b8160009054906101000a900473ffffffffffffffffffffffffffffffffffffffff1673ffffffffffffffffffffffffffffffffffffffff1681526020019060010190808311610802575b5050505050815250509050919050565b6000600160003373ffffffffffffffffffffffffffffffffffffffff1673ffffffffffffffffffffffffffffffffffffffff16815260200190815260200160002060000180546108ab90611964565b9050146108ed576040517f08c379a00000000000000000000000000000000000000000000000000000000081526004016108e490611b50565b60405180910390fd5b604051806020016040528082815250600160003373ffffffffffffffffffffffffffffffffffffffff1673ffffffffffffffffffffffffffffffffffffffff16815260200190815260200160002060008201518160000190816109509190611d1c565b509050507f54db7a5cb4735e1aac1f53db512d3390390bb6637bd30ad4bf9fc98667d9b9b933604051610983919061189f565b60405180910390a150565b6000811180156109a057506003548111155b6109df576040517f08c379a00000000000000000000000000000000000000000000000000000000081526004016109d690611e3a565b60405180910390fd5b60006002600083815260200190815260200160002090506000805b8260030180549050811015610b93573373ffffffffffffffffffffffffffffffffffffffff16836003018281548110610a3657610a35611a21565b5b9060005260206000200160009054906101000a900473ffffffffffffffffffffffffffffffffffffffff1673ffffffffffffffffffffffffffffffffffffffff1603610b80578260030160018460030180549050610a9491906119ed565b81548110610aa557610aa4611a21565b5b9060005260206000200160009054906101000a900473ffffffffffffffffffffffffffffffffffffffff16836003018281548110610ae657610ae5611a21565b5b9060005260206000200160006101000a81548173ffffffffffffffffffffffffffffffffffffffff021916908373ffffffffffffffffffffffffffffffffffffffff16021790555082600301805480610b4257610b41611e5a565b5b6001900381819060005260206000200160006101000a81549073ffffffffffffffffffffffffffffffffffffffff0219169055905560019150610b93565b8080610b8b90611a50565b9150506109fa565b5080610bff5781600301339080600181540180825580915050600190039060005260206000200160009091909190916101000a81548173ffffffffffffffffffffffffffffffffffffffff021916908373ffffffffffffffffffffffffffffffffffffffff1602179055505b7f4d5c3df35a8d7d04f2e10db1454548af37ee7449c97a4b4c243681f29c2ea40733848315604051610c3393929190611ea4565b60405180910390a1505050565b80600160003373ffffffffffffffffffffffffffffffffffffffff1673ffffffffffffffffffffffffffffffffffffffff1681526020019081526020016000206000019081610c8f9190611d1c565b507f4fb6ef93ce36ff223115f0546a70e86405e3843d8ffe9f9ddc5d3107dd58245333604051610cbf919061189f565b60405180910390a150565b610cd261117a565b600160003373ffffffffffffffffffffffffffffffffffffffff1673ffffffffffffffffffffffffffffffffffffffff168152602001908152602001600020604051806020016040529081600082018054610d2c90611964565b80601f0160208091040260200160405190810160405280929190818152602001828054610d5890611964565b8015610da55780601f10610d7a57610100808354040283529160200191610da5565b820191906000526020600020905b815481529060010190602001808311610d8857829003601f168201915b505050505081525050905090565b60008054906101000a900473ffffffffffffffffffffffffffffffffffffffff1681565b60008082118015610dea57506003548211155b610e29576040517f08c379a0000000000000000000000000000000000000000000000000000000008152600401610e2090611e3a565b60405180910390fd5b60026000838152602001908152602001600020600301805490509050919050565b6001602052806000526040600020600091509050806000018054610e6d90611964565b80601f0160208091040260200160405190810160405280929190818152602001828054610e9990611964565b8015610ee65780601f10610ebb57610100808354040283529160200191610ee6565b820191906000526020600020905b815481529060010190602001808311610ec957829003601f168201915b5050505050905081565b60045481565b60036000815480929190610f0990611a50565b919050555060405180608001604052803373ffffffffffffffffffffffffffffffffffffffff168152602001828152602001428152602001600067ffffffffffffffff811115610f5c57610f5b6116df565b5b604051908082528060200260200182016040528015610f8a5781602001602082028036833780820191505090505b5081525060026000600354815260200190815260200160002060008201518160000160006101000a81548173ffffffffffffffffffffffffffffffffffffffff021916908373ffffffffffffffffffffffffffffffffffffffff1602179055506020820151816001019081610fff9190611d1c565b5060408201518160020155606082015181600301908051906020019061102692919061118d565b509050507f09cf2578b7d56ad392e46d90ca0c5004ffca074e158a150ccc34aac58ce1b8c63360035460405161105d929190611995565b60405180910390a150565b6060600160008373ffffffffffffffffffffffffffffffffffffffff1673ffffffffffffffffffffffffffffffffffffffff16815260200190815260200160002060000180546110b790611964565b80601f01602080910402602001604051908101604052809291908181526020018280546110e390611964565b80156111305780601f1061110557610100808354040283529160200191611130565b820191906000526020600020905b81548152906001019060200180831161111357829003601f168201915b50505050509050919050565b6040518060800160405280600073ffffffffffffffffffffffffffffffffffffffff1681526020016060815260200160008152602001606081525090565b6040518060200160405280606081525090565b828054828255906000526020600020908101928215611206579160200282015b828111156112055782518260006101000a81548173ffffffffffffffffffffffffffffffffffffffff021916908373ffffffffffffffffffffffffffffffffffffffff160217905550916020019190600101906111ad565b5b5090506112139190611217565b5090565b5b80821115611230576000816000905550600101611218565b5090565b6000604051905090565b600080fd5b600080fd5b6000819050919050565b61125b81611248565b811461126657600080fd5b50565b60008135905061127881611252565b92915050565b6000602082840312156112945761129361123e565b5b60006112a284828501611269565b91505092915050565b600073ffffffffffffffffffffffffffffffffffffffff82169050919050565b60006112d6826112ab565b9050919050565b6112e6816112cb565b82525050565b600081519050919050565b600082825260208201905092915050565b60005b8381101561132657808201518184015260208101905061130b565b60008484015250505050565b6000601f19601f8301169050919050565b600061134e826112ec565b61135881856112f7565b9350611368818560208601611308565b61137181611332565b840191505092915050565b61138581611248565b82525050565b60006060820190506113a060008301866112dd565b81810360208301526113b28185611343565b90506113c1604083018461137c565b949350505050565b60006020820190506113de600083018461137c565b92915050565b600081519050919050565b600082825260208201905092915050565b6000819050602082019050919050565b611419816112cb565b82525050565b600082825260208201905092915050565b600061143b826112ec565b611445818561141f565b9350611455818560208601611308565b61145e81611332565b840191505092915050565b61147281611248565b82525050565b600081519050919050565b600082825260208201905092915050565b6000819050602082019050919050565b60006114b08383611410565b60208301905092915050565b6000602082019050919050565b60006114d482611478565b6114de8185611483565b93506114e983611494565b8060005b8381101561151a57815161150188826114a4565b975061150c836114bc565b9250506001810190506114ed565b5085935050505092915050565b600060808301600083015161153f6000860182611410565b50602083015184820360208601526115578282611430565b915050604083015161156c6040860182611469565b506060830151848203606086015261158482826114c9565b9150508091505092915050565b600061159d8383611527565b905092915050565b6000602082019050919050565b60006115bd826113e4565b6115c781856113ef565b9350836020820285016115d985611400565b8060005b8581101561161557848403895281516115f68582611591565b9450611601836115a5565b925060208a019950506001810190506115dd565b50829750879550505050505092915050565b6000602082019050818103600083015261164181846115b2565b905092915050565b60006080830160008301516116616000860182611410565b50602083015184820360208601526116798282611430565b915050604083015161168e6040860182611469565b50606083015184820360608601526116a682826114c9565b9150508091505092915050565b600060208201905081810360008301526116cd8184611649565b905092915050565b600080fd5b600080fd5b7f4e487b7100000000000000000000000000000000000000000000000000000000600052604160045260246000fd5b61171782611332565b810181811067ffffffffffffffff82111715611736576117356116df565b5b80604052505050565b6000611749611234565b9050611755828261170e565b919050565b600067ffffffffffffffff821115611775576117746116df565b5b61177e82611332565b9050602081019050919050565b82818337600083830152505050565b60006117ad6117a88461175a565b61173f565b9050828152602081018484840111156117c9576117c86116da565b5b6117d484828561178b565b509392505050565b600082601f8301126117f1576117f06116d5565b5b813561180184826020860161179a565b91505092915050565b6000602082840312156118205761181f61123e565b5b600082013567ffffffffffffffff81111561183e5761183d611243565b5b61184a848285016117dc565b91505092915050565b600060208301600083015184820360008601526118708282611430565b9150508091505092915050565b600060208201905081810360008301526118978184611853565b905092915050565b60006020820190506118b460008301846112dd565b92915050565b6118c3816112cb565b81146118ce57600080fd5b50565b6000813590506118e0816118ba565b92915050565b6000602082840312156118fc576118fb61123e565b5b600061190a848285016118d1565b91505092915050565b6000602082019050818103600083015261192d8184611343565b905092915050565b7f4e487b7100000000000000000000000000000000000000000000000000000000600052602260045260246000fd5b6000600282049050600182168061197c57607f821691505b60208210810361198f5761198e611935565b5b50919050565b60006040820190506119aa60008301856112dd565b6119b7602083018461137c565b9392505050565b7f4e487b7100000000000000000000000000000000000000000000000000000000600052601160045260246000fd5b60006119f882611248565b9150611a0383611248565b9250828203905081811115611a1b57611a1a6119be565b5b92915050565b7f4e487b7100000000000000000000000000000000000000000000000000000000600052603260045260246000fd5b6000611a5b82611248565b91507fffffffffffffffffffffffffffffffffffffffffffffffffffffffffffffffff8203611a8d57611a8c6119be565b5b600182019050919050565b7f4e6f207375636820706f73742065786973747300000000000000000000000000600082015250565b6000611ace6013836112f7565b9150611ad982611a98565b602082019050919050565b60006020820190508181036000830152611afd81611ac1565b9050919050565b7f5573657220616c72656164792072656769737465726564000000000000000000600082015250565b6000611b3a6017836112f7565b9150611b4582611b04565b602082019050919050565b60006020820190508181036000830152611b6981611b2d565b9050919050565b60008190508160005260206000209050919050565b60006020601f8301049050919050565b600082821b905092915050565b600060088302611bd27fffffffffffffffffffffffffffffffffffffffffffffffffffffffffffffffff82611b95565b611bdc8683611b95565b95508019841693508086168417925050509392505050565b6000819050919050565b6000611c19611c14611c0f84611248565b611bf4565b611248565b9050919050565b6000819050919050565b611c3383611bfe565b611c47611c3f82611c20565b848454611ba2565b825550505050565b600090565b611c5c611c4f565b611c67818484611c2a565b505050565b5b81811015611c8b57611c80600082611c54565b600181019050611c6d565b5050565b601f821115611cd057611ca181611b70565b611caa84611b85565b81016020851015611cb9578190505b611ccd611cc585611b85565b830182611c6c565b50505b505050565b600082821c905092915050565b6000611cf360001984600802611cd5565b1980831691505092915050565b6000611d0c8383611ce2565b9150826002028217905092915050565b611d25826112ec565b67ffffffffffffffff811115611d3e57611d3d6116df565b5b611d488254611964565b611d53828285611c8f565b600060209050601f831160018114611d865760008415611d74578287015190505b611d7e8582611d00565b865550611de6565b601f198416611d9486611b70565b60005b82811015611dbc57848901518255600182019150602085019450602081019050611d97565b86831015611dd95784890151611dd5601f891682611ce2565b8355505b6001600288020188555050505b505050505050565b7f496e76616c696420706f73742049440000000000000000000000000000000000600082015250565b6000611e24600f836112f7565b9150611e2f82611dee565b602082019050919050565b60006020820190508181036000830152611e5381611e17565b9050919050565b7f4e487b7100000000000000000000000000000000000000000000000000000000600052603160045260246000fd5b60008115159050919050565b611e9e81611e89565b82525050565b6000606082019050611eb960008301866112dd565b611ec6602083018561137c565b611ed36040830184611e95565b94935050505056fea26469706673582212205f6294f457e896c86d4a23317d2b2573dd47b573a9ca82f37dd4f4e2ca97034664736f6c63430008110033",
  "linkReferences": {},
  "deployedLinkReferences": {}
}