{
  "_format": "hh-sol-artifact-1",
  "contractName": "DeReal",
  "sourceName": "contracts/DeReal.sol",
  "abi": [
    {
      "inputs": [],
      "stateMutability": "payable",
      "type": "constructor"
    },
    {
      "anonymous": false,
      "inputs": [
        {
          "indexed": false,
          "internalType": "address",
          "name": "triggeredBy",
          "type": "address"
        },
        {
          "indexed": false,
          "internalType": "uint256",
          "name": "timestamp",
          "type": "uint256"
        }
      ],
      "name": "CamerasTriggered",
      "type": "event"
    },
    {
      "anonymous": false,
      "inputs": [
        {
          "indexed": false,
          "internalType": "address",
          "name": "triggeredBy",
          "type": "address"
        },
        {
          "indexed": false,
          "internalType": "uint256",
          "name": "timestamp",
          "type": "uint256"
        }
      ],
      "name": "EventTriggered",
      "type": "event"
    },
    {
      "anonymous": false,
      "inputs": [
        {
          "indexed": false,
          "internalType": "address",
          "name": "user",
          "type": "address"
        },
        {
          "indexed": false,
          "internalType": "uint256",
          "name": "postId",
          "type": "uint256"
        },
        {
          "indexed": false,
          "internalType": "bool",
          "name": "isLiked",
          "type": "bool"
        }
      ],
      "name": "LikeToggled",
      "type": "event"
    },
    {
      "anonymous": false,
      "inputs": [
        {
          "indexed": false,
          "internalType": "uint256",
          "name": "timestamp",
          "type": "uint256"
        }
      ],
      "name": "NextEventScheduled",
      "type": "event"
    },
    {
      "anonymous": false,
      "inputs": [
        {
          "indexed": false,
          "internalType": "address",
          "name": "user",
          "type": "address"
        },
        {
          "indexed": false,
          "internalType": "uint256",
          "name": "postId",
          "type": "uint256"
        }
      ],
      "name": "PostCreated",
      "type": "event"
    },
    {
      "anonymous": false,
      "inputs": [
        {
          "indexed": false,
          "internalType": "address",
          "name": "user",
          "type": "address"
        }
      ],
      "name": "UserBioUpdated",
      "type": "event"
    },
    {
      "anonymous": false,
      "inputs": [
        {
          "indexed": false,
          "internalType": "address",
          "name": "user",
          "type": "address"
        }
      ],
      "name": "UserRegistered",
      "type": "event"
    },
    {
      "inputs": [
        {
          "internalType": "string",
          "name": "_ipfsHash",
          "type": "string"
        }
      ],
      "name": "createPost",
      "outputs": [],
      "stateMutability": "nonpayable",
      "type": "function"
    },
    {
      "inputs": [],
      "name": "getAllPosts",
      "outputs": [
        {
          "components": [
            {
              "internalType": "address",
              "name": "user",
              "type": "address"
            },
            {
              "internalType": "string",
              "name": "content",
              "type": "string"
            },
            {
              "internalType": "uint256",
              "name": "timestamp",
              "type": "uint256"
            },
            {
              "internalType": "address[]",
              "name": "likedBy",
              "type": "address[]"
            }
          ],
          "internalType": "struct DeReal.Post[]",
          "name": "",
          "type": "tuple[]"
        }
      ],
      "stateMutability": "view",
      "type": "function"
    },
    {
      "inputs": [
        {
          "internalType": "uint256",
          "name": "_postId",
          "type": "uint256"
        }
      ],
      "name": "getLikes",
      "outputs": [
        {
          "internalType": "uint256",
          "name": "",
          "type": "uint256"
        }
      ],
      "stateMutability": "view",
      "type": "function"
    },
    {
      "inputs": [
        {
          "internalType": "uint256",
          "name": "_postId",
          "type": "uint256"
        }
      ],
      "name": "getPost",
      "outputs": [
        {
          "components": [
            {
              "internalType": "address",
              "name": "user",
              "type": "address"
            },
            {
              "internalType": "string",
              "name": "content",
              "type": "string"
            },
            {
              "internalType": "uint256",
              "name": "timestamp",
              "type": "uint256"
            },
            {
              "internalType": "address[]",
              "name": "likedBy",
              "type": "address[]"
            }
          ],
          "internalType": "struct DeReal.Post",
          "name": "",
          "type": "tuple"
        }
      ],
      "stateMutability": "view",
      "type": "function"
    },
    {
      "inputs": [],
      "name": "getUser",
      "outputs": [
        {
          "components": [
            {
              "internalType": "string",
              "name": "bio",
              "type": "string"
            }
          ],
          "internalType": "struct DeReal.User",
          "name": "",
          "type": "tuple"
        }
      ],
      "stateMutability": "view",
      "type": "function"
    },
    {
      "inputs": [
        {
          "internalType": "uint256",
          "name": "_postId",
          "type": "uint256"
        }
      ],
      "name": "likePost",
      "outputs": [],
      "stateMutability": "nonpayable",
      "type": "function"
    },
    {
      "inputs": [],
      "name": "nextEventTimestamp",
      "outputs": [
        {
          "internalType": "uint256",
          "name": "",
          "type": "uint256"
        }
      ],
      "stateMutability": "view",
      "type": "function"
    },
    {
      "inputs": [],
      "name": "owner",
      "outputs": [
        {
          "internalType": "address",
          "name": "",
          "type": "address"
        }
      ],
      "stateMutability": "view",
      "type": "function"
    },
    {
      "inputs": [],
      "name": "postCount",
      "outputs": [
        {
          "internalType": "uint256",
          "name": "",
          "type": "uint256"
        }
      ],
      "stateMutability": "view",
      "type": "function"
    },
    {
      "inputs": [
        {
          "internalType": "uint256",
          "name": "",
          "type": "uint256"
        }
      ],
      "name": "posts",
      "outputs": [
        {
          "internalType": "address",
          "name": "user",
          "type": "address"
        },
        {
          "internalType": "string",
          "name": "content",
          "type": "string"
        },
        {
          "internalType": "uint256",
          "name": "timestamp",
          "type": "uint256"
        }
      ],
      "stateMutability": "view",
      "type": "function"
    },
    {
      "inputs": [
        {
          "internalType": "string",
          "name": "_bio",
          "type": "string"
        }
      ],
      "name": "registerUser",
      "outputs": [],
      "stateMutability": "nonpayable",
      "type": "function"
    },
    {
      "inputs": [
        {
          "internalType": "string",
          "name": "_bio",
          "type": "string"
        }
      ],
      "name": "updateBio",
      "outputs": [],
      "stateMutability": "nonpayable",
      "type": "function"
    },
    {
      "inputs": [
        {
          "internalType": "address",
          "name": "",
          "type": "address"
        }
      ],
      "name": "users",
      "outputs": [
        {
          "internalType": "string",
          "name": "bio",
          "type": "string"
        }
      ],
      "stateMutability": "view",
      "type": "function"
    },
    {
      "inputs": [
        {
          "internalType": "address",
          "name": "_address",
          "type": "address"
        }
      ],
      "name": "viewBio",
      "outputs": [
        {
          "internalType": "string",
          "name": "",
          "type": "string"
        }
      ],
      "stateMutability": "view",
      "type": "function"
    }
  ],
  "bytecode": "0x6080604052336000806101000a81548173ffffffffffffffffffffffffffffffffffffffff021916908373ffffffffffffffffffffffffffffffffffffffff16021790555062015180426200005591906200009a565b600481905550620000d5565b6000819050919050565b7f4e487b7100000000000000000000000000000000000000000000000000000000600052601160045260246000fd5b6000620000a78262000061565b9150620000b48362000061565b9250828201905080821115620000cf57620000ce6200006b565b5b92915050565b611ec180620000e56000396000f3fe608060405234801561001057600080fd5b50600436106100ea5760003560e01c8063832880e71161008c578063a87430ba11610066578063a87430ba1461024d578063c3066e2a1461027d578063c7303c611461029b578063f22f6fb6146102b7576100ea565b8063832880e7146101e15780638da5cb5b146101ff578063a209081e1461021d576100ea565b806340731c24116100c857806340731c241461015d578063704f1b941461018d578063725009d3146101a957806376487b38146101c5576100ea565b80630b1e7f83146100ef57806317906c2e14610121578063305611001461013f575b600080fd5b6101096004803603810190610104919061122e565b6102e7565b6040516101189392919061133b565b60405180910390f35b6101296103b9565b6040516101369190611379565b60405180910390f35b6101476103bf565b60405161015491906115d7565b60405180910390f35b6101776004803603810190610172919061122e565b61060e565b6040516101849190611663565b60405180910390f35b6101a760048036038101906101a291906117ba565b61080c565b005b6101c360048036038101906101be919061122e565b61093e565b005b6101df60048036038101906101da91906117ba565b610bf0565b005b6101e9610c7a565b6040516101f6919061182d565b60405180910390f35b610207610d63565b604051610214919061184f565b60405180910390f35b6102376004803603810190610232919061122e565b610d87565b6040516102449190611379565b60405180910390f35b61026760048036038101906102629190611896565b610dfa565b60405161027491906118c3565b60405180910390f35b610285610ea0565b6040516102929190611379565b60405180910390f35b6102b560048036038101906102b091906117ba565b610ea6565b005b6102d160048036038101906102cc9190611896565b611018565b6040516102de91906118c3565b60405180910390f35b60026020528060005260406000206000915090508060000160009054906101000a900473ffffffffffffffffffffffffffffffffffffffff169080600101805461033090611914565b80601f016020809104026020016040519081016040528092919081815260200182805461035c90611914565b80156103a95780601f1061037e576101008083540402835291602001916103a9565b820191906000526020600020905b81548152906001019060200180831161038c57829003601f168201915b5050505050908060020154905083565b60035481565b6060600060035467ffffffffffffffff8111156103df576103de61168f565b5b60405190808252806020026020018201604052801561041857816020015b6104056110ec565b8152602001906001900390816103fd5790505b5090506000600190505b600354811161060657600260008281526020019081526020016000206040518060800160405290816000820160009054906101000a900473ffffffffffffffffffffffffffffffffffffffff1673ffffffffffffffffffffffffffffffffffffffff1673ffffffffffffffffffffffffffffffffffffffff1681526020016001820180546104af90611914565b80601f01602080910402602001604051908101604052809291908181526020018280546104db90611914565b80156105285780601f106104fd57610100808354040283529160200191610528565b820191906000526020600020905b81548152906001019060200180831161050b57829003601f168201915b5050505050815260200160028201548152602001600382018054806020026020016040519081016040528092919081815260200182805480156105c057602002820191906000526020600020905b8160009054906101000a900473ffffffffffffffffffffffffffffffffffffffff1673ffffffffffffffffffffffffffffffffffffffff1681526020019060010190808311610576575b505050505081525050826001836105d79190611974565b815181106105e8576105e76119a8565b5b602002602001018190525080806105fe906119d7565b915050610422565b508091505090565b6106166110ec565b60008211801561062857506003548211155b610667576040517f08c379a000000000000000000000000000000000000000000000000000000000815260040161065e90611a6b565b60405180910390fd5b600260008381526020019081526020016000206040518060800160405290816000820160009054906101000a900473ffffffffffffffffffffffffffffffffffffffff1673ffffffffffffffffffffffffffffffffffffffff1673ffffffffffffffffffffffffffffffffffffffff1681526020016001820180546106eb90611914565b80601f016020809104026020016040519081016040528092919081815260200182805461071790611914565b80156107645780601f1061073957610100808354040283529160200191610764565b820191906000526020600020905b81548152906001019060200180831161074757829003601f168201915b5050505050815260200160028201548152602001600382018054806020026020016040519081016040528092919081815260200182805480156107fc57602002820191906000526020600020905b8160009054906101000a900473ffffffffffffffffffffffffffffffffffffffff1673ffffffffffffffffffffffffffffffffffffffff16815260200190600101908083116107b2575b5050505050815250509050919050565b6000600160003373ffffffffffffffffffffffffffffffffffffffff1673ffffffffffffffffffffffffffffffffffffffff168152602001908152602001600020600001805461085b90611914565b90501461089d576040517f08c379a000000000000000000000000000000000000000000000000000000000815260040161089490611ad7565b60405180910390fd5b604051806020016040528082815250600160003373ffffffffffffffffffffffffffffffffffffffff1673ffffffffffffffffffffffffffffffffffffffff16815260200190815260200160002060008201518160000190816109009190611ca3565b509050507f54db7a5cb4735e1aac1f53db512d3390390bb6637bd30ad4bf9fc98667d9b9b933604051610933919061184f565b60405180910390a150565b60008111801561095057506003548111155b61098f576040517f08c379a000000000000000000000000000000000000000000000000000000000815260040161098690611dc1565b60405180910390fd5b60006002600083815260200190815260200160002090506000805b8260030180549050811015610b43573373ffffffffffffffffffffffffffffffffffffffff168360030182815481106109e6576109e56119a8565b5b9060005260206000200160009054906101000a900473ffffffffffffffffffffffffffffffffffffffff1673ffffffffffffffffffffffffffffffffffffffff1603610b30578260030160018460030180549050610a449190611974565b81548110610a5557610a546119a8565b5b9060005260206000200160009054906101000a900473ffffffffffffffffffffffffffffffffffffffff16836003018281548110610a9657610a956119a8565b5b9060005260206000200160006101000a81548173ffffffffffffffffffffffffffffffffffffffff021916908373ffffffffffffffffffffffffffffffffffffffff16021790555082600301805480610af257610af1611de1565b5b6001900381819060005260206000200160006101000a81549073ffffffffffffffffffffffffffffffffffffffff0219169055905560019150610b43565b8080610b3b906119d7565b9150506109aa565b5080610baf5781600301339080600181540180825580915050600190039060005260206000200160009091909190916101000a81548173ffffffffffffffffffffffffffffffffffffffff021916908373ffffffffffffffffffffffffffffffffffffffff1602179055505b7f4d5c3df35a8d7d04f2e10db1454548af37ee7449c97a4b4c243681f29c2ea40733848315604051610be393929190611e2b565b60405180910390a1505050565b80600160003373ffffffffffffffffffffffffffffffffffffffff1673ffffffffffffffffffffffffffffffffffffffff1681526020019081526020016000206000019081610c3f9190611ca3565b507f4fb6ef93ce36ff223115f0546a70e86405e3843d8ffe9f9ddc5d3107dd58245333604051610c6f919061184f565b60405180910390a150565b610c8261112a565b600160003373ffffffffffffffffffffffffffffffffffffffff1673ffffffffffffffffffffffffffffffffffffffff168152602001908152602001600020604051806020016040529081600082018054610cdc90611914565b80601f0160208091040260200160405190810160405280929190818152602001828054610d0890611914565b8015610d555780601f10610d2a57610100808354040283529160200191610d55565b820191906000526020600020905b815481529060010190602001808311610d3857829003601f168201915b505050505081525050905090565b60008054906101000a900473ffffffffffffffffffffffffffffffffffffffff1681565b60008082118015610d9a57506003548211155b610dd9576040517f08c379a0000000000000000000000000000000000000000000000000000000008152600401610dd090611dc1565b60405180910390fd5b60026000838152602001908152602001600020600301805490509050919050565b6001602052806000526040600020600091509050806000018054610e1d90611914565b80601f0160208091040260200160405190810160405280929190818152602001828054610e4990611914565b8015610e965780601f10610e6b57610100808354040283529160200191610e96565b820191906000526020600020905b815481529060010190602001808311610e7957829003601f168201915b5050505050905081565b60045481565b60036000815480929190610eb9906119d7565b919050555060405180608001604052803373ffffffffffffffffffffffffffffffffffffffff168152602001828152602001428152602001600067ffffffffffffffff811115610f0c57610f0b61168f565b5b604051908082528060200260200182016040528015610f3a5781602001602082028036833780820191505090505b5081525060026000600354815260200190815260200160002060008201518160000160006101000a81548173ffffffffffffffffffffffffffffffffffffffff021916908373ffffffffffffffffffffffffffffffffffffffff1602179055506020820151816001019081610faf9190611ca3565b50604082015181600201556060820151816003019080519060200190610fd692919061113d565b509050507f09cf2578b7d56ad392e46d90ca0c5004ffca074e158a150ccc34aac58ce1b8c63360035460405161100d929190611e62565b60405180910390a150565b6060600160008373ffffffffffffffffffffffffffffffffffffffff1673ffffffffffffffffffffffffffffffffffffffff168152602001908152602001600020600001805461106790611914565b80601f016020809104026020016040519081016040528092919081815260200182805461109390611914565b80156110e05780601f106110b5576101008083540402835291602001916110e0565b820191906000526020600020905b8154815290600101906020018083116110c357829003601f168201915b50505050509050919050565b6040518060800160405280600073ffffffffffffffffffffffffffffffffffffffff1681526020016060815260200160008152602001606081525090565b6040518060200160405280606081525090565b8280548282559060005260206000209081019282156111b6579160200282015b828111156111b55782518260006101000a81548173ffffffffffffffffffffffffffffffffffffffff021916908373ffffffffffffffffffffffffffffffffffffffff1602179055509160200191906001019061115d565b5b5090506111c391906111c7565b5090565b5b808211156111e05760008160009055506001016111c8565b5090565b6000604051905090565b600080fd5b600080fd5b6000819050919050565b61120b816111f8565b811461121657600080fd5b50565b60008135905061122881611202565b92915050565b600060208284031215611244576112436111ee565b5b600061125284828501611219565b91505092915050565b600073ffffffffffffffffffffffffffffffffffffffff82169050919050565b60006112868261125b565b9050919050565b6112968161127b565b82525050565b600081519050919050565b600082825260208201905092915050565b60005b838110156112d65780820151818401526020810190506112bb565b60008484015250505050565b6000601f19601f8301169050919050565b60006112fe8261129c565b61130881856112a7565b93506113188185602086016112b8565b611321816112e2565b840191505092915050565b611335816111f8565b82525050565b6000606082019050611350600083018661128d565b818103602083015261136281856112f3565b9050611371604083018461132c565b949350505050565b600060208201905061138e600083018461132c565b92915050565b600081519050919050565b600082825260208201905092915050565b6000819050602082019050919050565b6113c98161127b565b82525050565b600082825260208201905092915050565b60006113eb8261129c565b6113f581856113cf565b93506114058185602086016112b8565b61140e816112e2565b840191505092915050565b611422816111f8565b82525050565b600081519050919050565b600082825260208201905092915050565b6000819050602082019050919050565b600061146083836113c0565b60208301905092915050565b6000602082019050919050565b600061148482611428565b61148e8185611433565b935061149983611444565b8060005b838110156114ca5781516114b18882611454565b97506114bc8361146c565b92505060018101905061149d565b5085935050505092915050565b60006080830160008301516114ef60008601826113c0565b506020830151848203602086015261150782826113e0565b915050604083015161151c6040860182611419565b50606083015184820360608601526115348282611479565b9150508091505092915050565b600061154d83836114d7565b905092915050565b6000602082019050919050565b600061156d82611394565b611577818561139f565b935083602082028501611589856113b0565b8060005b858110156115c557848403895281516115a68582611541565b94506115b183611555565b925060208a0199505060018101905061158d565b50829750879550505050505092915050565b600060208201905081810360008301526115f18184611562565b905092915050565b600060808301600083015161161160008601826113c0565b506020830151848203602086015261162982826113e0565b915050604083015161163e6040860182611419565b50606083015184820360608601526116568282611479565b9150508091505092915050565b6000602082019050818103600083015261167d81846115f9565b905092915050565b600080fd5b600080fd5b7f4e487b7100000000000000000000000000000000000000000000000000000000600052604160045260246000fd5b6116c7826112e2565b810181811067ffffffffffffffff821117156116e6576116e561168f565b5b80604052505050565b60006116f96111e4565b905061170582826116be565b919050565b600067ffffffffffffffff8211156117255761172461168f565b5b61172e826112e2565b9050602081019050919050565b82818337600083830152505050565b600061175d6117588461170a565b6116ef565b9050828152602081018484840111156117795761177861168a565b5b61178484828561173b565b509392505050565b600082601f8301126117a1576117a0611685565b5b81356117b184826020860161174a565b91505092915050565b6000602082840312156117d0576117cf6111ee565b5b600082013567ffffffffffffffff8111156117ee576117ed6111f3565b5b6117fa8482850161178c565b91505092915050565b6000602083016000830151848203600086015261182082826113e0565b9150508091505092915050565b600060208201905081810360008301526118478184611803565b905092915050565b6000602082019050611864600083018461128d565b92915050565b6118738161127b565b811461187e57600080fd5b50565b6000813590506118908161186a565b92915050565b6000602082840312156118ac576118ab6111ee565b5b60006118ba84828501611881565b91505092915050565b600060208201905081810360008301526118dd81846112f3565b905092915050565b7f4e487b7100000000000000000000000000000000000000000000000000000000600052602260045260246000fd5b6000600282049050600182168061192c57607f821691505b60208210810361193f5761193e6118e5565b5b50919050565b7f4e487b7100000000000000000000000000000000000000000000000000000000600052601160045260246000fd5b600061197f826111f8565b915061198a836111f8565b92508282039050818111156119a2576119a1611945565b5b92915050565b7f4e487b7100000000000000000000000000000000000000000000000000000000600052603260045260246000fd5b60006119e2826111f8565b91507fffffffffffffffffffffffffffffffffffffffffffffffffffffffffffffffff8203611a1457611a13611945565b5b600182019050919050565b7f4e6f207375636820706f73742065786973747300000000000000000000000000600082015250565b6000611a556013836112a7565b9150611a6082611a1f565b602082019050919050565b60006020820190508181036000830152611a8481611a48565b9050919050565b7f5573657220616c72656164792072656769737465726564000000000000000000600082015250565b6000611ac16017836112a7565b9150611acc82611a8b565b602082019050919050565b60006020820190508181036000830152611af081611ab4565b9050919050565b60008190508160005260206000209050919050565b60006020601f8301049050919050565b600082821b905092915050565b600060088302611b597fffffffffffffffffffffffffffffffffffffffffffffffffffffffffffffffff82611b1c565b611b638683611b1c565b95508019841693508086168417925050509392505050565b6000819050919050565b6000611ba0611b9b611b96846111f8565b611b7b565b6111f8565b9050919050565b6000819050919050565b611bba83611b85565b611bce611bc682611ba7565b848454611b29565b825550505050565b600090565b611be3611bd6565b611bee818484611bb1565b505050565b5b81811015611c1257611c07600082611bdb565b600181019050611bf4565b5050565b601f821115611c5757611c2881611af7565b611c3184611b0c565b81016020851015611c40578190505b611c54611c4c85611b0c565b830182611bf3565b50505b505050565b600082821c905092915050565b6000611c7a60001984600802611c5c565b1980831691505092915050565b6000611c938383611c69565b9150826002028217905092915050565b611cac8261129c565b67ffffffffffffffff811115611cc557611cc461168f565b5b611ccf8254611914565b611cda828285611c16565b600060209050601f831160018114611d0d5760008415611cfb578287015190505b611d058582611c87565b865550611d6d565b601f198416611d1b86611af7565b60005b82811015611d4357848901518255600182019150602085019450602081019050611d1e565b86831015611d605784890151611d5c601f891682611c69565b8355505b6001600288020188555050505b505050505050565b7f496e76616c696420706f73742049440000000000000000000000000000000000600082015250565b6000611dab600f836112a7565b9150611db682611d75565b602082019050919050565b60006020820190508181036000830152611dda81611d9e565b9050919050565b7f4e487b7100000000000000000000000000000000000000000000000000000000600052603160045260246000fd5b60008115159050919050565b611e2581611e10565b82525050565b6000606082019050611e40600083018661128d565b611e4d602083018561132c565b611e5a6040830184611e1c565b949350505050565b6000604082019050611e77600083018561128d565b611e84602083018461132c565b939250505056fea264697066735822122008d54f63a397eb77dcfd22e59477ab3ea7ee2a699196cb6dff508cce2b910ecd64736f6c63430008110033",
  "linkReferences": {},
  "deployedLinkReferences": {}
}