{
  "_format": "hh-sol-artifact-1",
  "contractName": "DeReal",
  "sourceName": "contracts/DeReal.sol",
  "abi": [
    {
      "inputs": [
        {
          "internalType": "address",
          "name": "_entropyAddress",
          "type": "address"
        },
        {
          "internalType": "address",
          "name": "_provider",
          "type": "address"
        }
      ],
      "stateMutability": "payable",
      "type": "constructor"
    },
    {
      "anonymous": false,
      "inputs": [
        {
          "indexed": false,
          "internalType": "address",
          "name": "triggeredBy",
          "type": "address"
        },
        {
          "indexed": false,
          "internalType": "uint256",
          "name": "timestamp",
          "type": "uint256"
        }
      ],
      "name": "CamerasTriggered",
      "type": "event"
    },
    {
      "anonymous": false,
      "inputs": [
        {
          "indexed": false,
          "internalType": "address",
          "name": "user",
          "type": "address"
        },
        {
          "indexed": false,
          "internalType": "uint256",
          "name": "interactionId",
          "type": "uint256"
        }
      ],
      "name": "InteractionPosted",
      "type": "event"
    },
    {
      "anonymous": false,
      "inputs": [
        {
          "indexed": false,
          "internalType": "address",
          "name": "user",
          "type": "address"
        },
        {
          "indexed": false,
          "internalType": "uint256",
          "name": "interactionId",
          "type": "uint256"
        }
      ],
      "name": "Liked",
      "type": "event"
    },
    {
      "anonymous": false,
      "inputs": [
        {
          "indexed": false,
          "internalType": "uint256",
          "name": "timestamp",
          "type": "uint256"
        }
      ],
      "name": "NextEventScheduled",
      "type": "event"
    },
    {
      "anonymous": false,
      "inputs": [
        {
          "indexed": false,
          "internalType": "address",
          "name": "triggeredBy",
          "type": "address"
        },
        {
          "indexed": false,
          "internalType": "uint256",
          "name": "timestamp",
          "type": "uint256"
        }
      ],
      "name": "RandomEventTriggered",
      "type": "event"
    },
    {
      "anonymous": false,
      "inputs": [
        {
          "indexed": false,
          "internalType": "address",
          "name": "user",
          "type": "address"
        }
      ],
      "name": "UserRegistered",
      "type": "event"
    },
    {
      "inputs": [
        {
          "internalType": "uint64",
          "name": "sequence",
          "type": "uint64"
        },
        {
          "internalType": "address",
          "name": "provider",
          "type": "address"
        },
        {
          "internalType": "bytes32",
          "name": "randomNumber",
          "type": "bytes32"
        }
      ],
      "name": "_entropyCallback",
      "outputs": [],
      "stateMutability": "nonpayable",
      "type": "function"
    },
    {
      "inputs": [
        {
          "internalType": "bytes",
          "name": "",
          "type": "bytes"
        }
      ],
      "name": "checkUpkeep",
      "outputs": [
        {
          "internalType": "bool",
          "name": "upkeepNeeded",
          "type": "bool"
        },
        {
          "internalType": "bytes",
          "name": "",
          "type": "bytes"
        }
      ],
      "stateMutability": "view",
      "type": "function"
    },
    {
      "inputs": [],
      "name": "entropy",
      "outputs": [
        {
          "internalType": "contract IEntropy",
          "name": "",
          "type": "address"
        }
      ],
      "stateMutability": "view",
      "type": "function"
    },
    {
      "inputs": [
        {
          "internalType": "uint256",
          "name": "_interactionId",
          "type": "uint256"
        }
      ],
      "name": "getLikes",
      "outputs": [
        {
          "internalType": "uint256",
          "name": "",
          "type": "uint256"
        }
      ],
      "stateMutability": "view",
      "type": "function"
    },
    {
      "inputs": [],
      "name": "getUser",
      "outputs": [
        {
          "components": [
            {
              "internalType": "string",
              "name": "bio",
              "type": "string"
            },
            {
              "internalType": "uint256",
              "name": "likes",
              "type": "uint256"
            },
            {
              "internalType": "uint256[]",
              "name": "interactions",
              "type": "uint256[]"
            },
            {
              "internalType": "bool",
              "name": "exists",
              "type": "bool"
            }
          ],
          "internalType": "struct DeReal.User",
          "name": "",
          "type": "tuple"
        }
      ],
      "stateMutability": "view",
      "type": "function"
    },
    {
      "inputs": [],
      "name": "interactionCount",
      "outputs": [
        {
          "internalType": "uint256",
          "name": "",
          "type": "uint256"
        }
      ],
      "stateMutability": "view",
      "type": "function"
    },
    {
      "inputs": [
        {
          "internalType": "uint256",
          "name": "",
          "type": "uint256"
        }
      ],
      "name": "interactions",
      "outputs": [
        {
          "internalType": "address",
          "name": "user",
          "type": "address"
        },
        {
          "internalType": "string",
          "name": "content",
          "type": "string"
        },
        {
          "internalType": "uint256",
          "name": "timestamp",
          "type": "uint256"
        },
        {
          "internalType": "uint256",
          "name": "likes",
          "type": "uint256"
        }
      ],
      "stateMutability": "view",
      "type": "function"
    },
    {
      "inputs": [
        {
          "internalType": "uint256",
          "name": "_interactionId",
          "type": "uint256"
        }
      ],
      "name": "likeInteraction",
      "outputs": [],
      "stateMutability": "nonpayable",
      "type": "function"
    },
    {
      "inputs": [],
      "name": "nextEventTimestamp",
      "outputs": [
        {
          "internalType": "uint256",
          "name": "",
          "type": "uint256"
        }
      ],
      "stateMutability": "view",
      "type": "function"
    },
    {
      "inputs": [],
      "name": "owner",
      "outputs": [
        {
          "internalType": "address",
          "name": "",
          "type": "address"
        }
      ],
      "stateMutability": "view",
      "type": "function"
    },
    {
      "inputs": [
        {
          "internalType": "bytes",
          "name": "",
          "type": "bytes"
        }
      ],
      "name": "performUpkeep",
      "outputs": [],
      "stateMutability": "nonpayable",
      "type": "function"
    },
    {
      "inputs": [
        {
          "internalType": "string",
          "name": "_ipfsHash",
          "type": "string"
        }
      ],
      "name": "postInteraction",
      "outputs": [],
      "stateMutability": "nonpayable",
      "type": "function"
    },
    {
      "inputs": [],
      "name": "provider",
      "outputs": [
        {
          "internalType": "address",
          "name": "",
          "type": "address"
        }
      ],
      "stateMutability": "view",
      "type": "function"
    },
    {
      "inputs": [
        {
          "internalType": "string",
          "name": "_bio",
          "type": "string"
        },
        {
          "internalType": "address",
          "name": "_user",
          "type": "address"
        }
      ],
      "name": "registerUser",
      "outputs": [],
      "stateMutability": "nonpayable",
      "type": "function"
    },
    {
      "inputs": [],
      "name": "timeUntilNextEvent",
      "outputs": [
        {
          "internalType": "uint256",
          "name": "",
          "type": "uint256"
        }
      ],
      "stateMutability": "view",
      "type": "function"
    },
    {
      "inputs": [],
      "name": "triggerCameras",
      "outputs": [],
      "stateMutability": "nonpayable",
      "type": "function"
    },
    {
      "inputs": [
        {
          "internalType": "string",
          "name": "_bio",
          "type": "string"
        }
      ],
      "name": "updateBio",
      "outputs": [],
      "stateMutability": "nonpayable",
      "type": "function"
    },
    {
      "inputs": [
        {
          "internalType": "address",
          "name": "",
          "type": "address"
        }
      ],
      "name": "users",
      "outputs": [
        {
          "internalType": "string",
          "name": "bio",
          "type": "string"
        },
        {
          "internalType": "uint256",
          "name": "likes",
          "type": "uint256"
        },
        {
          "internalType": "bool",
          "name": "exists",
          "type": "bool"
        }
      ],
      "stateMutability": "view",
      "type": "function"
    },
    {
      "inputs": [
        {
          "internalType": "address",
          "name": "_address",
          "type": "address"
        }
      ],
      "name": "viewBio",
      "outputs": [
        {
          "internalType": "string",
          "name": "",
          "type": "string"
        }
      ],
      "stateMutability": "view",
      "type": "function"
    }
  ],
  "bytecode": "0x60806040526040516200296a3803806200296a833981810160405281019062000029919062000315565b336000806101000a81548173ffffffffffffffffffffffffffffffffffffffff021916908373ffffffffffffffffffffffffffffffffffffffff16021790555081600160006101000a81548173ffffffffffffffffffffffffffffffffffffffff021916908373ffffffffffffffffffffffffffffffffffffffff16021790555080600260006101000a81548173ffffffffffffffffffffffffffffffffffffffff021916908373ffffffffffffffffffffffffffffffffffffffff160217905550620000fb6200010360201b60201c565b5050620004c8565b6000600160009054906101000a900473ffffffffffffffffffffffffffffffffffffffff1673ffffffffffffffffffffffffffffffffffffffff1663b88c9148600260009054906101000a900473ffffffffffffffffffffffffffffffffffffffff166040518263ffffffff1660e01b81526004016200018491906200036d565b602060405180830381865afa158015620001a2573d6000803e3d6000fd5b505050506040513d601f19601f82011682018060405250810190620001c89190620003d7565b6fffffffffffffffffffffffffffffffff169050600160009054906101000a900473ffffffffffffffffffffffffffffffffffffffff1673ffffffffffffffffffffffffffffffffffffffff166319cb825f82600260009054906101000a900473ffffffffffffffffffffffffffffffffffffffff166000801b6040518463ffffffff1660e01b81526004016200026192919062000424565b60206040518083038185885af115801562000280573d6000803e3d6000fd5b50505050506040513d601f19601f82011682018060405250810190620002a7919062000496565b5050565b600080fd5b600073ffffffffffffffffffffffffffffffffffffffff82169050919050565b6000620002dd82620002b0565b9050919050565b620002ef81620002d0565b8114620002fb57600080fd5b50565b6000815190506200030f81620002e4565b92915050565b600080604083850312156200032f576200032e620002ab565b5b60006200033f85828601620002fe565b92505060206200035285828601620002fe565b9150509250929050565b6200036781620002d0565b82525050565b60006020820190506200038460008301846200035c565b92915050565b60006fffffffffffffffffffffffffffffffff82169050919050565b620003b1816200038a565b8114620003bd57600080fd5b50565b600081519050620003d181620003a6565b92915050565b600060208284031215620003f057620003ef620002ab565b5b60006200040084828501620003c0565b91505092915050565b6000819050919050565b6200041e8162000409565b82525050565b60006040820190506200043b60008301856200035c565b6200044a602083018462000413565b9392505050565b600067ffffffffffffffff82169050919050565b620004708162000451565b81146200047c57600080fd5b50565b600081519050620004908162000465565b92915050565b600060208284031215620004af57620004ae620002ab565b5b6000620004bf848285016200047f565b91505092915050565b61249280620004d86000396000f3fe608060405234801561001057600080fd5b50600436106101215760003560e01c806376487b38116100ad578063a209081e11610071578063a209081e146102d2578063a87430ba14610302578063a890610b14610334578063c3066e2a14610352578063f22f6fb61461037057610121565b806376487b3814610252578063832880e71461026e5780638da5cb5b1461028c578063938d0b1e146102aa5780639534d199146102b457610121565b80634585e33b116100f45780634585e33b146101af57806347ce07cc146101cb57806352a5f1f8146101e95780636e04ff0d14610205578063728f9b3d1461023657610121565b8063085d4883146101265780630ba460ff146101445780630e54b872146101775780631e88b38814610193575b600080fd5b61012e6103a0565b60405161013b9190611425565b60405180910390f35b61015e6004803603810190610159919061148a565b6103c6565b60405161016e9493929190611556565b60405180910390f35b610191600480360381019061018c9190611703565b61049e565b005b6101ad60048036038101906101a8919061175f565b610676565b005b6101c960048036038101906101c49190611808565b610887565b005b6101d36108d6565b6040516101e091906118b4565b60405180910390f35b61020360048036038101906101fe9190611945565b6108fc565b005b61021f600480360381019061021a9190611808565b6109f6565b60405161022d929190611a08565b60405180910390f35b610250600480360381019061024b919061148a565b610a09565b005b61026c6004803603810190610267919061175f565b610b87565b005b610276610c69565b6040516102839190611bb9565b60405180910390f35b610294610e5e565b6040516102a19190611425565b60405180910390f35b6102b2610e82565b005b6102bc610ebd565b6040516102c99190611bdb565b60405180910390f35b6102ec60048036038101906102e7919061148a565b610ee5565b6040516102f99190611bdb565b60405180910390f35b61031c60048036038101906103179190611bf6565b610f55565b60405161032b93929190611c23565b60405180910390f35b61033c611014565b6040516103499190611bdb565b60405180910390f35b61035a61101a565b6040516103679190611bdb565b60405180910390f35b61038a60048036038101906103859190611bf6565b611020565b6040516103979190611c61565b60405180910390f35b600260009054906101000a900473ffffffffffffffffffffffffffffffffffffffff1681565b60046020528060005260406000206000915090508060000160009054906101000a900473ffffffffffffffffffffffffffffffffffffffff169080600101805461040f90611cb2565b80601f016020809104026020016040519081016040528092919081815260200182805461043b90611cb2565b80156104885780601f1061045d57610100808354040283529160200191610488565b820191906000526020600020905b81548152906001019060200180831161046b57829003601f168201915b5050505050908060020154908060030154905084565b600360008273ffffffffffffffffffffffffffffffffffffffff1673ffffffffffffffffffffffffffffffffffffffff16815260200190815260200160002060030160009054906101000a900460ff161561052e576040517f08c379a000000000000000000000000000000000000000000000000000000000815260040161052590611d2f565b60405180910390fd5b604051806080016040528083815260200160008152602001600067ffffffffffffffff811115610561576105606115ac565b5b60405190808252806020026020018201604052801561058f5781602001602082028036833780820191505090505b50815260200160011515815250600360008373ffffffffffffffffffffffffffffffffffffffff1673ffffffffffffffffffffffffffffffffffffffff16815260200190815260200160002060008201518160000190816105f09190611ef1565b50602082015181600101556040820151816002019080519060200190610617929190611350565b5060608201518160030160006101000a81548160ff0219169083151502179055509050507f54db7a5cb4735e1aac1f53db512d3390390bb6637bd30ad4bf9fc98667d9b9b98160405161066a9190611425565b60405180910390a15050565b600360003373ffffffffffffffffffffffffffffffffffffffff1673ffffffffffffffffffffffffffffffffffffffff16815260200190815260200160002060030160009054906101000a900460ff16610705576040517f08c379a00000000000000000000000000000000000000000000000000000000081526004016106fc9061200f565b60405180910390fd5b600560008154809291906107189061205e565b919050555060405180608001604052803373ffffffffffffffffffffffffffffffffffffffff168152602001828152602001428152602001600081525060046000600554815260200190815260200160002060008201518160000160006101000a81548173ffffffffffffffffffffffffffffffffffffffff021916908373ffffffffffffffffffffffffffffffffffffffff16021790555060208201518160010190816107c69190611ef1565b506040820151816002015560608201518160030155905050600360003373ffffffffffffffffffffffffffffffffffffffff1673ffffffffffffffffffffffffffffffffffffffff16815260200190815260200160002060020160055490806001815401808255809150506001900390600052602060002001600090919091909150557f7ff842779923f2243e84bae82a18191e112275e431d8de2018a34429a007d8aa3360055460405161087c9291906120a6565b60405180910390a150565b60065442106108d2577fd73153aa6b7a927fd60ecb4dfb06eb0446518b2cde9f2e3810c1d4aadad4fb1933426040516108c19291906120a6565b60405180910390a16108d16110f4565b5b5050565b600160009054906101000a900473ffffffffffffffffffffffffffffffffffffffff1681565b6000610906611292565b9050600073ffffffffffffffffffffffffffffffffffffffff168173ffffffffffffffffffffffffffffffffffffffff1603610977576040517f08c379a000000000000000000000000000000000000000000000000000000000815260040161096e9061211b565b60405180910390fd5b8073ffffffffffffffffffffffffffffffffffffffff163373ffffffffffffffffffffffffffffffffffffffff16146109e5576040517f08c379a00000000000000000000000000000000000000000000000000000000081526004016109dc906121ad565b60405180910390fd5b6109f08484846112bc565b50505050565b6000606060065442101591509250929050565b600360003373ffffffffffffffffffffffffffffffffffffffff1673ffffffffffffffffffffffffffffffffffffffff16815260200190815260200160002060030160009054906101000a900460ff16610a98576040517f08c379a0000000000000000000000000000000000000000000000000000000008152600401610a8f9061200f565b60405180910390fd5b600081118015610aaa57506005548111155b610ae9576040517f08c379a0000000000000000000000000000000000000000000000000000000008152600401610ae090612219565b60405180910390fd5b600460008281526020019081526020016000206003016000815480929190610b109061205e565b91905055507f3e0a236119aa7dbac5cfd31309977ad6f3c7f39721b4a28205e1386fef72499a6004600083815260200190815260200160002060000160009054906101000a900473ffffffffffffffffffffffffffffffffffffffff1682604051610b7c9291906120a6565b60405180910390a150565b600360003373ffffffffffffffffffffffffffffffffffffffff1673ffffffffffffffffffffffffffffffffffffffff16815260200190815260200160002060030160009054906101000a900460ff16610c16576040517f08c379a0000000000000000000000000000000000000000000000000000000008152600401610c0d9061200f565b60405180910390fd5b80600360003373ffffffffffffffffffffffffffffffffffffffff1673ffffffffffffffffffffffffffffffffffffffff1681526020019081526020016000206000019081610c659190611ef1565b5050565b610c7161139d565b600360003373ffffffffffffffffffffffffffffffffffffffff1673ffffffffffffffffffffffffffffffffffffffff16815260200190815260200160002060030160009054906101000a900460ff16610d00576040517f08c379a0000000000000000000000000000000000000000000000000000000008152600401610cf790612285565b60405180910390fd5b600360003373ffffffffffffffffffffffffffffffffffffffff1673ffffffffffffffffffffffffffffffffffffffff168152602001908152602001600020604051806080016040529081600082018054610d5a90611cb2565b80601f0160208091040260200160405190810160405280929190818152602001828054610d8690611cb2565b8015610dd35780601f10610da857610100808354040283529160200191610dd3565b820191906000526020600020905b815481529060010190602001808311610db657829003601f168201915b505050505081526020016001820154815260200160028201805480602002602001604051908101604052809291908181526020018280548015610e3557602002820191906000526020600020905b815481526020019060010190808311610e21575b505050505081526020016003820160009054906101000a900460ff161515151581525050905090565b60008054906101000a900473ffffffffffffffffffffffffffffffffffffffff1681565b7fae77cf99e72f84a1ab50aa4646254ce291055b92e39a60657e4d496c9301c32d3342604051610eb39291906120a6565b60405180910390a1565b60006006544210610ed15760009050610ee2565b42600654610edf91906122a5565b90505b90565b60008082118015610ef857506005548211155b610f37576040517f08c379a0000000000000000000000000000000000000000000000000000000008152600401610f2e90612219565b60405180910390fd5b60046000838152602001908152602001600020600301549050919050565b6003602052806000526040600020600091509050806000018054610f7890611cb2565b80601f0160208091040260200160405190810160405280929190818152602001828054610fa490611cb2565b8015610ff15780601f10610fc657610100808354040283529160200191610ff1565b820191906000526020600020905b815481529060010190602001808311610fd457829003601f168201915b5050505050908060010154908060030160009054906101000a900460ff16905083565b60055481565b60065481565b6060600360008373ffffffffffffffffffffffffffffffffffffffff1673ffffffffffffffffffffffffffffffffffffffff168152602001908152602001600020600001805461106f90611cb2565b80601f016020809104026020016040519081016040528092919081815260200182805461109b90611cb2565b80156110e85780601f106110bd576101008083540402835291602001916110e8565b820191906000526020600020905b8154815290600101906020018083116110cb57829003601f168201915b50505050509050919050565b6000600160009054906101000a900473ffffffffffffffffffffffffffffffffffffffff1673ffffffffffffffffffffffffffffffffffffffff1663b88c9148600260009054906101000a900473ffffffffffffffffffffffffffffffffffffffff166040518263ffffffff1660e01b81526004016111739190611425565b602060405180830381865afa158015611190573d6000803e3d6000fd5b505050506040513d601f19601f820116820180604052508101906111b49190612321565b6fffffffffffffffffffffffffffffffff169050600160009054906101000a900473ffffffffffffffffffffffffffffffffffffffff1673ffffffffffffffffffffffffffffffffffffffff166319cb825f82600260009054906101000a900473ffffffffffffffffffffffffffffffffffffffff166000801b6040518463ffffffff1660e01b815260040161124b92919061235d565b60206040518083038185885af1158015611269573d6000803e3d6000fd5b50505050506040513d601f19601f8201168201806040525081019061128e919061239b565b5050565b6000600160009054906101000a900473ffffffffffffffffffffffffffffffffffffffff16905090565b600060789050600060b490506000600183836112d891906122a5565b6112e291906123c8565b8460001c6112f0919061242b565b836112fb91906123c8565b9050804261130991906123c8565b6006819055507fdfb9c4ac29d58733d65dcfff028a467affd8e0e5e69c829e1acde92ade8975d26006546040516113409190611bdb565b60405180910390a1505050505050565b82805482825590600052602060002090810192821561138c579160200282015b8281111561138b578251825591602001919060010190611370565b5b50905061139991906113c7565b5090565b60405180608001604052806060815260200160008152602001606081526020016000151581525090565b5b808211156113e05760008160009055506001016113c8565b5090565b600073ffffffffffffffffffffffffffffffffffffffff82169050919050565b600061140f826113e4565b9050919050565b61141f81611404565b82525050565b600060208201905061143a6000830184611416565b92915050565b6000604051905090565b600080fd5b600080fd5b6000819050919050565b61146781611454565b811461147257600080fd5b50565b6000813590506114848161145e565b92915050565b6000602082840312156114a05761149f61144a565b5b60006114ae84828501611475565b91505092915050565b600081519050919050565b600082825260208201905092915050565b60005b838110156114f15780820151818401526020810190506114d6565b60008484015250505050565b6000601f19601f8301169050919050565b6000611519826114b7565b61152381856114c2565b93506115338185602086016114d3565b61153c816114fd565b840191505092915050565b61155081611454565b82525050565b600060808201905061156b6000830187611416565b818103602083015261157d818661150e565b905061158c6040830185611547565b6115996060830184611547565b95945050505050565b600080fd5b600080fd5b7f4e487b7100000000000000000000000000000000000000000000000000000000600052604160045260246000fd5b6115e4826114fd565b810181811067ffffffffffffffff82111715611603576116026115ac565b5b80604052505050565b6000611616611440565b905061162282826115db565b919050565b600067ffffffffffffffff821115611642576116416115ac565b5b61164b826114fd565b9050602081019050919050565b82818337600083830152505050565b600061167a61167584611627565b61160c565b905082815260208101848484011115611696576116956115a7565b5b6116a1848285611658565b509392505050565b600082601f8301126116be576116bd6115a2565b5b81356116ce848260208601611667565b91505092915050565b6116e081611404565b81146116eb57600080fd5b50565b6000813590506116fd816116d7565b92915050565b6000806040838503121561171a5761171961144a565b5b600083013567ffffffffffffffff8111156117385761173761144f565b5b611744858286016116a9565b9250506020611755858286016116ee565b9150509250929050565b6000602082840312156117755761177461144a565b5b600082013567ffffffffffffffff8111156117935761179261144f565b5b61179f848285016116a9565b91505092915050565b600080fd5b600080fd5b60008083601f8401126117c8576117c76115a2565b5b8235905067ffffffffffffffff8111156117e5576117e46117a8565b5b602083019150836001820283011115611801576118006117ad565b5b9250929050565b6000806020838503121561181f5761181e61144a565b5b600083013567ffffffffffffffff81111561183d5761183c61144f565b5b611849858286016117b2565b92509250509250929050565b6000819050919050565b600061187a611875611870846113e4565b611855565b6113e4565b9050919050565b600061188c8261185f565b9050919050565b600061189e82611881565b9050919050565b6118ae81611893565b82525050565b60006020820190506118c960008301846118a5565b92915050565b600067ffffffffffffffff82169050919050565b6118ec816118cf565b81146118f757600080fd5b50565b600081359050611909816118e3565b92915050565b6000819050919050565b6119228161190f565b811461192d57600080fd5b50565b60008135905061193f81611919565b92915050565b60008060006060848603121561195e5761195d61144a565b5b600061196c868287016118fa565b935050602061197d868287016116ee565b925050604061198e86828701611930565b9150509250925092565b60008115159050919050565b6119ad81611998565b82525050565b600081519050919050565b600082825260208201905092915050565b60006119da826119b3565b6119e481856119be565b93506119f48185602086016114d3565b6119fd816114fd565b840191505092915050565b6000604082019050611a1d60008301856119a4565b8181036020830152611a2f81846119cf565b90509392505050565b600082825260208201905092915050565b6000611a54826114b7565b611a5e8185611a38565b9350611a6e8185602086016114d3565b611a77816114fd565b840191505092915050565b611a8b81611454565b82525050565b600081519050919050565b600082825260208201905092915050565b6000819050602082019050919050565b6000611ac98383611a82565b60208301905092915050565b6000602082019050919050565b6000611aed82611a91565b611af78185611a9c565b9350611b0283611aad565b8060005b83811015611b33578151611b1a8882611abd565b9750611b2583611ad5565b925050600181019050611b06565b5085935050505092915050565b611b4981611998565b82525050565b60006080830160008301518482036000860152611b6c8282611a49565b9150506020830151611b816020860182611a82565b5060408301518482036040860152611b998282611ae2565b9150506060830151611bae6060860182611b40565b508091505092915050565b60006020820190508181036000830152611bd38184611b4f565b905092915050565b6000602082019050611bf06000830184611547565b92915050565b600060208284031215611c0c57611c0b61144a565b5b6000611c1a848285016116ee565b91505092915050565b60006060820190508181036000830152611c3d818661150e565b9050611c4c6020830185611547565b611c5960408301846119a4565b949350505050565b60006020820190508181036000830152611c7b818461150e565b905092915050565b7f4e487b7100000000000000000000000000000000000000000000000000000000600052602260045260246000fd5b60006002820490506001821680611cca57607f821691505b602082108103611cdd57611cdc611c83565b5b50919050565b7f5573657220616c72656164792065786973747300000000000000000000000000600082015250565b6000611d196013836114c2565b9150611d2482611ce3565b602082019050919050565b60006020820190508181036000830152611d4881611d0c565b9050919050565b60008190508160005260206000209050919050565b60006020601f8301049050919050565b600082821b905092915050565b600060088302611db17fffffffffffffffffffffffffffffffffffffffffffffffffffffffffffffffff82611d74565b611dbb8683611d74565b95508019841693508086168417925050509392505050565b6000611dee611de9611de484611454565b611855565b611454565b9050919050565b6000819050919050565b611e0883611dd3565b611e1c611e1482611df5565b848454611d81565b825550505050565b600090565b611e31611e24565b611e3c818484611dff565b505050565b5b81811015611e6057611e55600082611e29565b600181019050611e42565b5050565b601f821115611ea557611e7681611d4f565b611e7f84611d64565b81016020851015611e8e578190505b611ea2611e9a85611d64565b830182611e41565b50505b505050565b600082821c905092915050565b6000611ec860001984600802611eaa565b1980831691505092915050565b6000611ee18383611eb7565b9150826002028217905092915050565b611efa826114b7565b67ffffffffffffffff811115611f1357611f126115ac565b5b611f1d8254611cb2565b611f28828285611e64565b600060209050601f831160018114611f5b5760008415611f49578287015190505b611f538582611ed5565b865550611fbb565b601f198416611f6986611d4f565b60005b82811015611f9157848901518255600182019150602085019450602081019050611f6c565b86831015611fae5784890151611faa601f891682611eb7565b8355505b6001600288020188555050505b505050505050565b7f55736572206e6f74207265676973746572656400000000000000000000000000600082015250565b6000611ff96013836114c2565b915061200482611fc3565b602082019050919050565b6000602082019050818103600083015261202881611fec565b9050919050565b7f4e487b7100000000000000000000000000000000000000000000000000000000600052601160045260246000fd5b600061206982611454565b91507fffffffffffffffffffffffffffffffffffffffffffffffffffffffffffffffff820361209b5761209a61202f565b5b600182019050919050565b60006040820190506120bb6000830185611416565b6120c86020830184611547565b9392505050565b7f456e74726f70792061646472657373206e6f7420736574000000000000000000600082015250565b60006121056017836114c2565b9150612110826120cf565b602082019050919050565b60006020820190508181036000830152612134816120f8565b9050919050565b7f4f6e6c7920456e74726f70792063616e2063616c6c20746869732066756e637460008201527f696f6e0000000000000000000000000000000000000000000000000000000000602082015250565b60006121976023836114c2565b91506121a28261213b565b604082019050919050565b600060208201905081810360008301526121c68161218a565b9050919050565b7f496e76616c696420696e746572616374696f6e20494400000000000000000000600082015250565b60006122036016836114c2565b915061220e826121cd565b602082019050919050565b60006020820190508181036000830152612232816121f6565b9050919050565b7f5573657220646f6573206e6f7420657869737400000000000000000000000000600082015250565b600061226f6013836114c2565b915061227a82612239565b602082019050919050565b6000602082019050818103600083015261229e81612262565b9050919050565b60006122b082611454565b91506122bb83611454565b92508282039050818111156122d3576122d261202f565b5b92915050565b60006fffffffffffffffffffffffffffffffff82169050919050565b6122fe816122d9565b811461230957600080fd5b50565b60008151905061231b816122f5565b92915050565b6000602082840312156123375761233661144a565b5b60006123458482850161230c565b91505092915050565b6123578161190f565b82525050565b60006040820190506123726000830185611416565b61237f602083018461234e565b9392505050565b600081519050612395816118e3565b92915050565b6000602082840312156123b1576123b061144a565b5b60006123bf84828501612386565b91505092915050565b60006123d382611454565b91506123de83611454565b92508282019050808211156123f6576123f561202f565b5b92915050565b7f4e487b7100000000000000000000000000000000000000000000000000000000600052601260045260246000fd5b600061243682611454565b915061244183611454565b925082612451576124506123fc565b5b82820690509291505056fea264697066735822122026611e31bb9feaf67e893178121baf58fe1693d5d97d6a5a11c39d2461384a1764736f6c63430008110033",
  "linkReferences": {},
  "deployedLinkReferences": {}
}