{
  "contracts/DeReal.sol": {
    "DeReal": {
      "abi": [
        {
          "inputs": [
            {
              "internalType": "address",
              "name": "_entropyAddress",
              "type": "address"
            },
            {
              "internalType": "address",
              "name": "_provider",
              "type": "address"
            }
          ],
          "stateMutability": "payable",
          "type": "constructor"
        },
        {
          "anonymous": false,
          "inputs": [
            {
              "indexed": false,
              "internalType": "address",
              "name": "triggeredBy",
              "type": "address"
            },
            {
              "indexed": false,
              "internalType": "uint256",
              "name": "timestamp",
              "type": "uint256"
            }
          ],
          "name": "CamerasTriggered",
          "type": "event"
        },
        {
          "anonymous": false,
          "inputs": [
            {
              "indexed": false,
              "internalType": "address",
              "name": "user",
              "type": "address"
            },
            {
              "indexed": false,
              "internalType": "uint256",
              "name": "interactionId",
              "type": "uint256"
            }
          ],
          "name": "InteractionPosted",
          "type": "event"
        },
        {
          "anonymous": false,
          "inputs": [
            {
              "indexed": false,
              "internalType": "address",
              "name": "user",
              "type": "address"
            },
            {
              "indexed": false,
              "internalType": "uint256",
              "name": "interactionId",
              "type": "uint256"
            }
          ],
          "name": "Liked",
          "type": "event"
        },
        {
          "anonymous": false,
          "inputs": [
            {
              "indexed": false,
              "internalType": "uint256",
              "name": "timestamp",
              "type": "uint256"
            }
          ],
          "name": "NextEventScheduled",
          "type": "event"
        },
        {
          "anonymous": false,
          "inputs": [
            {
              "indexed": false,
              "internalType": "address",
              "name": "triggeredBy",
              "type": "address"
            },
            {
              "indexed": false,
              "internalType": "uint256",
              "name": "timestamp",
              "type": "uint256"
            }
          ],
          "name": "RandomEventTriggered",
          "type": "event"
        },
        {
          "anonymous": false,
          "inputs": [
            {
              "indexed": false,
              "internalType": "address",
              "name": "user",
              "type": "address"
            }
          ],
          "name": "UserRegistered",
          "type": "event"
        },
        {
          "inputs": [
            {
              "internalType": "uint64",
              "name": "sequence",
              "type": "uint64"
            },
            {
              "internalType": "address",
              "name": "provider",
              "type": "address"
            },
            {
              "internalType": "bytes32",
              "name": "randomNumber",
              "type": "bytes32"
            }
          ],
          "name": "_entropyCallback",
          "outputs": [],
          "stateMutability": "nonpayable",
          "type": "function"
        },
        {
          "inputs": [
            {
              "internalType": "bytes",
              "name": "",
              "type": "bytes"
            }
          ],
          "name": "checkUpkeep",
          "outputs": [
            {
              "internalType": "bool",
              "name": "upkeepNeeded",
              "type": "bool"
            },
            {
              "internalType": "bytes",
              "name": "",
              "type": "bytes"
            }
          ],
          "stateMutability": "view",
          "type": "function"
        },
        {
          "inputs": [],
          "name": "entropy",
          "outputs": [
            {
              "internalType": "contract IEntropy",
              "name": "",
              "type": "address"
            }
          ],
          "stateMutability": "view",
          "type": "function"
        },
        {
          "inputs": [
            {
              "internalType": "uint256",
              "name": "_interactionId",
              "type": "uint256"
            }
          ],
          "name": "getLikes",
          "outputs": [
            {
              "internalType": "uint256",
              "name": "",
              "type": "uint256"
            }
          ],
          "stateMutability": "view",
          "type": "function"
        },
        {
          "inputs": [],
          "name": "getUser",
          "outputs": [
            {
              "components": [
                {
                  "internalType": "string",
                  "name": "bio",
                  "type": "string"
                },
                {
                  "internalType": "uint256",
                  "name": "likes",
                  "type": "uint256"
                },
                {
                  "internalType": "uint256[]",
                  "name": "interactions",
                  "type": "uint256[]"
                },
                {
                  "internalType": "bool",
                  "name": "exists",
                  "type": "bool"
                }
              ],
              "internalType": "struct DeReal.User",
              "name": "",
              "type": "tuple"
            }
          ],
          "stateMutability": "view",
          "type": "function"
        },
        {
          "inputs": [],
          "name": "interactionCount",
          "outputs": [
            {
              "internalType": "uint256",
              "name": "",
              "type": "uint256"
            }
          ],
          "stateMutability": "view",
          "type": "function"
        },
        {
          "inputs": [
            {
              "internalType": "uint256",
              "name": "",
              "type": "uint256"
            }
          ],
          "name": "interactions",
          "outputs": [
            {
              "internalType": "address",
              "name": "user",
              "type": "address"
            },
            {
              "internalType": "string",
              "name": "content",
              "type": "string"
            },
            {
              "internalType": "uint256",
              "name": "timestamp",
              "type": "uint256"
            },
            {
              "internalType": "uint256",
              "name": "likes",
              "type": "uint256"
            }
          ],
          "stateMutability": "view",
          "type": "function"
        },
        {
          "inputs": [
            {
              "internalType": "uint256",
              "name": "_interactionId",
              "type": "uint256"
            }
          ],
          "name": "likeInteraction",
          "outputs": [],
          "stateMutability": "nonpayable",
          "type": "function"
        },
        {
          "inputs": [],
          "name": "nextEventTimestamp",
          "outputs": [
            {
              "internalType": "uint256",
              "name": "",
              "type": "uint256"
            }
          ],
          "stateMutability": "view",
          "type": "function"
        },
        {
          "inputs": [],
          "name": "owner",
          "outputs": [
            {
              "internalType": "address",
              "name": "",
              "type": "address"
            }
          ],
          "stateMutability": "view",
          "type": "function"
        },
        {
          "inputs": [
            {
              "internalType": "bytes",
              "name": "",
              "type": "bytes"
            }
          ],
          "name": "performUpkeep",
          "outputs": [],
          "stateMutability": "nonpayable",
          "type": "function"
        },
        {
          "inputs": [
            {
              "internalType": "string",
              "name": "_ipfsHash",
              "type": "string"
            }
          ],
          "name": "postInteraction",
          "outputs": [],
          "stateMutability": "nonpayable",
          "type": "function"
        },
        {
          "inputs": [],
          "name": "provider",
          "outputs": [
            {
              "internalType": "address",
              "name": "",
              "type": "address"
            }
          ],
          "stateMutability": "view",
          "type": "function"
        },
        {
          "inputs": [
            {
              "internalType": "string",
              "name": "_bio",
              "type": "string"
            },
            {
              "internalType": "address",
              "name": "_user",
              "type": "address"
            }
          ],
          "name": "registerUser",
          "outputs": [],
          "stateMutability": "nonpayable",
          "type": "function"
        },
        {
          "inputs": [],
          "name": "timeUntilNextEvent",
          "outputs": [
            {
              "internalType": "uint256",
              "name": "",
              "type": "uint256"
            }
          ],
          "stateMutability": "view",
          "type": "function"
        },
        {
          "inputs": [],
          "name": "triggerCameras",
          "outputs": [],
          "stateMutability": "nonpayable",
          "type": "function"
        },
        {
          "inputs": [
            {
              "internalType": "string",
              "name": "_bio",
              "type": "string"
            }
          ],
          "name": "updateBio",
          "outputs": [],
          "stateMutability": "nonpayable",
          "type": "function"
        },
        {
          "inputs": [
            {
              "internalType": "address",
              "name": "",
              "type": "address"
            }
          ],
          "name": "users",
          "outputs": [
            {
              "internalType": "string",
              "name": "bio",
              "type": "string"
            },
            {
              "internalType": "uint256",
              "name": "likes",
              "type": "uint256"
            },
            {
              "internalType": "bool",
              "name": "exists",
              "type": "bool"
            }
          ],
          "stateMutability": "view",
          "type": "function"
        },
        {
          "inputs": [
            {
              "internalType": "address",
              "name": "_address",
              "type": "address"
            }
          ],
          "name": "viewBio",
          "outputs": [
            {
              "internalType": "string",
              "name": "",
              "type": "string"
            }
          ],
          "stateMutability": "view",
          "type": "function"
        }
      ],
      "evm": {
        "bytecode": {
          "linkReferences": {},
          "object": "60806040526040516200296a3803806200296a833981810160405281019062000029919062000315565b336000806101000a81548173ffffffffffffffffffffffffffffffffffffffff021916908373ffffffffffffffffffffffffffffffffffffffff16021790555081600160006101000a81548173ffffffffffffffffffffffffffffffffffffffff021916908373ffffffffffffffffffffffffffffffffffffffff16021790555080600260006101000a81548173ffffffffffffffffffffffffffffffffffffffff021916908373ffffffffffffffffffffffffffffffffffffffff160217905550620000fb6200010360201b60201c565b5050620004c8565b6000600160009054906101000a900473ffffffffffffffffffffffffffffffffffffffff1673ffffffffffffffffffffffffffffffffffffffff1663b88c9148600260009054906101000a900473ffffffffffffffffffffffffffffffffffffffff166040518263ffffffff1660e01b81526004016200018491906200036d565b602060405180830381865afa158015620001a2573d6000803e3d6000fd5b505050506040513d601f19601f82011682018060405250810190620001c89190620003d7565b6fffffffffffffffffffffffffffffffff169050600160009054906101000a900473ffffffffffffffffffffffffffffffffffffffff1673ffffffffffffffffffffffffffffffffffffffff166319cb825f82600260009054906101000a900473ffffffffffffffffffffffffffffffffffffffff166000801b6040518463ffffffff1660e01b81526004016200026192919062000424565b60206040518083038185885af115801562000280573d6000803e3d6000fd5b50505050506040513d601f19601f82011682018060405250810190620002a7919062000496565b5050565b600080fd5b600073ffffffffffffffffffffffffffffffffffffffff82169050919050565b6000620002dd82620002b0565b9050919050565b620002ef81620002d0565b8114620002fb57600080fd5b50565b6000815190506200030f81620002e4565b92915050565b600080604083850312156200032f576200032e620002ab565b5b60006200033f85828601620002fe565b92505060206200035285828601620002fe565b9150509250929050565b6200036781620002d0565b82525050565b60006020820190506200038460008301846200035c565b92915050565b60006fffffffffffffffffffffffffffffffff82169050919050565b620003b1816200038a565b8114620003bd57600080fd5b50565b600081519050620003d181620003a6565b92915050565b600060208284031215620003f057620003ef620002ab565b5b60006200040084828501620003c0565b91505092915050565b6000819050919050565b6200041e8162000409565b82525050565b60006040820190506200043b60008301856200035c565b6200044a602083018462000413565b9392505050565b600067ffffffffffffffff82169050919050565b620004708162000451565b81146200047c57600080fd5b50565b600081519050620004908162000465565b92915050565b600060208284031215620004af57620004ae620002ab565b5b6000620004bf848285016200047f565b91505092915050565b61249280620004d86000396000f3fe608060405234801561001057600080fd5b50600436106101215760003560e01c806376487b38116100ad578063a209081e11610071578063a209081e146102d2578063a87430ba14610302578063a890610b14610334578063c3066e2a14610352578063f22f6fb61461037057610121565b806376487b3814610252578063832880e71461026e5780638da5cb5b1461028c578063938d0b1e146102aa5780639534d199146102b457610121565b80634585e33b116100f45780634585e33b146101af57806347ce07cc146101cb57806352a5f1f8146101e95780636e04ff0d14610205578063728f9b3d1461023657610121565b8063085d4883146101265780630ba460ff146101445780630e54b872146101775780631e88b38814610193575b600080fd5b61012e6103a0565b60405161013b9190611425565b60405180910390f35b61015e6004803603810190610159919061148a565b6103c6565b60405161016e9493929190611556565b60405180910390f35b610191600480360381019061018c9190611703565b61049e565b005b6101ad60048036038101906101a8919061175f565b610676565b005b6101c960048036038101906101c49190611808565b610887565b005b6101d36108d6565b6040516101e091906118b4565b60405180910390f35b61020360048036038101906101fe9190611945565b6108fc565b005b61021f600480360381019061021a9190611808565b6109f6565b60405161022d929190611a08565b60405180910390f35b610250600480360381019061024b919061148a565b610a09565b005b61026c6004803603810190610267919061175f565b610b87565b005b610276610c69565b6040516102839190611bb9565b60405180910390f35b610294610e5e565b6040516102a19190611425565b60405180910390f35b6102b2610e82565b005b6102bc610ebd565b6040516102c99190611bdb565b60405180910390f35b6102ec60048036038101906102e7919061148a565b610ee5565b6040516102f99190611bdb565b60405180910390f35b61031c60048036038101906103179190611bf6565b610f55565b60405161032b93929190611c23565b60405180910390f35b61033c611014565b6040516103499190611bdb565b60405180910390f35b61035a61101a565b6040516103679190611bdb565b60405180910390f35b61038a60048036038101906103859190611bf6565b611020565b6040516103979190611c61565b60405180910390f35b600260009054906101000a900473ffffffffffffffffffffffffffffffffffffffff1681565b60046020528060005260406000206000915090508060000160009054906101000a900473ffffffffffffffffffffffffffffffffffffffff169080600101805461040f90611cb2565b80601f016020809104026020016040519081016040528092919081815260200182805461043b90611cb2565b80156104885780601f1061045d57610100808354040283529160200191610488565b820191906000526020600020905b81548152906001019060200180831161046b57829003601f168201915b5050505050908060020154908060030154905084565b600360008273ffffffffffffffffffffffffffffffffffffffff1673ffffffffffffffffffffffffffffffffffffffff16815260200190815260200160002060030160009054906101000a900460ff161561052e576040517f08c379a000000000000000000000000000000000000000000000000000000000815260040161052590611d2f565b60405180910390fd5b604051806080016040528083815260200160008152602001600067ffffffffffffffff811115610561576105606115ac565b5b60405190808252806020026020018201604052801561058f5781602001602082028036833780820191505090505b50815260200160011515815250600360008373ffffffffffffffffffffffffffffffffffffffff1673ffffffffffffffffffffffffffffffffffffffff16815260200190815260200160002060008201518160000190816105f09190611ef1565b50602082015181600101556040820151816002019080519060200190610617929190611350565b5060608201518160030160006101000a81548160ff0219169083151502179055509050507f54db7a5cb4735e1aac1f53db512d3390390bb6637bd30ad4bf9fc98667d9b9b98160405161066a9190611425565b60405180910390a15050565b600360003373ffffffffffffffffffffffffffffffffffffffff1673ffffffffffffffffffffffffffffffffffffffff16815260200190815260200160002060030160009054906101000a900460ff16610705576040517f08c379a00000000000000000000000000000000000000000000000000000000081526004016106fc9061200f565b60405180910390fd5b600560008154809291906107189061205e565b919050555060405180608001604052803373ffffffffffffffffffffffffffffffffffffffff168152602001828152602001428152602001600081525060046000600554815260200190815260200160002060008201518160000160006101000a81548173ffffffffffffffffffffffffffffffffffffffff021916908373ffffffffffffffffffffffffffffffffffffffff16021790555060208201518160010190816107c69190611ef1565b506040820151816002015560608201518160030155905050600360003373ffffffffffffffffffffffffffffffffffffffff1673ffffffffffffffffffffffffffffffffffffffff16815260200190815260200160002060020160055490806001815401808255809150506001900390600052602060002001600090919091909150557f7ff842779923f2243e84bae82a18191e112275e431d8de2018a34429a007d8aa3360055460405161087c9291906120a6565b60405180910390a150565b60065442106108d2577fd73153aa6b7a927fd60ecb4dfb06eb0446518b2cde9f2e3810c1d4aadad4fb1933426040516108c19291906120a6565b60405180910390a16108d16110f4565b5b5050565b600160009054906101000a900473ffffffffffffffffffffffffffffffffffffffff1681565b6000610906611292565b9050600073ffffffffffffffffffffffffffffffffffffffff168173ffffffffffffffffffffffffffffffffffffffff1603610977576040517f08c379a000000000000000000000000000000000000000000000000000000000815260040161096e9061211b565b60405180910390fd5b8073ffffffffffffffffffffffffffffffffffffffff163373ffffffffffffffffffffffffffffffffffffffff16146109e5576040517f08c379a00000000000000000000000000000000000000000000000000000000081526004016109dc906121ad565b60405180910390fd5b6109f08484846112bc565b50505050565b6000606060065442101591509250929050565b600360003373ffffffffffffffffffffffffffffffffffffffff1673ffffffffffffffffffffffffffffffffffffffff16815260200190815260200160002060030160009054906101000a900460ff16610a98576040517f08c379a0000000000000000000000000000000000000000000000000000000008152600401610a8f9061200f565b60405180910390fd5b600081118015610aaa57506005548111155b610ae9576040517f08c379a0000000000000000000000000000000000000000000000000000000008152600401610ae090612219565b60405180910390fd5b600460008281526020019081526020016000206003016000815480929190610b109061205e565b91905055507f3e0a236119aa7dbac5cfd31309977ad6f3c7f39721b4a28205e1386fef72499a6004600083815260200190815260200160002060000160009054906101000a900473ffffffffffffffffffffffffffffffffffffffff1682604051610b7c9291906120a6565b60405180910390a150565b600360003373ffffffffffffffffffffffffffffffffffffffff1673ffffffffffffffffffffffffffffffffffffffff16815260200190815260200160002060030160009054906101000a900460ff16610c16576040517f08c379a0000000000000000000000000000000000000000000000000000000008152600401610c0d9061200f565b60405180910390fd5b80600360003373ffffffffffffffffffffffffffffffffffffffff1673ffffffffffffffffffffffffffffffffffffffff1681526020019081526020016000206000019081610c659190611ef1565b5050565b610c7161139d565b600360003373ffffffffffffffffffffffffffffffffffffffff1673ffffffffffffffffffffffffffffffffffffffff16815260200190815260200160002060030160009054906101000a900460ff16610d00576040517f08c379a0000000000000000000000000000000000000000000000000000000008152600401610cf790612285565b60405180910390fd5b600360003373ffffffffffffffffffffffffffffffffffffffff1673ffffffffffffffffffffffffffffffffffffffff168152602001908152602001600020604051806080016040529081600082018054610d5a90611cb2565b80601f0160208091040260200160405190810160405280929190818152602001828054610d8690611cb2565b8015610dd35780601f10610da857610100808354040283529160200191610dd3565b820191906000526020600020905b815481529060010190602001808311610db657829003601f168201915b505050505081526020016001820154815260200160028201805480602002602001604051908101604052809291908181526020018280548015610e3557602002820191906000526020600020905b815481526020019060010190808311610e21575b505050505081526020016003820160009054906101000a900460ff161515151581525050905090565b60008054906101000a900473ffffffffffffffffffffffffffffffffffffffff1681565b7fae77cf99e72f84a1ab50aa4646254ce291055b92e39a60657e4d496c9301c32d3342604051610eb39291906120a6565b60405180910390a1565b60006006544210610ed15760009050610ee2565b42600654610edf91906122a5565b90505b90565b60008082118015610ef857506005548211155b610f37576040517f08c379a0000000000000000000000000000000000000000000000000000000008152600401610f2e90612219565b60405180910390fd5b60046000838152602001908152602001600020600301549050919050565b6003602052806000526040600020600091509050806000018054610f7890611cb2565b80601f0160208091040260200160405190810160405280929190818152602001828054610fa490611cb2565b8015610ff15780601f10610fc657610100808354040283529160200191610ff1565b820191906000526020600020905b815481529060010190602001808311610fd457829003601f168201915b5050505050908060010154908060030160009054906101000a900460ff16905083565b60055481565b60065481565b6060600360008373ffffffffffffffffffffffffffffffffffffffff1673ffffffffffffffffffffffffffffffffffffffff168152602001908152602001600020600001805461106f90611cb2565b80601f016020809104026020016040519081016040528092919081815260200182805461109b90611cb2565b80156110e85780601f106110bd576101008083540402835291602001916110e8565b820191906000526020600020905b8154815290600101906020018083116110cb57829003601f168201915b50505050509050919050565b6000600160009054906101000a900473ffffffffffffffffffffffffffffffffffffffff1673ffffffffffffffffffffffffffffffffffffffff1663b88c9148600260009054906101000a900473ffffffffffffffffffffffffffffffffffffffff166040518263ffffffff1660e01b81526004016111739190611425565b602060405180830381865afa158015611190573d6000803e3d6000fd5b505050506040513d601f19601f820116820180604052508101906111b49190612321565b6fffffffffffffffffffffffffffffffff169050600160009054906101000a900473ffffffffffffffffffffffffffffffffffffffff1673ffffffffffffffffffffffffffffffffffffffff166319cb825f82600260009054906101000a900473ffffffffffffffffffffffffffffffffffffffff166000801b6040518463ffffffff1660e01b815260040161124b92919061235d565b60206040518083038185885af1158015611269573d6000803e3d6000fd5b50505050506040513d601f19601f8201168201806040525081019061128e919061239b565b5050565b6000600160009054906101000a900473ffffffffffffffffffffffffffffffffffffffff16905090565b600060789050600060b490506000600183836112d891906122a5565b6112e291906123c8565b8460001c6112f0919061242b565b836112fb91906123c8565b9050804261130991906123c8565b6006819055507fdfb9c4ac29d58733d65dcfff028a467affd8e0e5e69c829e1acde92ade8975d26006546040516113409190611bdb565b60405180910390a1505050505050565b82805482825590600052602060002090810192821561138c579160200282015b8281111561138b578251825591602001919060010190611370565b5b50905061139991906113c7565b5090565b60405180608001604052806060815260200160008152602001606081526020016000151581525090565b5b808211156113e05760008160009055506001016113c8565b5090565b600073ffffffffffffffffffffffffffffffffffffffff82169050919050565b600061140f826113e4565b9050919050565b61141f81611404565b82525050565b600060208201905061143a6000830184611416565b92915050565b6000604051905090565b600080fd5b600080fd5b6000819050919050565b61146781611454565b811461147257600080fd5b50565b6000813590506114848161145e565b92915050565b6000602082840312156114a05761149f61144a565b5b60006114ae84828501611475565b91505092915050565b600081519050919050565b600082825260208201905092915050565b60005b838110156114f15780820151818401526020810190506114d6565b60008484015250505050565b6000601f19601f8301169050919050565b6000611519826114b7565b61152381856114c2565b93506115338185602086016114d3565b61153c816114fd565b840191505092915050565b61155081611454565b82525050565b600060808201905061156b6000830187611416565b818103602083015261157d818661150e565b905061158c6040830185611547565b6115996060830184611547565b95945050505050565b600080fd5b600080fd5b7f4e487b7100000000000000000000000000000000000000000000000000000000600052604160045260246000fd5b6115e4826114fd565b810181811067ffffffffffffffff82111715611603576116026115ac565b5b80604052505050565b6000611616611440565b905061162282826115db565b919050565b600067ffffffffffffffff821115611642576116416115ac565b5b61164b826114fd565b9050602081019050919050565b82818337600083830152505050565b600061167a61167584611627565b61160c565b905082815260208101848484011115611696576116956115a7565b5b6116a1848285611658565b509392505050565b600082601f8301126116be576116bd6115a2565b5b81356116ce848260208601611667565b91505092915050565b6116e081611404565b81146116eb57600080fd5b50565b6000813590506116fd816116d7565b92915050565b6000806040838503121561171a5761171961144a565b5b600083013567ffffffffffffffff8111156117385761173761144f565b5b611744858286016116a9565b9250506020611755858286016116ee565b9150509250929050565b6000602082840312156117755761177461144a565b5b600082013567ffffffffffffffff8111156117935761179261144f565b5b61179f848285016116a9565b91505092915050565b600080fd5b600080fd5b60008083601f8401126117c8576117c76115a2565b5b8235905067ffffffffffffffff8111156117e5576117e46117a8565b5b602083019150836001820283011115611801576118006117ad565b5b9250929050565b6000806020838503121561181f5761181e61144a565b5b600083013567ffffffffffffffff81111561183d5761183c61144f565b5b611849858286016117b2565b92509250509250929050565b6000819050919050565b600061187a611875611870846113e4565b611855565b6113e4565b9050919050565b600061188c8261185f565b9050919050565b600061189e82611881565b9050919050565b6118ae81611893565b82525050565b60006020820190506118c960008301846118a5565b92915050565b600067ffffffffffffffff82169050919050565b6118ec816118cf565b81146118f757600080fd5b50565b600081359050611909816118e3565b92915050565b6000819050919050565b6119228161190f565b811461192d57600080fd5b50565b60008135905061193f81611919565b92915050565b60008060006060848603121561195e5761195d61144a565b5b600061196c868287016118fa565b935050602061197d868287016116ee565b925050604061198e86828701611930565b9150509250925092565b60008115159050919050565b6119ad81611998565b82525050565b600081519050919050565b600082825260208201905092915050565b60006119da826119b3565b6119e481856119be565b93506119f48185602086016114d3565b6119fd816114fd565b840191505092915050565b6000604082019050611a1d60008301856119a4565b8181036020830152611a2f81846119cf565b90509392505050565b600082825260208201905092915050565b6000611a54826114b7565b611a5e8185611a38565b9350611a6e8185602086016114d3565b611a77816114fd565b840191505092915050565b611a8b81611454565b82525050565b600081519050919050565b600082825260208201905092915050565b6000819050602082019050919050565b6000611ac98383611a82565b60208301905092915050565b6000602082019050919050565b6000611aed82611a91565b611af78185611a9c565b9350611b0283611aad565b8060005b83811015611b33578151611b1a8882611abd565b9750611b2583611ad5565b925050600181019050611b06565b5085935050505092915050565b611b4981611998565b82525050565b60006080830160008301518482036000860152611b6c8282611a49565b9150506020830151611b816020860182611a82565b5060408301518482036040860152611b998282611ae2565b9150506060830151611bae6060860182611b40565b508091505092915050565b60006020820190508181036000830152611bd38184611b4f565b905092915050565b6000602082019050611bf06000830184611547565b92915050565b600060208284031215611c0c57611c0b61144a565b5b6000611c1a848285016116ee565b91505092915050565b60006060820190508181036000830152611c3d818661150e565b9050611c4c6020830185611547565b611c5960408301846119a4565b949350505050565b60006020820190508181036000830152611c7b818461150e565b905092915050565b7f4e487b7100000000000000000000000000000000000000000000000000000000600052602260045260246000fd5b60006002820490506001821680611cca57607f821691505b602082108103611cdd57611cdc611c83565b5b50919050565b7f5573657220616c72656164792065786973747300000000000000000000000000600082015250565b6000611d196013836114c2565b9150611d2482611ce3565b602082019050919050565b60006020820190508181036000830152611d4881611d0c565b9050919050565b60008190508160005260206000209050919050565b60006020601f8301049050919050565b600082821b905092915050565b600060088302611db17fffffffffffffffffffffffffffffffffffffffffffffffffffffffffffffffff82611d74565b611dbb8683611d74565b95508019841693508086168417925050509392505050565b6000611dee611de9611de484611454565b611855565b611454565b9050919050565b6000819050919050565b611e0883611dd3565b611e1c611e1482611df5565b848454611d81565b825550505050565b600090565b611e31611e24565b611e3c818484611dff565b505050565b5b81811015611e6057611e55600082611e29565b600181019050611e42565b5050565b601f821115611ea557611e7681611d4f565b611e7f84611d64565b81016020851015611e8e578190505b611ea2611e9a85611d64565b830182611e41565b50505b505050565b600082821c905092915050565b6000611ec860001984600802611eaa565b1980831691505092915050565b6000611ee18383611eb7565b9150826002028217905092915050565b611efa826114b7565b67ffffffffffffffff811115611f1357611f126115ac565b5b611f1d8254611cb2565b611f28828285611e64565b600060209050601f831160018114611f5b5760008415611f49578287015190505b611f538582611ed5565b865550611fbb565b601f198416611f6986611d4f565b60005b82811015611f9157848901518255600182019150602085019450602081019050611f6c565b86831015611fae5784890151611faa601f891682611eb7565b8355505b6001600288020188555050505b505050505050565b7f55736572206e6f74207265676973746572656400000000000000000000000000600082015250565b6000611ff96013836114c2565b915061200482611fc3565b602082019050919050565b6000602082019050818103600083015261202881611fec565b9050919050565b7f4e487b7100000000000000000000000000000000000000000000000000000000600052601160045260246000fd5b600061206982611454565b91507fffffffffffffffffffffffffffffffffffffffffffffffffffffffffffffffff820361209b5761209a61202f565b5b600182019050919050565b60006040820190506120bb6000830185611416565b6120c86020830184611547565b9392505050565b7f456e74726f70792061646472657373206e6f7420736574000000000000000000600082015250565b60006121056017836114c2565b9150612110826120cf565b602082019050919050565b60006020820190508181036000830152612134816120f8565b9050919050565b7f4f6e6c7920456e74726f70792063616e2063616c6c20746869732066756e637460008201527f696f6e0000000000000000000000000000000000000000000000000000000000602082015250565b60006121976023836114c2565b91506121a28261213b565b604082019050919050565b600060208201905081810360008301526121c68161218a565b9050919050565b7f496e76616c696420696e746572616374696f6e20494400000000000000000000600082015250565b60006122036016836114c2565b915061220e826121cd565b602082019050919050565b60006020820190508181036000830152612232816121f6565b9050919050565b7f5573657220646f6573206e6f7420657869737400000000000000000000000000600082015250565b600061226f6013836114c2565b915061227a82612239565b602082019050919050565b6000602082019050818103600083015261229e81612262565b9050919050565b60006122b082611454565b91506122bb83611454565b92508282039050818111156122d3576122d261202f565b5b92915050565b60006fffffffffffffffffffffffffffffffff82169050919050565b6122fe816122d9565b811461230957600080fd5b50565b60008151905061231b816122f5565b92915050565b6000602082840312156123375761233661144a565b5b60006123458482850161230c565b91505092915050565b6123578161190f565b82525050565b60006040820190506123726000830185611416565b61237f602083018461234e565b9392505050565b600081519050612395816118e3565b92915050565b6000602082840312156123b1576123b061144a565b5b60006123bf84828501612386565b91505092915050565b60006123d382611454565b91506123de83611454565b92508282019050808211156123f6576123f561202f565b5b92915050565b7f4e487b7100000000000000000000000000000000000000000000000000000000600052601260045260246000fd5b600061243682611454565b915061244183611454565b925082612451576124506123fc565b5b82820690509291505056fea264697066735822122026611e31bb9feaf67e893178121baf58fe1693d5d97d6a5a11c39d2461384a1764736f6c63430008110033",
          "opcodes": "PUSH1 0x80 PUSH1 0x40 MSTORE PUSH1 0x40 MLOAD PUSH3 0x296A CODESIZE SUB DUP1 PUSH3 0x296A DUP4 CODECOPY DUP2 DUP2 ADD PUSH1 0x40 MSTORE DUP2 ADD SWAP1 PUSH3 0x29 SWAP2 SWAP1 PUSH3 0x315 JUMP JUMPDEST CALLER PUSH1 0x0 DUP1 PUSH2 0x100 EXP DUP2 SLOAD DUP2 PUSH20 0xFFFFFFFFFFFFFFFFFFFFFFFFFFFFFFFFFFFFFFFF MUL NOT AND SWAP1 DUP4 PUSH20 0xFFFFFFFFFFFFFFFFFFFFFFFFFFFFFFFFFFFFFFFF AND MUL OR SWAP1 SSTORE POP DUP2 PUSH1 0x1 PUSH1 0x0 PUSH2 0x100 EXP DUP2 SLOAD DUP2 PUSH20 0xFFFFFFFFFFFFFFFFFFFFFFFFFFFFFFFFFFFFFFFF MUL NOT AND SWAP1 DUP4 PUSH20 0xFFFFFFFFFFFFFFFFFFFFFFFFFFFFFFFFFFFFFFFF AND MUL OR SWAP1 SSTORE POP DUP1 PUSH1 0x2 PUSH1 0x0 PUSH2 0x100 EXP DUP2 SLOAD DUP2 PUSH20 0xFFFFFFFFFFFFFFFFFFFFFFFFFFFFFFFFFFFFFFFF MUL NOT AND SWAP1 DUP4 PUSH20 0xFFFFFFFFFFFFFFFFFFFFFFFFFFFFFFFFFFFFFFFF AND MUL OR SWAP1 SSTORE POP PUSH3 0xFB PUSH3 0x103 PUSH1 0x20 SHL PUSH1 0x20 SHR JUMP JUMPDEST POP POP PUSH3 0x4C8 JUMP JUMPDEST PUSH1 0x0 PUSH1 0x1 PUSH1 0x0 SWAP1 SLOAD SWAP1 PUSH2 0x100 EXP SWAP1 DIV PUSH20 0xFFFFFFFFFFFFFFFFFFFFFFFFFFFFFFFFFFFFFFFF AND PUSH20 0xFFFFFFFFFFFFFFFFFFFFFFFFFFFFFFFFFFFFFFFF AND PUSH4 0xB88C9148 PUSH1 0x2 PUSH1 0x0 SWAP1 SLOAD SWAP1 PUSH2 0x100 EXP SWAP1 DIV PUSH20 0xFFFFFFFFFFFFFFFFFFFFFFFFFFFFFFFFFFFFFFFF AND PUSH1 0x40 MLOAD DUP3 PUSH4 0xFFFFFFFF AND PUSH1 0xE0 SHL DUP2 MSTORE PUSH1 0x4 ADD PUSH3 0x184 SWAP2 SWAP1 PUSH3 0x36D JUMP JUMPDEST PUSH1 0x20 PUSH1 0x40 MLOAD DUP1 DUP4 SUB DUP2 DUP7 GAS STATICCALL ISZERO DUP1 ISZERO PUSH3 0x1A2 JUMPI RETURNDATASIZE PUSH1 0x0 DUP1 RETURNDATACOPY RETURNDATASIZE PUSH1 0x0 REVERT JUMPDEST POP POP POP POP PUSH1 0x40 MLOAD RETURNDATASIZE PUSH1 0x1F NOT PUSH1 0x1F DUP3 ADD AND DUP3 ADD DUP1 PUSH1 0x40 MSTORE POP DUP2 ADD SWAP1 PUSH3 0x1C8 SWAP2 SWAP1 PUSH3 0x3D7 JUMP JUMPDEST PUSH16 0xFFFFFFFFFFFFFFFFFFFFFFFFFFFFFFFF AND SWAP1 POP PUSH1 0x1 PUSH1 0x0 SWAP1 SLOAD SWAP1 PUSH2 0x100 EXP SWAP1 DIV PUSH20 0xFFFFFFFFFFFFFFFFFFFFFFFFFFFFFFFFFFFFFFFF AND PUSH20 0xFFFFFFFFFFFFFFFFFFFFFFFFFFFFFFFFFFFFFFFF AND PUSH4 0x19CB825F DUP3 PUSH1 0x2 PUSH1 0x0 SWAP1 SLOAD SWAP1 PUSH2 0x100 EXP SWAP1 DIV PUSH20 0xFFFFFFFFFFFFFFFFFFFFFFFFFFFFFFFFFFFFFFFF AND PUSH1 0x0 DUP1 SHL PUSH1 0x40 MLOAD DUP5 PUSH4 0xFFFFFFFF AND PUSH1 0xE0 SHL DUP2 MSTORE PUSH1 0x4 ADD PUSH3 0x261 SWAP3 SWAP2 SWAP1 PUSH3 0x424 JUMP JUMPDEST PUSH1 0x20 PUSH1 0x40 MLOAD DUP1 DUP4 SUB DUP2 DUP6 DUP9 GAS CALL ISZERO DUP1 ISZERO PUSH3 0x280 JUMPI RETURNDATASIZE PUSH1 0x0 DUP1 RETURNDATACOPY RETURNDATASIZE PUSH1 0x0 REVERT JUMPDEST POP POP POP POP POP PUSH1 0x40 MLOAD RETURNDATASIZE PUSH1 0x1F NOT PUSH1 0x1F DUP3 ADD AND DUP3 ADD DUP1 PUSH1 0x40 MSTORE POP DUP2 ADD SWAP1 PUSH3 0x2A7 SWAP2 SWAP1 PUSH3 0x496 JUMP JUMPDEST POP POP JUMP JUMPDEST PUSH1 0x0 DUP1 REVERT JUMPDEST PUSH1 0x0 PUSH20 0xFFFFFFFFFFFFFFFFFFFFFFFFFFFFFFFFFFFFFFFF DUP3 AND SWAP1 POP SWAP2 SWAP1 POP JUMP JUMPDEST PUSH1 0x0 PUSH3 0x2DD DUP3 PUSH3 0x2B0 JUMP JUMPDEST SWAP1 POP SWAP2 SWAP1 POP JUMP JUMPDEST PUSH3 0x2EF DUP2 PUSH3 0x2D0 JUMP JUMPDEST DUP2 EQ PUSH3 0x2FB JUMPI PUSH1 0x0 DUP1 REVERT JUMPDEST POP JUMP JUMPDEST PUSH1 0x0 DUP2 MLOAD SWAP1 POP PUSH3 0x30F DUP2 PUSH3 0x2E4 JUMP JUMPDEST SWAP3 SWAP2 POP POP JUMP JUMPDEST PUSH1 0x0 DUP1 PUSH1 0x40 DUP4 DUP6 SUB SLT ISZERO PUSH3 0x32F JUMPI PUSH3 0x32E PUSH3 0x2AB JUMP JUMPDEST JUMPDEST PUSH1 0x0 PUSH3 0x33F DUP6 DUP3 DUP7 ADD PUSH3 0x2FE JUMP JUMPDEST SWAP3 POP POP PUSH1 0x20 PUSH3 0x352 DUP6 DUP3 DUP7 ADD PUSH3 0x2FE JUMP JUMPDEST SWAP2 POP POP SWAP3 POP SWAP3 SWAP1 POP JUMP JUMPDEST PUSH3 0x367 DUP2 PUSH3 0x2D0 JUMP JUMPDEST DUP3 MSTORE POP POP JUMP JUMPDEST PUSH1 0x0 PUSH1 0x20 DUP3 ADD SWAP1 POP PUSH3 0x384 PUSH1 0x0 DUP4 ADD DUP5 PUSH3 0x35C JUMP JUMPDEST SWAP3 SWAP2 POP POP JUMP JUMPDEST PUSH1 0x0 PUSH16 0xFFFFFFFFFFFFFFFFFFFFFFFFFFFFFFFF DUP3 AND SWAP1 POP SWAP2 SWAP1 POP JUMP JUMPDEST PUSH3 0x3B1 DUP2 PUSH3 0x38A JUMP JUMPDEST DUP2 EQ PUSH3 0x3BD JUMPI PUSH1 0x0 DUP1 REVERT JUMPDEST POP JUMP JUMPDEST PUSH1 0x0 DUP2 MLOAD SWAP1 POP PUSH3 0x3D1 DUP2 PUSH3 0x3A6 JUMP JUMPDEST SWAP3 SWAP2 POP POP JUMP JUMPDEST PUSH1 0x0 PUSH1 0x20 DUP3 DUP5 SUB SLT ISZERO PUSH3 0x3F0 JUMPI PUSH3 0x3EF PUSH3 0x2AB JUMP JUMPDEST JUMPDEST PUSH1 0x0 PUSH3 0x400 DUP5 DUP3 DUP6 ADD PUSH3 0x3C0 JUMP JUMPDEST SWAP2 POP POP SWAP3 SWAP2 POP POP JUMP JUMPDEST PUSH1 0x0 DUP2 SWAP1 POP SWAP2 SWAP1 POP JUMP JUMPDEST PUSH3 0x41E DUP2 PUSH3 0x409 JUMP JUMPDEST DUP3 MSTORE POP POP JUMP JUMPDEST PUSH1 0x0 PUSH1 0x40 DUP3 ADD SWAP1 POP PUSH3 0x43B PUSH1 0x0 DUP4 ADD DUP6 PUSH3 0x35C JUMP JUMPDEST PUSH3 0x44A PUSH1 0x20 DUP4 ADD DUP5 PUSH3 0x413 JUMP JUMPDEST SWAP4 SWAP3 POP POP POP JUMP JUMPDEST PUSH1 0x0 PUSH8 0xFFFFFFFFFFFFFFFF DUP3 AND SWAP1 POP SWAP2 SWAP1 POP JUMP JUMPDEST PUSH3 0x470 DUP2 PUSH3 0x451 JUMP JUMPDEST DUP2 EQ PUSH3 0x47C JUMPI PUSH1 0x0 DUP1 REVERT JUMPDEST POP JUMP JUMPDEST PUSH1 0x0 DUP2 MLOAD SWAP1 POP PUSH3 0x490 DUP2 PUSH3 0x465 JUMP JUMPDEST SWAP3 SWAP2 POP POP JUMP JUMPDEST PUSH1 0x0 PUSH1 0x20 DUP3 DUP5 SUB SLT ISZERO PUSH3 0x4AF JUMPI PUSH3 0x4AE PUSH3 0x2AB JUMP JUMPDEST JUMPDEST PUSH1 0x0 PUSH3 0x4BF DUP5 DUP3 DUP6 ADD PUSH3 0x47F JUMP JUMPDEST SWAP2 POP POP SWAP3 SWAP2 POP POP JUMP JUMPDEST PUSH2 0x2492 DUP1 PUSH3 0x4D8 PUSH1 0x0 CODECOPY PUSH1 0x0 RETURN INVALID PUSH1 0x80 PUSH1 0x40 MSTORE CALLVALUE DUP1 ISZERO PUSH2 0x10 JUMPI PUSH1 0x0 DUP1 REVERT JUMPDEST POP PUSH1 0x4 CALLDATASIZE LT PUSH2 0x121 JUMPI PUSH1 0x0 CALLDATALOAD PUSH1 0xE0 SHR DUP1 PUSH4 0x76487B38 GT PUSH2 0xAD JUMPI DUP1 PUSH4 0xA209081E GT PUSH2 0x71 JUMPI DUP1 PUSH4 0xA209081E EQ PUSH2 0x2D2 JUMPI DUP1 PUSH4 0xA87430BA EQ PUSH2 0x302 JUMPI DUP1 PUSH4 0xA890610B EQ PUSH2 0x334 JUMPI DUP1 PUSH4 0xC3066E2A EQ PUSH2 0x352 JUMPI DUP1 PUSH4 0xF22F6FB6 EQ PUSH2 0x370 JUMPI PUSH2 0x121 JUMP JUMPDEST DUP1 PUSH4 0x76487B38 EQ PUSH2 0x252 JUMPI DUP1 PUSH4 0x832880E7 EQ PUSH2 0x26E JUMPI DUP1 PUSH4 0x8DA5CB5B EQ PUSH2 0x28C JUMPI DUP1 PUSH4 0x938D0B1E EQ PUSH2 0x2AA JUMPI DUP1 PUSH4 0x9534D199 EQ PUSH2 0x2B4 JUMPI PUSH2 0x121 JUMP JUMPDEST DUP1 PUSH4 0x4585E33B GT PUSH2 0xF4 JUMPI DUP1 PUSH4 0x4585E33B EQ PUSH2 0x1AF JUMPI DUP1 PUSH4 0x47CE07CC EQ PUSH2 0x1CB JUMPI DUP1 PUSH4 0x52A5F1F8 EQ PUSH2 0x1E9 JUMPI DUP1 PUSH4 0x6E04FF0D EQ PUSH2 0x205 JUMPI DUP1 PUSH4 0x728F9B3D EQ PUSH2 0x236 JUMPI PUSH2 0x121 JUMP JUMPDEST DUP1 PUSH4 0x85D4883 EQ PUSH2 0x126 JUMPI DUP1 PUSH4 0xBA460FF EQ PUSH2 0x144 JUMPI DUP1 PUSH4 0xE54B872 EQ PUSH2 0x177 JUMPI DUP1 PUSH4 0x1E88B388 EQ PUSH2 0x193 JUMPI JUMPDEST PUSH1 0x0 DUP1 REVERT JUMPDEST PUSH2 0x12E PUSH2 0x3A0 JUMP JUMPDEST PUSH1 0x40 MLOAD PUSH2 0x13B SWAP2 SWAP1 PUSH2 0x1425 JUMP JUMPDEST PUSH1 0x40 MLOAD DUP1 SWAP2 SUB SWAP1 RETURN JUMPDEST PUSH2 0x15E PUSH1 0x4 DUP1 CALLDATASIZE SUB DUP2 ADD SWAP1 PUSH2 0x159 SWAP2 SWAP1 PUSH2 0x148A JUMP JUMPDEST PUSH2 0x3C6 JUMP JUMPDEST PUSH1 0x40 MLOAD PUSH2 0x16E SWAP5 SWAP4 SWAP3 SWAP2 SWAP1 PUSH2 0x1556 JUMP JUMPDEST PUSH1 0x40 MLOAD DUP1 SWAP2 SUB SWAP1 RETURN JUMPDEST PUSH2 0x191 PUSH1 0x4 DUP1 CALLDATASIZE SUB DUP2 ADD SWAP1 PUSH2 0x18C SWAP2 SWAP1 PUSH2 0x1703 JUMP JUMPDEST PUSH2 0x49E JUMP JUMPDEST STOP JUMPDEST PUSH2 0x1AD PUSH1 0x4 DUP1 CALLDATASIZE SUB DUP2 ADD SWAP1 PUSH2 0x1A8 SWAP2 SWAP1 PUSH2 0x175F JUMP JUMPDEST PUSH2 0x676 JUMP JUMPDEST STOP JUMPDEST PUSH2 0x1C9 PUSH1 0x4 DUP1 CALLDATASIZE SUB DUP2 ADD SWAP1 PUSH2 0x1C4 SWAP2 SWAP1 PUSH2 0x1808 JUMP JUMPDEST PUSH2 0x887 JUMP JUMPDEST STOP JUMPDEST PUSH2 0x1D3 PUSH2 0x8D6 JUMP JUMPDEST PUSH1 0x40 MLOAD PUSH2 0x1E0 SWAP2 SWAP1 PUSH2 0x18B4 JUMP JUMPDEST PUSH1 0x40 MLOAD DUP1 SWAP2 SUB SWAP1 RETURN JUMPDEST PUSH2 0x203 PUSH1 0x4 DUP1 CALLDATASIZE SUB DUP2 ADD SWAP1 PUSH2 0x1FE SWAP2 SWAP1 PUSH2 0x1945 JUMP JUMPDEST PUSH2 0x8FC JUMP JUMPDEST STOP JUMPDEST PUSH2 0x21F PUSH1 0x4 DUP1 CALLDATASIZE SUB DUP2 ADD SWAP1 PUSH2 0x21A SWAP2 SWAP1 PUSH2 0x1808 JUMP JUMPDEST PUSH2 0x9F6 JUMP JUMPDEST PUSH1 0x40 MLOAD PUSH2 0x22D SWAP3 SWAP2 SWAP1 PUSH2 0x1A08 JUMP JUMPDEST PUSH1 0x40 MLOAD DUP1 SWAP2 SUB SWAP1 RETURN JUMPDEST PUSH2 0x250 PUSH1 0x4 DUP1 CALLDATASIZE SUB DUP2 ADD SWAP1 PUSH2 0x24B SWAP2 SWAP1 PUSH2 0x148A JUMP JUMPDEST PUSH2 0xA09 JUMP JUMPDEST STOP JUMPDEST PUSH2 0x26C PUSH1 0x4 DUP1 CALLDATASIZE SUB DUP2 ADD SWAP1 PUSH2 0x267 SWAP2 SWAP1 PUSH2 0x175F JUMP JUMPDEST PUSH2 0xB87 JUMP JUMPDEST STOP JUMPDEST PUSH2 0x276 PUSH2 0xC69 JUMP JUMPDEST PUSH1 0x40 MLOAD PUSH2 0x283 SWAP2 SWAP1 PUSH2 0x1BB9 JUMP JUMPDEST PUSH1 0x40 MLOAD DUP1 SWAP2 SUB SWAP1 RETURN JUMPDEST PUSH2 0x294 PUSH2 0xE5E JUMP JUMPDEST PUSH1 0x40 MLOAD PUSH2 0x2A1 SWAP2 SWAP1 PUSH2 0x1425 JUMP JUMPDEST PUSH1 0x40 MLOAD DUP1 SWAP2 SUB SWAP1 RETURN JUMPDEST PUSH2 0x2B2 PUSH2 0xE82 JUMP JUMPDEST STOP JUMPDEST PUSH2 0x2BC PUSH2 0xEBD JUMP JUMPDEST PUSH1 0x40 MLOAD PUSH2 0x2C9 SWAP2 SWAP1 PUSH2 0x1BDB JUMP JUMPDEST PUSH1 0x40 MLOAD DUP1 SWAP2 SUB SWAP1 RETURN JUMPDEST PUSH2 0x2EC PUSH1 0x4 DUP1 CALLDATASIZE SUB DUP2 ADD SWAP1 PUSH2 0x2E7 SWAP2 SWAP1 PUSH2 0x148A JUMP JUMPDEST PUSH2 0xEE5 JUMP JUMPDEST PUSH1 0x40 MLOAD PUSH2 0x2F9 SWAP2 SWAP1 PUSH2 0x1BDB JUMP JUMPDEST PUSH1 0x40 MLOAD DUP1 SWAP2 SUB SWAP1 RETURN JUMPDEST PUSH2 0x31C PUSH1 0x4 DUP1 CALLDATASIZE SUB DUP2 ADD SWAP1 PUSH2 0x317 SWAP2 SWAP1 PUSH2 0x1BF6 JUMP JUMPDEST PUSH2 0xF55 JUMP JUMPDEST PUSH1 0x40 MLOAD PUSH2 0x32B SWAP4 SWAP3 SWAP2 SWAP1 PUSH2 0x1C23 JUMP JUMPDEST PUSH1 0x40 MLOAD DUP1 SWAP2 SUB SWAP1 RETURN JUMPDEST PUSH2 0x33C PUSH2 0x1014 JUMP JUMPDEST PUSH1 0x40 MLOAD PUSH2 0x349 SWAP2 SWAP1 PUSH2 0x1BDB JUMP JUMPDEST PUSH1 0x40 MLOAD DUP1 SWAP2 SUB SWAP1 RETURN JUMPDEST PUSH2 0x35A PUSH2 0x101A JUMP JUMPDEST PUSH1 0x40 MLOAD PUSH2 0x367 SWAP2 SWAP1 PUSH2 0x1BDB JUMP JUMPDEST PUSH1 0x40 MLOAD DUP1 SWAP2 SUB SWAP1 RETURN JUMPDEST PUSH2 0x38A PUSH1 0x4 DUP1 CALLDATASIZE SUB DUP2 ADD SWAP1 PUSH2 0x385 SWAP2 SWAP1 PUSH2 0x1BF6 JUMP JUMPDEST PUSH2 0x1020 JUMP JUMPDEST PUSH1 0x40 MLOAD PUSH2 0x397 SWAP2 SWAP1 PUSH2 0x1C61 JUMP JUMPDEST PUSH1 0x40 MLOAD DUP1 SWAP2 SUB SWAP1 RETURN JUMPDEST PUSH1 0x2 PUSH1 0x0 SWAP1 SLOAD SWAP1 PUSH2 0x100 EXP SWAP1 DIV PUSH20 0xFFFFFFFFFFFFFFFFFFFFFFFFFFFFFFFFFFFFFFFF AND DUP2 JUMP JUMPDEST PUSH1 0x4 PUSH1 0x20 MSTORE DUP1 PUSH1 0x0 MSTORE PUSH1 0x40 PUSH1 0x0 KECCAK256 PUSH1 0x0 SWAP2 POP SWAP1 POP DUP1 PUSH1 0x0 ADD PUSH1 0x0 SWAP1 SLOAD SWAP1 PUSH2 0x100 EXP SWAP1 DIV PUSH20 0xFFFFFFFFFFFFFFFFFFFFFFFFFFFFFFFFFFFFFFFF AND SWAP1 DUP1 PUSH1 0x1 ADD DUP1 SLOAD PUSH2 0x40F SWAP1 PUSH2 0x1CB2 JUMP JUMPDEST DUP1 PUSH1 0x1F ADD PUSH1 0x20 DUP1 SWAP2 DIV MUL PUSH1 0x20 ADD PUSH1 0x40 MLOAD SWAP1 DUP2 ADD PUSH1 0x40 MSTORE DUP1 SWAP3 SWAP2 SWAP1 DUP2 DUP2 MSTORE PUSH1 0x20 ADD DUP3 DUP1 SLOAD PUSH2 0x43B SWAP1 PUSH2 0x1CB2 JUMP JUMPDEST DUP1 ISZERO PUSH2 0x488 JUMPI DUP1 PUSH1 0x1F LT PUSH2 0x45D JUMPI PUSH2 0x100 DUP1 DUP4 SLOAD DIV MUL DUP4 MSTORE SWAP2 PUSH1 0x20 ADD SWAP2 PUSH2 0x488 JUMP JUMPDEST DUP3 ADD SWAP2 SWAP1 PUSH1 0x0 MSTORE PUSH1 0x20 PUSH1 0x0 KECCAK256 SWAP1 JUMPDEST DUP2 SLOAD DUP2 MSTORE SWAP1 PUSH1 0x1 ADD SWAP1 PUSH1 0x20 ADD DUP1 DUP4 GT PUSH2 0x46B JUMPI DUP3 SWAP1 SUB PUSH1 0x1F AND DUP3 ADD SWAP2 JUMPDEST POP POP POP POP POP SWAP1 DUP1 PUSH1 0x2 ADD SLOAD SWAP1 DUP1 PUSH1 0x3 ADD SLOAD SWAP1 POP DUP5 JUMP JUMPDEST PUSH1 0x3 PUSH1 0x0 DUP3 PUSH20 0xFFFFFFFFFFFFFFFFFFFFFFFFFFFFFFFFFFFFFFFF AND PUSH20 0xFFFFFFFFFFFFFFFFFFFFFFFFFFFFFFFFFFFFFFFF AND DUP2 MSTORE PUSH1 0x20 ADD SWAP1 DUP2 MSTORE PUSH1 0x20 ADD PUSH1 0x0 KECCAK256 PUSH1 0x3 ADD PUSH1 0x0 SWAP1 SLOAD SWAP1 PUSH2 0x100 EXP SWAP1 DIV PUSH1 0xFF AND ISZERO PUSH2 0x52E JUMPI PUSH1 0x40 MLOAD PUSH32 0x8C379A000000000000000000000000000000000000000000000000000000000 DUP2 MSTORE PUSH1 0x4 ADD PUSH2 0x525 SWAP1 PUSH2 0x1D2F JUMP JUMPDEST PUSH1 0x40 MLOAD DUP1 SWAP2 SUB SWAP1 REVERT JUMPDEST PUSH1 0x40 MLOAD DUP1 PUSH1 0x80 ADD PUSH1 0x40 MSTORE DUP1 DUP4 DUP2 MSTORE PUSH1 0x20 ADD PUSH1 0x0 DUP2 MSTORE PUSH1 0x20 ADD PUSH1 0x0 PUSH8 0xFFFFFFFFFFFFFFFF DUP2 GT ISZERO PUSH2 0x561 JUMPI PUSH2 0x560 PUSH2 0x15AC JUMP JUMPDEST JUMPDEST PUSH1 0x40 MLOAD SWAP1 DUP1 DUP3 MSTORE DUP1 PUSH1 0x20 MUL PUSH1 0x20 ADD DUP3 ADD PUSH1 0x40 MSTORE DUP1 ISZERO PUSH2 0x58F JUMPI DUP2 PUSH1 0x20 ADD PUSH1 0x20 DUP3 MUL DUP1 CALLDATASIZE DUP4 CALLDATACOPY DUP1 DUP3 ADD SWAP2 POP POP SWAP1 POP JUMPDEST POP DUP2 MSTORE PUSH1 0x20 ADD PUSH1 0x1 ISZERO ISZERO DUP2 MSTORE POP PUSH1 0x3 PUSH1 0x0 DUP4 PUSH20 0xFFFFFFFFFFFFFFFFFFFFFFFFFFFFFFFFFFFFFFFF AND PUSH20 0xFFFFFFFFFFFFFFFFFFFFFFFFFFFFFFFFFFFFFFFF AND DUP2 MSTORE PUSH1 0x20 ADD SWAP1 DUP2 MSTORE PUSH1 0x20 ADD PUSH1 0x0 KECCAK256 PUSH1 0x0 DUP3 ADD MLOAD DUP2 PUSH1 0x0 ADD SWAP1 DUP2 PUSH2 0x5F0 SWAP2 SWAP1 PUSH2 0x1EF1 JUMP JUMPDEST POP PUSH1 0x20 DUP3 ADD MLOAD DUP2 PUSH1 0x1 ADD SSTORE PUSH1 0x40 DUP3 ADD MLOAD DUP2 PUSH1 0x2 ADD SWAP1 DUP1 MLOAD SWAP1 PUSH1 0x20 ADD SWAP1 PUSH2 0x617 SWAP3 SWAP2 SWAP1 PUSH2 0x1350 JUMP JUMPDEST POP PUSH1 0x60 DUP3 ADD MLOAD DUP2 PUSH1 0x3 ADD PUSH1 0x0 PUSH2 0x100 EXP DUP2 SLOAD DUP2 PUSH1 0xFF MUL NOT AND SWAP1 DUP4 ISZERO ISZERO MUL OR SWAP1 SSTORE POP SWAP1 POP POP PUSH32 0x54DB7A5CB4735E1AAC1F53DB512D3390390BB6637BD30AD4BF9FC98667D9B9B9 DUP2 PUSH1 0x40 MLOAD PUSH2 0x66A SWAP2 SWAP1 PUSH2 0x1425 JUMP JUMPDEST PUSH1 0x40 MLOAD DUP1 SWAP2 SUB SWAP1 LOG1 POP POP JUMP JUMPDEST PUSH1 0x3 PUSH1 0x0 CALLER PUSH20 0xFFFFFFFFFFFFFFFFFFFFFFFFFFFFFFFFFFFFFFFF AND PUSH20 0xFFFFFFFFFFFFFFFFFFFFFFFFFFFFFFFFFFFFFFFF AND DUP2 MSTORE PUSH1 0x20 ADD SWAP1 DUP2 MSTORE PUSH1 0x20 ADD PUSH1 0x0 KECCAK256 PUSH1 0x3 ADD PUSH1 0x0 SWAP1 SLOAD SWAP1 PUSH2 0x100 EXP SWAP1 DIV PUSH1 0xFF AND PUSH2 0x705 JUMPI PUSH1 0x40 MLOAD PUSH32 0x8C379A000000000000000000000000000000000000000000000000000000000 DUP2 MSTORE PUSH1 0x4 ADD PUSH2 0x6FC SWAP1 PUSH2 0x200F JUMP JUMPDEST PUSH1 0x40 MLOAD DUP1 SWAP2 SUB SWAP1 REVERT JUMPDEST PUSH1 0x5 PUSH1 0x0 DUP2 SLOAD DUP1 SWAP3 SWAP2 SWAP1 PUSH2 0x718 SWAP1 PUSH2 0x205E JUMP JUMPDEST SWAP2 SWAP1 POP SSTORE POP PUSH1 0x40 MLOAD DUP1 PUSH1 0x80 ADD PUSH1 0x40 MSTORE DUP1 CALLER PUSH20 0xFFFFFFFFFFFFFFFFFFFFFFFFFFFFFFFFFFFFFFFF AND DUP2 MSTORE PUSH1 0x20 ADD DUP3 DUP2 MSTORE PUSH1 0x20 ADD TIMESTAMP DUP2 MSTORE PUSH1 0x20 ADD PUSH1 0x0 DUP2 MSTORE POP PUSH1 0x4 PUSH1 0x0 PUSH1 0x5 SLOAD DUP2 MSTORE PUSH1 0x20 ADD SWAP1 DUP2 MSTORE PUSH1 0x20 ADD PUSH1 0x0 KECCAK256 PUSH1 0x0 DUP3 ADD MLOAD DUP2 PUSH1 0x0 ADD PUSH1 0x0 PUSH2 0x100 EXP DUP2 SLOAD DUP2 PUSH20 0xFFFFFFFFFFFFFFFFFFFFFFFFFFFFFFFFFFFFFFFF MUL NOT AND SWAP1 DUP4 PUSH20 0xFFFFFFFFFFFFFFFFFFFFFFFFFFFFFFFFFFFFFFFF AND MUL OR SWAP1 SSTORE POP PUSH1 0x20 DUP3 ADD MLOAD DUP2 PUSH1 0x1 ADD SWAP1 DUP2 PUSH2 0x7C6 SWAP2 SWAP1 PUSH2 0x1EF1 JUMP JUMPDEST POP PUSH1 0x40 DUP3 ADD MLOAD DUP2 PUSH1 0x2 ADD SSTORE PUSH1 0x60 DUP3 ADD MLOAD DUP2 PUSH1 0x3 ADD SSTORE SWAP1 POP POP PUSH1 0x3 PUSH1 0x0 CALLER PUSH20 0xFFFFFFFFFFFFFFFFFFFFFFFFFFFFFFFFFFFFFFFF AND PUSH20 0xFFFFFFFFFFFFFFFFFFFFFFFFFFFFFFFFFFFFFFFF AND DUP2 MSTORE PUSH1 0x20 ADD SWAP1 DUP2 MSTORE PUSH1 0x20 ADD PUSH1 0x0 KECCAK256 PUSH1 0x2 ADD PUSH1 0x5 SLOAD SWAP1 DUP1 PUSH1 0x1 DUP2 SLOAD ADD DUP1 DUP3 SSTORE DUP1 SWAP2 POP POP PUSH1 0x1 SWAP1 SUB SWAP1 PUSH1 0x0 MSTORE PUSH1 0x20 PUSH1 0x0 KECCAK256 ADD PUSH1 0x0 SWAP1 SWAP2 SWAP1 SWAP2 SWAP1 SWAP2 POP SSTORE PUSH32 0x7FF842779923F2243E84BAE82A18191E112275E431D8DE2018A34429A007D8AA CALLER PUSH1 0x5 SLOAD PUSH1 0x40 MLOAD PUSH2 0x87C SWAP3 SWAP2 SWAP1 PUSH2 0x20A6 JUMP JUMPDEST PUSH1 0x40 MLOAD DUP1 SWAP2 SUB SWAP1 LOG1 POP JUMP JUMPDEST PUSH1 0x6 SLOAD TIMESTAMP LT PUSH2 0x8D2 JUMPI PUSH32 0xD73153AA6B7A927FD60ECB4DFB06EB0446518B2CDE9F2E3810C1D4AADAD4FB19 CALLER TIMESTAMP PUSH1 0x40 MLOAD PUSH2 0x8C1 SWAP3 SWAP2 SWAP1 PUSH2 0x20A6 JUMP JUMPDEST PUSH1 0x40 MLOAD DUP1 SWAP2 SUB SWAP1 LOG1 PUSH2 0x8D1 PUSH2 0x10F4 JUMP JUMPDEST JUMPDEST POP POP JUMP JUMPDEST PUSH1 0x1 PUSH1 0x0 SWAP1 SLOAD SWAP1 PUSH2 0x100 EXP SWAP1 DIV PUSH20 0xFFFFFFFFFFFFFFFFFFFFFFFFFFFFFFFFFFFFFFFF AND DUP2 JUMP JUMPDEST PUSH1 0x0 PUSH2 0x906 PUSH2 0x1292 JUMP JUMPDEST SWAP1 POP PUSH1 0x0 PUSH20 0xFFFFFFFFFFFFFFFFFFFFFFFFFFFFFFFFFFFFFFFF AND DUP2 PUSH20 0xFFFFFFFFFFFFFFFFFFFFFFFFFFFFFFFFFFFFFFFF AND SUB PUSH2 0x977 JUMPI PUSH1 0x40 MLOAD PUSH32 0x8C379A000000000000000000000000000000000000000000000000000000000 DUP2 MSTORE PUSH1 0x4 ADD PUSH2 0x96E SWAP1 PUSH2 0x211B JUMP JUMPDEST PUSH1 0x40 MLOAD DUP1 SWAP2 SUB SWAP1 REVERT JUMPDEST DUP1 PUSH20 0xFFFFFFFFFFFFFFFFFFFFFFFFFFFFFFFFFFFFFFFF AND CALLER PUSH20 0xFFFFFFFFFFFFFFFFFFFFFFFFFFFFFFFFFFFFFFFF AND EQ PUSH2 0x9E5 JUMPI PUSH1 0x40 MLOAD PUSH32 0x8C379A000000000000000000000000000000000000000000000000000000000 DUP2 MSTORE PUSH1 0x4 ADD PUSH2 0x9DC SWAP1 PUSH2 0x21AD JUMP JUMPDEST PUSH1 0x40 MLOAD DUP1 SWAP2 SUB SWAP1 REVERT JUMPDEST PUSH2 0x9F0 DUP5 DUP5 DUP5 PUSH2 0x12BC JUMP JUMPDEST POP POP POP POP JUMP JUMPDEST PUSH1 0x0 PUSH1 0x60 PUSH1 0x6 SLOAD TIMESTAMP LT ISZERO SWAP2 POP SWAP3 POP SWAP3 SWAP1 POP JUMP JUMPDEST PUSH1 0x3 PUSH1 0x0 CALLER PUSH20 0xFFFFFFFFFFFFFFFFFFFFFFFFFFFFFFFFFFFFFFFF AND PUSH20 0xFFFFFFFFFFFFFFFFFFFFFFFFFFFFFFFFFFFFFFFF AND DUP2 MSTORE PUSH1 0x20 ADD SWAP1 DUP2 MSTORE PUSH1 0x20 ADD PUSH1 0x0 KECCAK256 PUSH1 0x3 ADD PUSH1 0x0 SWAP1 SLOAD SWAP1 PUSH2 0x100 EXP SWAP1 DIV PUSH1 0xFF AND PUSH2 0xA98 JUMPI PUSH1 0x40 MLOAD PUSH32 0x8C379A000000000000000000000000000000000000000000000000000000000 DUP2 MSTORE PUSH1 0x4 ADD PUSH2 0xA8F SWAP1 PUSH2 0x200F JUMP JUMPDEST PUSH1 0x40 MLOAD DUP1 SWAP2 SUB SWAP1 REVERT JUMPDEST PUSH1 0x0 DUP2 GT DUP1 ISZERO PUSH2 0xAAA JUMPI POP PUSH1 0x5 SLOAD DUP2 GT ISZERO JUMPDEST PUSH2 0xAE9 JUMPI PUSH1 0x40 MLOAD PUSH32 0x8C379A000000000000000000000000000000000000000000000000000000000 DUP2 MSTORE PUSH1 0x4 ADD PUSH2 0xAE0 SWAP1 PUSH2 0x2219 JUMP JUMPDEST PUSH1 0x40 MLOAD DUP1 SWAP2 SUB SWAP1 REVERT JUMPDEST PUSH1 0x4 PUSH1 0x0 DUP3 DUP2 MSTORE PUSH1 0x20 ADD SWAP1 DUP2 MSTORE PUSH1 0x20 ADD PUSH1 0x0 KECCAK256 PUSH1 0x3 ADD PUSH1 0x0 DUP2 SLOAD DUP1 SWAP3 SWAP2 SWAP1 PUSH2 0xB10 SWAP1 PUSH2 0x205E JUMP JUMPDEST SWAP2 SWAP1 POP SSTORE POP PUSH32 0x3E0A236119AA7DBAC5CFD31309977AD6F3C7F39721B4A28205E1386FEF72499A PUSH1 0x4 PUSH1 0x0 DUP4 DUP2 MSTORE PUSH1 0x20 ADD SWAP1 DUP2 MSTORE PUSH1 0x20 ADD PUSH1 0x0 KECCAK256 PUSH1 0x0 ADD PUSH1 0x0 SWAP1 SLOAD SWAP1 PUSH2 0x100 EXP SWAP1 DIV PUSH20 0xFFFFFFFFFFFFFFFFFFFFFFFFFFFFFFFFFFFFFFFF AND DUP3 PUSH1 0x40 MLOAD PUSH2 0xB7C SWAP3 SWAP2 SWAP1 PUSH2 0x20A6 JUMP JUMPDEST PUSH1 0x40 MLOAD DUP1 SWAP2 SUB SWAP1 LOG1 POP JUMP JUMPDEST PUSH1 0x3 PUSH1 0x0 CALLER PUSH20 0xFFFFFFFFFFFFFFFFFFFFFFFFFFFFFFFFFFFFFFFF AND PUSH20 0xFFFFFFFFFFFFFFFFFFFFFFFFFFFFFFFFFFFFFFFF AND DUP2 MSTORE PUSH1 0x20 ADD SWAP1 DUP2 MSTORE PUSH1 0x20 ADD PUSH1 0x0 KECCAK256 PUSH1 0x3 ADD PUSH1 0x0 SWAP1 SLOAD SWAP1 PUSH2 0x100 EXP SWAP1 DIV PUSH1 0xFF AND PUSH2 0xC16 JUMPI PUSH1 0x40 MLOAD PUSH32 0x8C379A000000000000000000000000000000000000000000000000000000000 DUP2 MSTORE PUSH1 0x4 ADD PUSH2 0xC0D SWAP1 PUSH2 0x200F JUMP JUMPDEST PUSH1 0x40 MLOAD DUP1 SWAP2 SUB SWAP1 REVERT JUMPDEST DUP1 PUSH1 0x3 PUSH1 0x0 CALLER PUSH20 0xFFFFFFFFFFFFFFFFFFFFFFFFFFFFFFFFFFFFFFFF AND PUSH20 0xFFFFFFFFFFFFFFFFFFFFFFFFFFFFFFFFFFFFFFFF AND DUP2 MSTORE PUSH1 0x20 ADD SWAP1 DUP2 MSTORE PUSH1 0x20 ADD PUSH1 0x0 KECCAK256 PUSH1 0x0 ADD SWAP1 DUP2 PUSH2 0xC65 SWAP2 SWAP1 PUSH2 0x1EF1 JUMP JUMPDEST POP POP JUMP JUMPDEST PUSH2 0xC71 PUSH2 0x139D JUMP JUMPDEST PUSH1 0x3 PUSH1 0x0 CALLER PUSH20 0xFFFFFFFFFFFFFFFFFFFFFFFFFFFFFFFFFFFFFFFF AND PUSH20 0xFFFFFFFFFFFFFFFFFFFFFFFFFFFFFFFFFFFFFFFF AND DUP2 MSTORE PUSH1 0x20 ADD SWAP1 DUP2 MSTORE PUSH1 0x20 ADD PUSH1 0x0 KECCAK256 PUSH1 0x3 ADD PUSH1 0x0 SWAP1 SLOAD SWAP1 PUSH2 0x100 EXP SWAP1 DIV PUSH1 0xFF AND PUSH2 0xD00 JUMPI PUSH1 0x40 MLOAD PUSH32 0x8C379A000000000000000000000000000000000000000000000000000000000 DUP2 MSTORE PUSH1 0x4 ADD PUSH2 0xCF7 SWAP1 PUSH2 0x2285 JUMP JUMPDEST PUSH1 0x40 MLOAD DUP1 SWAP2 SUB SWAP1 REVERT JUMPDEST PUSH1 0x3 PUSH1 0x0 CALLER PUSH20 0xFFFFFFFFFFFFFFFFFFFFFFFFFFFFFFFFFFFFFFFF AND PUSH20 0xFFFFFFFFFFFFFFFFFFFFFFFFFFFFFFFFFFFFFFFF AND DUP2 MSTORE PUSH1 0x20 ADD SWAP1 DUP2 MSTORE PUSH1 0x20 ADD PUSH1 0x0 KECCAK256 PUSH1 0x40 MLOAD DUP1 PUSH1 0x80 ADD PUSH1 0x40 MSTORE SWAP1 DUP2 PUSH1 0x0 DUP3 ADD DUP1 SLOAD PUSH2 0xD5A SWAP1 PUSH2 0x1CB2 JUMP JUMPDEST DUP1 PUSH1 0x1F ADD PUSH1 0x20 DUP1 SWAP2 DIV MUL PUSH1 0x20 ADD PUSH1 0x40 MLOAD SWAP1 DUP2 ADD PUSH1 0x40 MSTORE DUP1 SWAP3 SWAP2 SWAP1 DUP2 DUP2 MSTORE PUSH1 0x20 ADD DUP3 DUP1 SLOAD PUSH2 0xD86 SWAP1 PUSH2 0x1CB2 JUMP JUMPDEST DUP1 ISZERO PUSH2 0xDD3 JUMPI DUP1 PUSH1 0x1F LT PUSH2 0xDA8 JUMPI PUSH2 0x100 DUP1 DUP4 SLOAD DIV MUL DUP4 MSTORE SWAP2 PUSH1 0x20 ADD SWAP2 PUSH2 0xDD3 JUMP JUMPDEST DUP3 ADD SWAP2 SWAP1 PUSH1 0x0 MSTORE PUSH1 0x20 PUSH1 0x0 KECCAK256 SWAP1 JUMPDEST DUP2 SLOAD DUP2 MSTORE SWAP1 PUSH1 0x1 ADD SWAP1 PUSH1 0x20 ADD DUP1 DUP4 GT PUSH2 0xDB6 JUMPI DUP3 SWAP1 SUB PUSH1 0x1F AND DUP3 ADD SWAP2 JUMPDEST POP POP POP POP POP DUP2 MSTORE PUSH1 0x20 ADD PUSH1 0x1 DUP3 ADD SLOAD DUP2 MSTORE PUSH1 0x20 ADD PUSH1 0x2 DUP3 ADD DUP1 SLOAD DUP1 PUSH1 0x20 MUL PUSH1 0x20 ADD PUSH1 0x40 MLOAD SWAP1 DUP2 ADD PUSH1 0x40 MSTORE DUP1 SWAP3 SWAP2 SWAP1 DUP2 DUP2 MSTORE PUSH1 0x20 ADD DUP3 DUP1 SLOAD DUP1 ISZERO PUSH2 0xE35 JUMPI PUSH1 0x20 MUL DUP3 ADD SWAP2 SWAP1 PUSH1 0x0 MSTORE PUSH1 0x20 PUSH1 0x0 KECCAK256 SWAP1 JUMPDEST DUP2 SLOAD DUP2 MSTORE PUSH1 0x20 ADD SWAP1 PUSH1 0x1 ADD SWAP1 DUP1 DUP4 GT PUSH2 0xE21 JUMPI JUMPDEST POP POP POP POP POP DUP2 MSTORE PUSH1 0x20 ADD PUSH1 0x3 DUP3 ADD PUSH1 0x0 SWAP1 SLOAD SWAP1 PUSH2 0x100 EXP SWAP1 DIV PUSH1 0xFF AND ISZERO ISZERO ISZERO ISZERO DUP2 MSTORE POP POP SWAP1 POP SWAP1 JUMP JUMPDEST PUSH1 0x0 DUP1 SLOAD SWAP1 PUSH2 0x100 EXP SWAP1 DIV PUSH20 0xFFFFFFFFFFFFFFFFFFFFFFFFFFFFFFFFFFFFFFFF AND DUP2 JUMP JUMPDEST PUSH32 0xAE77CF99E72F84A1AB50AA4646254CE291055B92E39A60657E4D496C9301C32D CALLER TIMESTAMP PUSH1 0x40 MLOAD PUSH2 0xEB3 SWAP3 SWAP2 SWAP1 PUSH2 0x20A6 JUMP JUMPDEST PUSH1 0x40 MLOAD DUP1 SWAP2 SUB SWAP1 LOG1 JUMP JUMPDEST PUSH1 0x0 PUSH1 0x6 SLOAD TIMESTAMP LT PUSH2 0xED1 JUMPI PUSH1 0x0 SWAP1 POP PUSH2 0xEE2 JUMP JUMPDEST TIMESTAMP PUSH1 0x6 SLOAD PUSH2 0xEDF SWAP2 SWAP1 PUSH2 0x22A5 JUMP JUMPDEST SWAP1 POP JUMPDEST SWAP1 JUMP JUMPDEST PUSH1 0x0 DUP1 DUP3 GT DUP1 ISZERO PUSH2 0xEF8 JUMPI POP PUSH1 0x5 SLOAD DUP3 GT ISZERO JUMPDEST PUSH2 0xF37 JUMPI PUSH1 0x40 MLOAD PUSH32 0x8C379A000000000000000000000000000000000000000000000000000000000 DUP2 MSTORE PUSH1 0x4 ADD PUSH2 0xF2E SWAP1 PUSH2 0x2219 JUMP JUMPDEST PUSH1 0x40 MLOAD DUP1 SWAP2 SUB SWAP1 REVERT JUMPDEST PUSH1 0x4 PUSH1 0x0 DUP4 DUP2 MSTORE PUSH1 0x20 ADD SWAP1 DUP2 MSTORE PUSH1 0x20 ADD PUSH1 0x0 KECCAK256 PUSH1 0x3 ADD SLOAD SWAP1 POP SWAP2 SWAP1 POP JUMP JUMPDEST PUSH1 0x3 PUSH1 0x20 MSTORE DUP1 PUSH1 0x0 MSTORE PUSH1 0x40 PUSH1 0x0 KECCAK256 PUSH1 0x0 SWAP2 POP SWAP1 POP DUP1 PUSH1 0x0 ADD DUP1 SLOAD PUSH2 0xF78 SWAP1 PUSH2 0x1CB2 JUMP JUMPDEST DUP1 PUSH1 0x1F ADD PUSH1 0x20 DUP1 SWAP2 DIV MUL PUSH1 0x20 ADD PUSH1 0x40 MLOAD SWAP1 DUP2 ADD PUSH1 0x40 MSTORE DUP1 SWAP3 SWAP2 SWAP1 DUP2 DUP2 MSTORE PUSH1 0x20 ADD DUP3 DUP1 SLOAD PUSH2 0xFA4 SWAP1 PUSH2 0x1CB2 JUMP JUMPDEST DUP1 ISZERO PUSH2 0xFF1 JUMPI DUP1 PUSH1 0x1F LT PUSH2 0xFC6 JUMPI PUSH2 0x100 DUP1 DUP4 SLOAD DIV MUL DUP4 MSTORE SWAP2 PUSH1 0x20 ADD SWAP2 PUSH2 0xFF1 JUMP JUMPDEST DUP3 ADD SWAP2 SWAP1 PUSH1 0x0 MSTORE PUSH1 0x20 PUSH1 0x0 KECCAK256 SWAP1 JUMPDEST DUP2 SLOAD DUP2 MSTORE SWAP1 PUSH1 0x1 ADD SWAP1 PUSH1 0x20 ADD DUP1 DUP4 GT PUSH2 0xFD4 JUMPI DUP3 SWAP1 SUB PUSH1 0x1F AND DUP3 ADD SWAP2 JUMPDEST POP POP POP POP POP SWAP1 DUP1 PUSH1 0x1 ADD SLOAD SWAP1 DUP1 PUSH1 0x3 ADD PUSH1 0x0 SWAP1 SLOAD SWAP1 PUSH2 0x100 EXP SWAP1 DIV PUSH1 0xFF AND SWAP1 POP DUP4 JUMP JUMPDEST PUSH1 0x5 SLOAD DUP2 JUMP JUMPDEST PUSH1 0x6 SLOAD DUP2 JUMP JUMPDEST PUSH1 0x60 PUSH1 0x3 PUSH1 0x0 DUP4 PUSH20 0xFFFFFFFFFFFFFFFFFFFFFFFFFFFFFFFFFFFFFFFF AND PUSH20 0xFFFFFFFFFFFFFFFFFFFFFFFFFFFFFFFFFFFFFFFF AND DUP2 MSTORE PUSH1 0x20 ADD SWAP1 DUP2 MSTORE PUSH1 0x20 ADD PUSH1 0x0 KECCAK256 PUSH1 0x0 ADD DUP1 SLOAD PUSH2 0x106F SWAP1 PUSH2 0x1CB2 JUMP JUMPDEST DUP1 PUSH1 0x1F ADD PUSH1 0x20 DUP1 SWAP2 DIV MUL PUSH1 0x20 ADD PUSH1 0x40 MLOAD SWAP1 DUP2 ADD PUSH1 0x40 MSTORE DUP1 SWAP3 SWAP2 SWAP1 DUP2 DUP2 MSTORE PUSH1 0x20 ADD DUP3 DUP1 SLOAD PUSH2 0x109B SWAP1 PUSH2 0x1CB2 JUMP JUMPDEST DUP1 ISZERO PUSH2 0x10E8 JUMPI DUP1 PUSH1 0x1F LT PUSH2 0x10BD JUMPI PUSH2 0x100 DUP1 DUP4 SLOAD DIV MUL DUP4 MSTORE SWAP2 PUSH1 0x20 ADD SWAP2 PUSH2 0x10E8 JUMP JUMPDEST DUP3 ADD SWAP2 SWAP1 PUSH1 0x0 MSTORE PUSH1 0x20 PUSH1 0x0 KECCAK256 SWAP1 JUMPDEST DUP2 SLOAD DUP2 MSTORE SWAP1 PUSH1 0x1 ADD SWAP1 PUSH1 0x20 ADD DUP1 DUP4 GT PUSH2 0x10CB JUMPI DUP3 SWAP1 SUB PUSH1 0x1F AND DUP3 ADD SWAP2 JUMPDEST POP POP POP POP POP SWAP1 POP SWAP2 SWAP1 POP JUMP JUMPDEST PUSH1 0x0 PUSH1 0x1 PUSH1 0x0 SWAP1 SLOAD SWAP1 PUSH2 0x100 EXP SWAP1 DIV PUSH20 0xFFFFFFFFFFFFFFFFFFFFFFFFFFFFFFFFFFFFFFFF AND PUSH20 0xFFFFFFFFFFFFFFFFFFFFFFFFFFFFFFFFFFFFFFFF AND PUSH4 0xB88C9148 PUSH1 0x2 PUSH1 0x0 SWAP1 SLOAD SWAP1 PUSH2 0x100 EXP SWAP1 DIV PUSH20 0xFFFFFFFFFFFFFFFFFFFFFFFFFFFFFFFFFFFFFFFF AND PUSH1 0x40 MLOAD DUP3 PUSH4 0xFFFFFFFF AND PUSH1 0xE0 SHL DUP2 MSTORE PUSH1 0x4 ADD PUSH2 0x1173 SWAP2 SWAP1 PUSH2 0x1425 JUMP JUMPDEST PUSH1 0x20 PUSH1 0x40 MLOAD DUP1 DUP4 SUB DUP2 DUP7 GAS STATICCALL ISZERO DUP1 ISZERO PUSH2 0x1190 JUMPI RETURNDATASIZE PUSH1 0x0 DUP1 RETURNDATACOPY RETURNDATASIZE PUSH1 0x0 REVERT JUMPDEST POP POP POP POP PUSH1 0x40 MLOAD RETURNDATASIZE PUSH1 0x1F NOT PUSH1 0x1F DUP3 ADD AND DUP3 ADD DUP1 PUSH1 0x40 MSTORE POP DUP2 ADD SWAP1 PUSH2 0x11B4 SWAP2 SWAP1 PUSH2 0x2321 JUMP JUMPDEST PUSH16 0xFFFFFFFFFFFFFFFFFFFFFFFFFFFFFFFF AND SWAP1 POP PUSH1 0x1 PUSH1 0x0 SWAP1 SLOAD SWAP1 PUSH2 0x100 EXP SWAP1 DIV PUSH20 0xFFFFFFFFFFFFFFFFFFFFFFFFFFFFFFFFFFFFFFFF AND PUSH20 0xFFFFFFFFFFFFFFFFFFFFFFFFFFFFFFFFFFFFFFFF AND PUSH4 0x19CB825F DUP3 PUSH1 0x2 PUSH1 0x0 SWAP1 SLOAD SWAP1 PUSH2 0x100 EXP SWAP1 DIV PUSH20 0xFFFFFFFFFFFFFFFFFFFFFFFFFFFFFFFFFFFFFFFF AND PUSH1 0x0 DUP1 SHL PUSH1 0x40 MLOAD DUP5 PUSH4 0xFFFFFFFF AND PUSH1 0xE0 SHL DUP2 MSTORE PUSH1 0x4 ADD PUSH2 0x124B SWAP3 SWAP2 SWAP1 PUSH2 0x235D JUMP JUMPDEST PUSH1 0x20 PUSH1 0x40 MLOAD DUP1 DUP4 SUB DUP2 DUP6 DUP9 GAS CALL ISZERO DUP1 ISZERO PUSH2 0x1269 JUMPI RETURNDATASIZE PUSH1 0x0 DUP1 RETURNDATACOPY RETURNDATASIZE PUSH1 0x0 REVERT JUMPDEST POP POP POP POP POP PUSH1 0x40 MLOAD RETURNDATASIZE PUSH1 0x1F NOT PUSH1 0x1F DUP3 ADD AND DUP3 ADD DUP1 PUSH1 0x40 MSTORE POP DUP2 ADD SWAP1 PUSH2 0x128E SWAP2 SWAP1 PUSH2 0x239B JUMP JUMPDEST POP POP JUMP JUMPDEST PUSH1 0x0 PUSH1 0x1 PUSH1 0x0 SWAP1 SLOAD SWAP1 PUSH2 0x100 EXP SWAP1 DIV PUSH20 0xFFFFFFFFFFFFFFFFFFFFFFFFFFFFFFFFFFFFFFFF AND SWAP1 POP SWAP1 JUMP JUMPDEST PUSH1 0x0 PUSH1 0x78 SWAP1 POP PUSH1 0x0 PUSH1 0xB4 SWAP1 POP PUSH1 0x0 PUSH1 0x1 DUP4 DUP4 PUSH2 0x12D8 SWAP2 SWAP1 PUSH2 0x22A5 JUMP JUMPDEST PUSH2 0x12E2 SWAP2 SWAP1 PUSH2 0x23C8 JUMP JUMPDEST DUP5 PUSH1 0x0 SHR PUSH2 0x12F0 SWAP2 SWAP1 PUSH2 0x242B JUMP JUMPDEST DUP4 PUSH2 0x12FB SWAP2 SWAP1 PUSH2 0x23C8 JUMP JUMPDEST SWAP1 POP DUP1 TIMESTAMP PUSH2 0x1309 SWAP2 SWAP1 PUSH2 0x23C8 JUMP JUMPDEST PUSH1 0x6 DUP2 SWAP1 SSTORE POP PUSH32 0xDFB9C4AC29D58733D65DCFFF028A467AFFD8E0E5E69C829E1ACDE92ADE8975D2 PUSH1 0x6 SLOAD PUSH1 0x40 MLOAD PUSH2 0x1340 SWAP2 SWAP1 PUSH2 0x1BDB JUMP JUMPDEST PUSH1 0x40 MLOAD DUP1 SWAP2 SUB SWAP1 LOG1 POP POP POP POP POP POP JUMP JUMPDEST DUP3 DUP1 SLOAD DUP3 DUP3 SSTORE SWAP1 PUSH1 0x0 MSTORE PUSH1 0x20 PUSH1 0x0 KECCAK256 SWAP1 DUP2 ADD SWAP3 DUP3 ISZERO PUSH2 0x138C JUMPI SWAP2 PUSH1 0x20 MUL DUP3 ADD JUMPDEST DUP3 DUP2 GT ISZERO PUSH2 0x138B JUMPI DUP3 MLOAD DUP3 SSTORE SWAP2 PUSH1 0x20 ADD SWAP2 SWAP1 PUSH1 0x1 ADD SWAP1 PUSH2 0x1370 JUMP JUMPDEST JUMPDEST POP SWAP1 POP PUSH2 0x1399 SWAP2 SWAP1 PUSH2 0x13C7 JUMP JUMPDEST POP SWAP1 JUMP JUMPDEST PUSH1 0x40 MLOAD DUP1 PUSH1 0x80 ADD PUSH1 0x40 MSTORE DUP1 PUSH1 0x60 DUP2 MSTORE PUSH1 0x20 ADD PUSH1 0x0 DUP2 MSTORE PUSH1 0x20 ADD PUSH1 0x60 DUP2 MSTORE PUSH1 0x20 ADD PUSH1 0x0 ISZERO ISZERO DUP2 MSTORE POP SWAP1 JUMP JUMPDEST JUMPDEST DUP1 DUP3 GT ISZERO PUSH2 0x13E0 JUMPI PUSH1 0x0 DUP2 PUSH1 0x0 SWAP1 SSTORE POP PUSH1 0x1 ADD PUSH2 0x13C8 JUMP JUMPDEST POP SWAP1 JUMP JUMPDEST PUSH1 0x0 PUSH20 0xFFFFFFFFFFFFFFFFFFFFFFFFFFFFFFFFFFFFFFFF DUP3 AND SWAP1 POP SWAP2 SWAP1 POP JUMP JUMPDEST PUSH1 0x0 PUSH2 0x140F DUP3 PUSH2 0x13E4 JUMP JUMPDEST SWAP1 POP SWAP2 SWAP1 POP JUMP JUMPDEST PUSH2 0x141F DUP2 PUSH2 0x1404 JUMP JUMPDEST DUP3 MSTORE POP POP JUMP JUMPDEST PUSH1 0x0 PUSH1 0x20 DUP3 ADD SWAP1 POP PUSH2 0x143A PUSH1 0x0 DUP4 ADD DUP5 PUSH2 0x1416 JUMP JUMPDEST SWAP3 SWAP2 POP POP JUMP JUMPDEST PUSH1 0x0 PUSH1 0x40 MLOAD SWAP1 POP SWAP1 JUMP JUMPDEST PUSH1 0x0 DUP1 REVERT JUMPDEST PUSH1 0x0 DUP1 REVERT JUMPDEST PUSH1 0x0 DUP2 SWAP1 POP SWAP2 SWAP1 POP JUMP JUMPDEST PUSH2 0x1467 DUP2 PUSH2 0x1454 JUMP JUMPDEST DUP2 EQ PUSH2 0x1472 JUMPI PUSH1 0x0 DUP1 REVERT JUMPDEST POP JUMP JUMPDEST PUSH1 0x0 DUP2 CALLDATALOAD SWAP1 POP PUSH2 0x1484 DUP2 PUSH2 0x145E JUMP JUMPDEST SWAP3 SWAP2 POP POP JUMP JUMPDEST PUSH1 0x0 PUSH1 0x20 DUP3 DUP5 SUB SLT ISZERO PUSH2 0x14A0 JUMPI PUSH2 0x149F PUSH2 0x144A JUMP JUMPDEST JUMPDEST PUSH1 0x0 PUSH2 0x14AE DUP5 DUP3 DUP6 ADD PUSH2 0x1475 JUMP JUMPDEST SWAP2 POP POP SWAP3 SWAP2 POP POP JUMP JUMPDEST PUSH1 0x0 DUP2 MLOAD SWAP1 POP SWAP2 SWAP1 POP JUMP JUMPDEST PUSH1 0x0 DUP3 DUP3 MSTORE PUSH1 0x20 DUP3 ADD SWAP1 POP SWAP3 SWAP2 POP POP JUMP JUMPDEST PUSH1 0x0 JUMPDEST DUP4 DUP2 LT ISZERO PUSH2 0x14F1 JUMPI DUP1 DUP3 ADD MLOAD DUP2 DUP5 ADD MSTORE PUSH1 0x20 DUP2 ADD SWAP1 POP PUSH2 0x14D6 JUMP JUMPDEST PUSH1 0x0 DUP5 DUP5 ADD MSTORE POP POP POP POP JUMP JUMPDEST PUSH1 0x0 PUSH1 0x1F NOT PUSH1 0x1F DUP4 ADD AND SWAP1 POP SWAP2 SWAP1 POP JUMP JUMPDEST PUSH1 0x0 PUSH2 0x1519 DUP3 PUSH2 0x14B7 JUMP JUMPDEST PUSH2 0x1523 DUP2 DUP6 PUSH2 0x14C2 JUMP JUMPDEST SWAP4 POP PUSH2 0x1533 DUP2 DUP6 PUSH1 0x20 DUP7 ADD PUSH2 0x14D3 JUMP JUMPDEST PUSH2 0x153C DUP2 PUSH2 0x14FD JUMP JUMPDEST DUP5 ADD SWAP2 POP POP SWAP3 SWAP2 POP POP JUMP JUMPDEST PUSH2 0x1550 DUP2 PUSH2 0x1454 JUMP JUMPDEST DUP3 MSTORE POP POP JUMP JUMPDEST PUSH1 0x0 PUSH1 0x80 DUP3 ADD SWAP1 POP PUSH2 0x156B PUSH1 0x0 DUP4 ADD DUP8 PUSH2 0x1416 JUMP JUMPDEST DUP2 DUP2 SUB PUSH1 0x20 DUP4 ADD MSTORE PUSH2 0x157D DUP2 DUP7 PUSH2 0x150E JUMP JUMPDEST SWAP1 POP PUSH2 0x158C PUSH1 0x40 DUP4 ADD DUP6 PUSH2 0x1547 JUMP JUMPDEST PUSH2 0x1599 PUSH1 0x60 DUP4 ADD DUP5 PUSH2 0x1547 JUMP JUMPDEST SWAP6 SWAP5 POP POP POP POP POP JUMP JUMPDEST PUSH1 0x0 DUP1 REVERT JUMPDEST PUSH1 0x0 DUP1 REVERT JUMPDEST PUSH32 0x4E487B7100000000000000000000000000000000000000000000000000000000 PUSH1 0x0 MSTORE PUSH1 0x41 PUSH1 0x4 MSTORE PUSH1 0x24 PUSH1 0x0 REVERT JUMPDEST PUSH2 0x15E4 DUP3 PUSH2 0x14FD JUMP JUMPDEST DUP2 ADD DUP2 DUP2 LT PUSH8 0xFFFFFFFFFFFFFFFF DUP3 GT OR ISZERO PUSH2 0x1603 JUMPI PUSH2 0x1602 PUSH2 0x15AC JUMP JUMPDEST JUMPDEST DUP1 PUSH1 0x40 MSTORE POP POP POP JUMP JUMPDEST PUSH1 0x0 PUSH2 0x1616 PUSH2 0x1440 JUMP JUMPDEST SWAP1 POP PUSH2 0x1622 DUP3 DUP3 PUSH2 0x15DB JUMP JUMPDEST SWAP2 SWAP1 POP JUMP JUMPDEST PUSH1 0x0 PUSH8 0xFFFFFFFFFFFFFFFF DUP3 GT ISZERO PUSH2 0x1642 JUMPI PUSH2 0x1641 PUSH2 0x15AC JUMP JUMPDEST JUMPDEST PUSH2 0x164B DUP3 PUSH2 0x14FD JUMP JUMPDEST SWAP1 POP PUSH1 0x20 DUP2 ADD SWAP1 POP SWAP2 SWAP1 POP JUMP JUMPDEST DUP3 DUP2 DUP4 CALLDATACOPY PUSH1 0x0 DUP4 DUP4 ADD MSTORE POP POP POP JUMP JUMPDEST PUSH1 0x0 PUSH2 0x167A PUSH2 0x1675 DUP5 PUSH2 0x1627 JUMP JUMPDEST PUSH2 0x160C JUMP JUMPDEST SWAP1 POP DUP3 DUP2 MSTORE PUSH1 0x20 DUP2 ADD DUP5 DUP5 DUP5 ADD GT ISZERO PUSH2 0x1696 JUMPI PUSH2 0x1695 PUSH2 0x15A7 JUMP JUMPDEST JUMPDEST PUSH2 0x16A1 DUP5 DUP3 DUP6 PUSH2 0x1658 JUMP JUMPDEST POP SWAP4 SWAP3 POP POP POP JUMP JUMPDEST PUSH1 0x0 DUP3 PUSH1 0x1F DUP4 ADD SLT PUSH2 0x16BE JUMPI PUSH2 0x16BD PUSH2 0x15A2 JUMP JUMPDEST JUMPDEST DUP2 CALLDATALOAD PUSH2 0x16CE DUP5 DUP3 PUSH1 0x20 DUP7 ADD PUSH2 0x1667 JUMP JUMPDEST SWAP2 POP POP SWAP3 SWAP2 POP POP JUMP JUMPDEST PUSH2 0x16E0 DUP2 PUSH2 0x1404 JUMP JUMPDEST DUP2 EQ PUSH2 0x16EB JUMPI PUSH1 0x0 DUP1 REVERT JUMPDEST POP JUMP JUMPDEST PUSH1 0x0 DUP2 CALLDATALOAD SWAP1 POP PUSH2 0x16FD DUP2 PUSH2 0x16D7 JUMP JUMPDEST SWAP3 SWAP2 POP POP JUMP JUMPDEST PUSH1 0x0 DUP1 PUSH1 0x40 DUP4 DUP6 SUB SLT ISZERO PUSH2 0x171A JUMPI PUSH2 0x1719 PUSH2 0x144A JUMP JUMPDEST JUMPDEST PUSH1 0x0 DUP4 ADD CALLDATALOAD PUSH8 0xFFFFFFFFFFFFFFFF DUP2 GT ISZERO PUSH2 0x1738 JUMPI PUSH2 0x1737 PUSH2 0x144F JUMP JUMPDEST JUMPDEST PUSH2 0x1744 DUP6 DUP3 DUP7 ADD PUSH2 0x16A9 JUMP JUMPDEST SWAP3 POP POP PUSH1 0x20 PUSH2 0x1755 DUP6 DUP3 DUP7 ADD PUSH2 0x16EE JUMP JUMPDEST SWAP2 POP POP SWAP3 POP SWAP3 SWAP1 POP JUMP JUMPDEST PUSH1 0x0 PUSH1 0x20 DUP3 DUP5 SUB SLT ISZERO PUSH2 0x1775 JUMPI PUSH2 0x1774 PUSH2 0x144A JUMP JUMPDEST JUMPDEST PUSH1 0x0 DUP3 ADD CALLDATALOAD PUSH8 0xFFFFFFFFFFFFFFFF DUP2 GT ISZERO PUSH2 0x1793 JUMPI PUSH2 0x1792 PUSH2 0x144F JUMP JUMPDEST JUMPDEST PUSH2 0x179F DUP5 DUP3 DUP6 ADD PUSH2 0x16A9 JUMP JUMPDEST SWAP2 POP POP SWAP3 SWAP2 POP POP JUMP JUMPDEST PUSH1 0x0 DUP1 REVERT JUMPDEST PUSH1 0x0 DUP1 REVERT JUMPDEST PUSH1 0x0 DUP1 DUP4 PUSH1 0x1F DUP5 ADD SLT PUSH2 0x17C8 JUMPI PUSH2 0x17C7 PUSH2 0x15A2 JUMP JUMPDEST JUMPDEST DUP3 CALLDATALOAD SWAP1 POP PUSH8 0xFFFFFFFFFFFFFFFF DUP2 GT ISZERO PUSH2 0x17E5 JUMPI PUSH2 0x17E4 PUSH2 0x17A8 JUMP JUMPDEST JUMPDEST PUSH1 0x20 DUP4 ADD SWAP2 POP DUP4 PUSH1 0x1 DUP3 MUL DUP4 ADD GT ISZERO PUSH2 0x1801 JUMPI PUSH2 0x1800 PUSH2 0x17AD JUMP JUMPDEST JUMPDEST SWAP3 POP SWAP3 SWAP1 POP JUMP JUMPDEST PUSH1 0x0 DUP1 PUSH1 0x20 DUP4 DUP6 SUB SLT ISZERO PUSH2 0x181F JUMPI PUSH2 0x181E PUSH2 0x144A JUMP JUMPDEST JUMPDEST PUSH1 0x0 DUP4 ADD CALLDATALOAD PUSH8 0xFFFFFFFFFFFFFFFF DUP2 GT ISZERO PUSH2 0x183D JUMPI PUSH2 0x183C PUSH2 0x144F JUMP JUMPDEST JUMPDEST PUSH2 0x1849 DUP6 DUP3 DUP7 ADD PUSH2 0x17B2 JUMP JUMPDEST SWAP3 POP SWAP3 POP POP SWAP3 POP SWAP3 SWAP1 POP JUMP JUMPDEST PUSH1 0x0 DUP2 SWAP1 POP SWAP2 SWAP1 POP JUMP JUMPDEST PUSH1 0x0 PUSH2 0x187A PUSH2 0x1875 PUSH2 0x1870 DUP5 PUSH2 0x13E4 JUMP JUMPDEST PUSH2 0x1855 JUMP JUMPDEST PUSH2 0x13E4 JUMP JUMPDEST SWAP1 POP SWAP2 SWAP1 POP JUMP JUMPDEST PUSH1 0x0 PUSH2 0x188C DUP3 PUSH2 0x185F JUMP JUMPDEST SWAP1 POP SWAP2 SWAP1 POP JUMP JUMPDEST PUSH1 0x0 PUSH2 0x189E DUP3 PUSH2 0x1881 JUMP JUMPDEST SWAP1 POP SWAP2 SWAP1 POP JUMP JUMPDEST PUSH2 0x18AE DUP2 PUSH2 0x1893 JUMP JUMPDEST DUP3 MSTORE POP POP JUMP JUMPDEST PUSH1 0x0 PUSH1 0x20 DUP3 ADD SWAP1 POP PUSH2 0x18C9 PUSH1 0x0 DUP4 ADD DUP5 PUSH2 0x18A5 JUMP JUMPDEST SWAP3 SWAP2 POP POP JUMP JUMPDEST PUSH1 0x0 PUSH8 0xFFFFFFFFFFFFFFFF DUP3 AND SWAP1 POP SWAP2 SWAP1 POP JUMP JUMPDEST PUSH2 0x18EC DUP2 PUSH2 0x18CF JUMP JUMPDEST DUP2 EQ PUSH2 0x18F7 JUMPI PUSH1 0x0 DUP1 REVERT JUMPDEST POP JUMP JUMPDEST PUSH1 0x0 DUP2 CALLDATALOAD SWAP1 POP PUSH2 0x1909 DUP2 PUSH2 0x18E3 JUMP JUMPDEST SWAP3 SWAP2 POP POP JUMP JUMPDEST PUSH1 0x0 DUP2 SWAP1 POP SWAP2 SWAP1 POP JUMP JUMPDEST PUSH2 0x1922 DUP2 PUSH2 0x190F JUMP JUMPDEST DUP2 EQ PUSH2 0x192D JUMPI PUSH1 0x0 DUP1 REVERT JUMPDEST POP JUMP JUMPDEST PUSH1 0x0 DUP2 CALLDATALOAD SWAP1 POP PUSH2 0x193F DUP2 PUSH2 0x1919 JUMP JUMPDEST SWAP3 SWAP2 POP POP JUMP JUMPDEST PUSH1 0x0 DUP1 PUSH1 0x0 PUSH1 0x60 DUP5 DUP7 SUB SLT ISZERO PUSH2 0x195E JUMPI PUSH2 0x195D PUSH2 0x144A JUMP JUMPDEST JUMPDEST PUSH1 0x0 PUSH2 0x196C DUP7 DUP3 DUP8 ADD PUSH2 0x18FA JUMP JUMPDEST SWAP4 POP POP PUSH1 0x20 PUSH2 0x197D DUP7 DUP3 DUP8 ADD PUSH2 0x16EE JUMP JUMPDEST SWAP3 POP POP PUSH1 0x40 PUSH2 0x198E DUP7 DUP3 DUP8 ADD PUSH2 0x1930 JUMP JUMPDEST SWAP2 POP POP SWAP3 POP SWAP3 POP SWAP3 JUMP JUMPDEST PUSH1 0x0 DUP2 ISZERO ISZERO SWAP1 POP SWAP2 SWAP1 POP JUMP JUMPDEST PUSH2 0x19AD DUP2 PUSH2 0x1998 JUMP JUMPDEST DUP3 MSTORE POP POP JUMP JUMPDEST PUSH1 0x0 DUP2 MLOAD SWAP1 POP SWAP2 SWAP1 POP JUMP JUMPDEST PUSH1 0x0 DUP3 DUP3 MSTORE PUSH1 0x20 DUP3 ADD SWAP1 POP SWAP3 SWAP2 POP POP JUMP JUMPDEST PUSH1 0x0 PUSH2 0x19DA DUP3 PUSH2 0x19B3 JUMP JUMPDEST PUSH2 0x19E4 DUP2 DUP6 PUSH2 0x19BE JUMP JUMPDEST SWAP4 POP PUSH2 0x19F4 DUP2 DUP6 PUSH1 0x20 DUP7 ADD PUSH2 0x14D3 JUMP JUMPDEST PUSH2 0x19FD DUP2 PUSH2 0x14FD JUMP JUMPDEST DUP5 ADD SWAP2 POP POP SWAP3 SWAP2 POP POP JUMP JUMPDEST PUSH1 0x0 PUSH1 0x40 DUP3 ADD SWAP1 POP PUSH2 0x1A1D PUSH1 0x0 DUP4 ADD DUP6 PUSH2 0x19A4 JUMP JUMPDEST DUP2 DUP2 SUB PUSH1 0x20 DUP4 ADD MSTORE PUSH2 0x1A2F DUP2 DUP5 PUSH2 0x19CF JUMP JUMPDEST SWAP1 POP SWAP4 SWAP3 POP POP POP JUMP JUMPDEST PUSH1 0x0 DUP3 DUP3 MSTORE PUSH1 0x20 DUP3 ADD SWAP1 POP SWAP3 SWAP2 POP POP JUMP JUMPDEST PUSH1 0x0 PUSH2 0x1A54 DUP3 PUSH2 0x14B7 JUMP JUMPDEST PUSH2 0x1A5E DUP2 DUP6 PUSH2 0x1A38 JUMP JUMPDEST SWAP4 POP PUSH2 0x1A6E DUP2 DUP6 PUSH1 0x20 DUP7 ADD PUSH2 0x14D3 JUMP JUMPDEST PUSH2 0x1A77 DUP2 PUSH2 0x14FD JUMP JUMPDEST DUP5 ADD SWAP2 POP POP SWAP3 SWAP2 POP POP JUMP JUMPDEST PUSH2 0x1A8B DUP2 PUSH2 0x1454 JUMP JUMPDEST DUP3 MSTORE POP POP JUMP JUMPDEST PUSH1 0x0 DUP2 MLOAD SWAP1 POP SWAP2 SWAP1 POP JUMP JUMPDEST PUSH1 0x0 DUP3 DUP3 MSTORE PUSH1 0x20 DUP3 ADD SWAP1 POP SWAP3 SWAP2 POP POP JUMP JUMPDEST PUSH1 0x0 DUP2 SWAP1 POP PUSH1 0x20 DUP3 ADD SWAP1 POP SWAP2 SWAP1 POP JUMP JUMPDEST PUSH1 0x0 PUSH2 0x1AC9 DUP4 DUP4 PUSH2 0x1A82 JUMP JUMPDEST PUSH1 0x20 DUP4 ADD SWAP1 POP SWAP3 SWAP2 POP POP JUMP JUMPDEST PUSH1 0x0 PUSH1 0x20 DUP3 ADD SWAP1 POP SWAP2 SWAP1 POP JUMP JUMPDEST PUSH1 0x0 PUSH2 0x1AED DUP3 PUSH2 0x1A91 JUMP JUMPDEST PUSH2 0x1AF7 DUP2 DUP6 PUSH2 0x1A9C JUMP JUMPDEST SWAP4 POP PUSH2 0x1B02 DUP4 PUSH2 0x1AAD JUMP JUMPDEST DUP1 PUSH1 0x0 JUMPDEST DUP4 DUP2 LT ISZERO PUSH2 0x1B33 JUMPI DUP2 MLOAD PUSH2 0x1B1A DUP9 DUP3 PUSH2 0x1ABD JUMP JUMPDEST SWAP8 POP PUSH2 0x1B25 DUP4 PUSH2 0x1AD5 JUMP JUMPDEST SWAP3 POP POP PUSH1 0x1 DUP2 ADD SWAP1 POP PUSH2 0x1B06 JUMP JUMPDEST POP DUP6 SWAP4 POP POP POP POP SWAP3 SWAP2 POP POP JUMP JUMPDEST PUSH2 0x1B49 DUP2 PUSH2 0x1998 JUMP JUMPDEST DUP3 MSTORE POP POP JUMP JUMPDEST PUSH1 0x0 PUSH1 0x80 DUP4 ADD PUSH1 0x0 DUP4 ADD MLOAD DUP5 DUP3 SUB PUSH1 0x0 DUP7 ADD MSTORE PUSH2 0x1B6C DUP3 DUP3 PUSH2 0x1A49 JUMP JUMPDEST SWAP2 POP POP PUSH1 0x20 DUP4 ADD MLOAD PUSH2 0x1B81 PUSH1 0x20 DUP7 ADD DUP3 PUSH2 0x1A82 JUMP JUMPDEST POP PUSH1 0x40 DUP4 ADD MLOAD DUP5 DUP3 SUB PUSH1 0x40 DUP7 ADD MSTORE PUSH2 0x1B99 DUP3 DUP3 PUSH2 0x1AE2 JUMP JUMPDEST SWAP2 POP POP PUSH1 0x60 DUP4 ADD MLOAD PUSH2 0x1BAE PUSH1 0x60 DUP7 ADD DUP3 PUSH2 0x1B40 JUMP JUMPDEST POP DUP1 SWAP2 POP POP SWAP3 SWAP2 POP POP JUMP JUMPDEST PUSH1 0x0 PUSH1 0x20 DUP3 ADD SWAP1 POP DUP2 DUP2 SUB PUSH1 0x0 DUP4 ADD MSTORE PUSH2 0x1BD3 DUP2 DUP5 PUSH2 0x1B4F JUMP JUMPDEST SWAP1 POP SWAP3 SWAP2 POP POP JUMP JUMPDEST PUSH1 0x0 PUSH1 0x20 DUP3 ADD SWAP1 POP PUSH2 0x1BF0 PUSH1 0x0 DUP4 ADD DUP5 PUSH2 0x1547 JUMP JUMPDEST SWAP3 SWAP2 POP POP JUMP JUMPDEST PUSH1 0x0 PUSH1 0x20 DUP3 DUP5 SUB SLT ISZERO PUSH2 0x1C0C JUMPI PUSH2 0x1C0B PUSH2 0x144A JUMP JUMPDEST JUMPDEST PUSH1 0x0 PUSH2 0x1C1A DUP5 DUP3 DUP6 ADD PUSH2 0x16EE JUMP JUMPDEST SWAP2 POP POP SWAP3 SWAP2 POP POP JUMP JUMPDEST PUSH1 0x0 PUSH1 0x60 DUP3 ADD SWAP1 POP DUP2 DUP2 SUB PUSH1 0x0 DUP4 ADD MSTORE PUSH2 0x1C3D DUP2 DUP7 PUSH2 0x150E JUMP JUMPDEST SWAP1 POP PUSH2 0x1C4C PUSH1 0x20 DUP4 ADD DUP6 PUSH2 0x1547 JUMP JUMPDEST PUSH2 0x1C59 PUSH1 0x40 DUP4 ADD DUP5 PUSH2 0x19A4 JUMP JUMPDEST SWAP5 SWAP4 POP POP POP POP JUMP JUMPDEST PUSH1 0x0 PUSH1 0x20 DUP3 ADD SWAP1 POP DUP2 DUP2 SUB PUSH1 0x0 DUP4 ADD MSTORE PUSH2 0x1C7B DUP2 DUP5 PUSH2 0x150E JUMP JUMPDEST SWAP1 POP SWAP3 SWAP2 POP POP JUMP JUMPDEST PUSH32 0x4E487B7100000000000000000000000000000000000000000000000000000000 PUSH1 0x0 MSTORE PUSH1 0x22 PUSH1 0x4 MSTORE PUSH1 0x24 PUSH1 0x0 REVERT JUMPDEST PUSH1 0x0 PUSH1 0x2 DUP3 DIV SWAP1 POP PUSH1 0x1 DUP3 AND DUP1 PUSH2 0x1CCA JUMPI PUSH1 0x7F DUP3 AND SWAP2 POP JUMPDEST PUSH1 0x20 DUP3 LT DUP2 SUB PUSH2 0x1CDD JUMPI PUSH2 0x1CDC PUSH2 0x1C83 JUMP JUMPDEST JUMPDEST POP SWAP2 SWAP1 POP JUMP JUMPDEST PUSH32 0x5573657220616C72656164792065786973747300000000000000000000000000 PUSH1 0x0 DUP3 ADD MSTORE POP JUMP JUMPDEST PUSH1 0x0 PUSH2 0x1D19 PUSH1 0x13 DUP4 PUSH2 0x14C2 JUMP JUMPDEST SWAP2 POP PUSH2 0x1D24 DUP3 PUSH2 0x1CE3 JUMP JUMPDEST PUSH1 0x20 DUP3 ADD SWAP1 POP SWAP2 SWAP1 POP JUMP JUMPDEST PUSH1 0x0 PUSH1 0x20 DUP3 ADD SWAP1 POP DUP2 DUP2 SUB PUSH1 0x0 DUP4 ADD MSTORE PUSH2 0x1D48 DUP2 PUSH2 0x1D0C JUMP JUMPDEST SWAP1 POP SWAP2 SWAP1 POP JUMP JUMPDEST PUSH1 0x0 DUP2 SWAP1 POP DUP2 PUSH1 0x0 MSTORE PUSH1 0x20 PUSH1 0x0 KECCAK256 SWAP1 POP SWAP2 SWAP1 POP JUMP JUMPDEST PUSH1 0x0 PUSH1 0x20 PUSH1 0x1F DUP4 ADD DIV SWAP1 POP SWAP2 SWAP1 POP JUMP JUMPDEST PUSH1 0x0 DUP3 DUP3 SHL SWAP1 POP SWAP3 SWAP2 POP POP JUMP JUMPDEST PUSH1 0x0 PUSH1 0x8 DUP4 MUL PUSH2 0x1DB1 PUSH32 0xFFFFFFFFFFFFFFFFFFFFFFFFFFFFFFFFFFFFFFFFFFFFFFFFFFFFFFFFFFFFFFFF DUP3 PUSH2 0x1D74 JUMP JUMPDEST PUSH2 0x1DBB DUP7 DUP4 PUSH2 0x1D74 JUMP JUMPDEST SWAP6 POP DUP1 NOT DUP5 AND SWAP4 POP DUP1 DUP7 AND DUP5 OR SWAP3 POP POP POP SWAP4 SWAP3 POP POP POP JUMP JUMPDEST PUSH1 0x0 PUSH2 0x1DEE PUSH2 0x1DE9 PUSH2 0x1DE4 DUP5 PUSH2 0x1454 JUMP JUMPDEST PUSH2 0x1855 JUMP JUMPDEST PUSH2 0x1454 JUMP JUMPDEST SWAP1 POP SWAP2 SWAP1 POP JUMP JUMPDEST PUSH1 0x0 DUP2 SWAP1 POP SWAP2 SWAP1 POP JUMP JUMPDEST PUSH2 0x1E08 DUP4 PUSH2 0x1DD3 JUMP JUMPDEST PUSH2 0x1E1C PUSH2 0x1E14 DUP3 PUSH2 0x1DF5 JUMP JUMPDEST DUP5 DUP5 SLOAD PUSH2 0x1D81 JUMP JUMPDEST DUP3 SSTORE POP POP POP POP JUMP JUMPDEST PUSH1 0x0 SWAP1 JUMP JUMPDEST PUSH2 0x1E31 PUSH2 0x1E24 JUMP JUMPDEST PUSH2 0x1E3C DUP2 DUP5 DUP5 PUSH2 0x1DFF JUMP JUMPDEST POP POP POP JUMP JUMPDEST JUMPDEST DUP2 DUP2 LT ISZERO PUSH2 0x1E60 JUMPI PUSH2 0x1E55 PUSH1 0x0 DUP3 PUSH2 0x1E29 JUMP JUMPDEST PUSH1 0x1 DUP2 ADD SWAP1 POP PUSH2 0x1E42 JUMP JUMPDEST POP POP JUMP JUMPDEST PUSH1 0x1F DUP3 GT ISZERO PUSH2 0x1EA5 JUMPI PUSH2 0x1E76 DUP2 PUSH2 0x1D4F JUMP JUMPDEST PUSH2 0x1E7F DUP5 PUSH2 0x1D64 JUMP JUMPDEST DUP2 ADD PUSH1 0x20 DUP6 LT ISZERO PUSH2 0x1E8E JUMPI DUP2 SWAP1 POP JUMPDEST PUSH2 0x1EA2 PUSH2 0x1E9A DUP6 PUSH2 0x1D64 JUMP JUMPDEST DUP4 ADD DUP3 PUSH2 0x1E41 JUMP JUMPDEST POP POP JUMPDEST POP POP POP JUMP JUMPDEST PUSH1 0x0 DUP3 DUP3 SHR SWAP1 POP SWAP3 SWAP2 POP POP JUMP JUMPDEST PUSH1 0x0 PUSH2 0x1EC8 PUSH1 0x0 NOT DUP5 PUSH1 0x8 MUL PUSH2 0x1EAA JUMP JUMPDEST NOT DUP1 DUP4 AND SWAP2 POP POP SWAP3 SWAP2 POP POP JUMP JUMPDEST PUSH1 0x0 PUSH2 0x1EE1 DUP4 DUP4 PUSH2 0x1EB7 JUMP JUMPDEST SWAP2 POP DUP3 PUSH1 0x2 MUL DUP3 OR SWAP1 POP SWAP3 SWAP2 POP POP JUMP JUMPDEST PUSH2 0x1EFA DUP3 PUSH2 0x14B7 JUMP JUMPDEST PUSH8 0xFFFFFFFFFFFFFFFF DUP2 GT ISZERO PUSH2 0x1F13 JUMPI PUSH2 0x1F12 PUSH2 0x15AC JUMP JUMPDEST JUMPDEST PUSH2 0x1F1D DUP3 SLOAD PUSH2 0x1CB2 JUMP JUMPDEST PUSH2 0x1F28 DUP3 DUP3 DUP6 PUSH2 0x1E64 JUMP JUMPDEST PUSH1 0x0 PUSH1 0x20 SWAP1 POP PUSH1 0x1F DUP4 GT PUSH1 0x1 DUP2 EQ PUSH2 0x1F5B JUMPI PUSH1 0x0 DUP5 ISZERO PUSH2 0x1F49 JUMPI DUP3 DUP8 ADD MLOAD SWAP1 POP JUMPDEST PUSH2 0x1F53 DUP6 DUP3 PUSH2 0x1ED5 JUMP JUMPDEST DUP7 SSTORE POP PUSH2 0x1FBB JUMP JUMPDEST PUSH1 0x1F NOT DUP5 AND PUSH2 0x1F69 DUP7 PUSH2 0x1D4F JUMP JUMPDEST PUSH1 0x0 JUMPDEST DUP3 DUP2 LT ISZERO PUSH2 0x1F91 JUMPI DUP5 DUP10 ADD MLOAD DUP3 SSTORE PUSH1 0x1 DUP3 ADD SWAP2 POP PUSH1 0x20 DUP6 ADD SWAP5 POP PUSH1 0x20 DUP2 ADD SWAP1 POP PUSH2 0x1F6C JUMP JUMPDEST DUP7 DUP4 LT ISZERO PUSH2 0x1FAE JUMPI DUP5 DUP10 ADD MLOAD PUSH2 0x1FAA PUSH1 0x1F DUP10 AND DUP3 PUSH2 0x1EB7 JUMP JUMPDEST DUP4 SSTORE POP JUMPDEST PUSH1 0x1 PUSH1 0x2 DUP9 MUL ADD DUP9 SSTORE POP POP POP JUMPDEST POP POP POP POP POP POP JUMP JUMPDEST PUSH32 0x55736572206E6F74207265676973746572656400000000000000000000000000 PUSH1 0x0 DUP3 ADD MSTORE POP JUMP JUMPDEST PUSH1 0x0 PUSH2 0x1FF9 PUSH1 0x13 DUP4 PUSH2 0x14C2 JUMP JUMPDEST SWAP2 POP PUSH2 0x2004 DUP3 PUSH2 0x1FC3 JUMP JUMPDEST PUSH1 0x20 DUP3 ADD SWAP1 POP SWAP2 SWAP1 POP JUMP JUMPDEST PUSH1 0x0 PUSH1 0x20 DUP3 ADD SWAP1 POP DUP2 DUP2 SUB PUSH1 0x0 DUP4 ADD MSTORE PUSH2 0x2028 DUP2 PUSH2 0x1FEC JUMP JUMPDEST SWAP1 POP SWAP2 SWAP1 POP JUMP JUMPDEST PUSH32 0x4E487B7100000000000000000000000000000000000000000000000000000000 PUSH1 0x0 MSTORE PUSH1 0x11 PUSH1 0x4 MSTORE PUSH1 0x24 PUSH1 0x0 REVERT JUMPDEST PUSH1 0x0 PUSH2 0x2069 DUP3 PUSH2 0x1454 JUMP JUMPDEST SWAP2 POP PUSH32 0xFFFFFFFFFFFFFFFFFFFFFFFFFFFFFFFFFFFFFFFFFFFFFFFFFFFFFFFFFFFFFFFF DUP3 SUB PUSH2 0x209B JUMPI PUSH2 0x209A PUSH2 0x202F JUMP JUMPDEST JUMPDEST PUSH1 0x1 DUP3 ADD SWAP1 POP SWAP2 SWAP1 POP JUMP JUMPDEST PUSH1 0x0 PUSH1 0x40 DUP3 ADD SWAP1 POP PUSH2 0x20BB PUSH1 0x0 DUP4 ADD DUP6 PUSH2 0x1416 JUMP JUMPDEST PUSH2 0x20C8 PUSH1 0x20 DUP4 ADD DUP5 PUSH2 0x1547 JUMP JUMPDEST SWAP4 SWAP3 POP POP POP JUMP JUMPDEST PUSH32 0x456E74726F70792061646472657373206E6F7420736574000000000000000000 PUSH1 0x0 DUP3 ADD MSTORE POP JUMP JUMPDEST PUSH1 0x0 PUSH2 0x2105 PUSH1 0x17 DUP4 PUSH2 0x14C2 JUMP JUMPDEST SWAP2 POP PUSH2 0x2110 DUP3 PUSH2 0x20CF JUMP JUMPDEST PUSH1 0x20 DUP3 ADD SWAP1 POP SWAP2 SWAP1 POP JUMP JUMPDEST PUSH1 0x0 PUSH1 0x20 DUP3 ADD SWAP1 POP DUP2 DUP2 SUB PUSH1 0x0 DUP4 ADD MSTORE PUSH2 0x2134 DUP2 PUSH2 0x20F8 JUMP JUMPDEST SWAP1 POP SWAP2 SWAP1 POP JUMP JUMPDEST PUSH32 0x4F6E6C7920456E74726F70792063616E2063616C6C20746869732066756E6374 PUSH1 0x0 DUP3 ADD MSTORE PUSH32 0x696F6E0000000000000000000000000000000000000000000000000000000000 PUSH1 0x20 DUP3 ADD MSTORE POP JUMP JUMPDEST PUSH1 0x0 PUSH2 0x2197 PUSH1 0x23 DUP4 PUSH2 0x14C2 JUMP JUMPDEST SWAP2 POP PUSH2 0x21A2 DUP3 PUSH2 0x213B JUMP JUMPDEST PUSH1 0x40 DUP3 ADD SWAP1 POP SWAP2 SWAP1 POP JUMP JUMPDEST PUSH1 0x0 PUSH1 0x20 DUP3 ADD SWAP1 POP DUP2 DUP2 SUB PUSH1 0x0 DUP4 ADD MSTORE PUSH2 0x21C6 DUP2 PUSH2 0x218A JUMP JUMPDEST SWAP1 POP SWAP2 SWAP1 POP JUMP JUMPDEST PUSH32 0x496E76616C696420696E746572616374696F6E20494400000000000000000000 PUSH1 0x0 DUP3 ADD MSTORE POP JUMP JUMPDEST PUSH1 0x0 PUSH2 0x2203 PUSH1 0x16 DUP4 PUSH2 0x14C2 JUMP JUMPDEST SWAP2 POP PUSH2 0x220E DUP3 PUSH2 0x21CD JUMP JUMPDEST PUSH1 0x20 DUP3 ADD SWAP1 POP SWAP2 SWAP1 POP JUMP JUMPDEST PUSH1 0x0 PUSH1 0x20 DUP3 ADD SWAP1 POP DUP2 DUP2 SUB PUSH1 0x0 DUP4 ADD MSTORE PUSH2 0x2232 DUP2 PUSH2 0x21F6 JUMP JUMPDEST SWAP1 POP SWAP2 SWAP1 POP JUMP JUMPDEST PUSH32 0x5573657220646F6573206E6F7420657869737400000000000000000000000000 PUSH1 0x0 DUP3 ADD MSTORE POP JUMP JUMPDEST PUSH1 0x0 PUSH2 0x226F PUSH1 0x13 DUP4 PUSH2 0x14C2 JUMP JUMPDEST SWAP2 POP PUSH2 0x227A DUP3 PUSH2 0x2239 JUMP JUMPDEST PUSH1 0x20 DUP3 ADD SWAP1 POP SWAP2 SWAP1 POP JUMP JUMPDEST PUSH1 0x0 PUSH1 0x20 DUP3 ADD SWAP1 POP DUP2 DUP2 SUB PUSH1 0x0 DUP4 ADD MSTORE PUSH2 0x229E DUP2 PUSH2 0x2262 JUMP JUMPDEST SWAP1 POP SWAP2 SWAP1 POP JUMP JUMPDEST PUSH1 0x0 PUSH2 0x22B0 DUP3 PUSH2 0x1454 JUMP JUMPDEST SWAP2 POP PUSH2 0x22BB DUP4 PUSH2 0x1454 JUMP JUMPDEST SWAP3 POP DUP3 DUP3 SUB SWAP1 POP DUP2 DUP2 GT ISZERO PUSH2 0x22D3 JUMPI PUSH2 0x22D2 PUSH2 0x202F JUMP JUMPDEST JUMPDEST SWAP3 SWAP2 POP POP JUMP JUMPDEST PUSH1 0x0 PUSH16 0xFFFFFFFFFFFFFFFFFFFFFFFFFFFFFFFF DUP3 AND SWAP1 POP SWAP2 SWAP1 POP JUMP JUMPDEST PUSH2 0x22FE DUP2 PUSH2 0x22D9 JUMP JUMPDEST DUP2 EQ PUSH2 0x2309 JUMPI PUSH1 0x0 DUP1 REVERT JUMPDEST POP JUMP JUMPDEST PUSH1 0x0 DUP2 MLOAD SWAP1 POP PUSH2 0x231B DUP2 PUSH2 0x22F5 JUMP JUMPDEST SWAP3 SWAP2 POP POP JUMP JUMPDEST PUSH1 0x0 PUSH1 0x20 DUP3 DUP5 SUB SLT ISZERO PUSH2 0x2337 JUMPI PUSH2 0x2336 PUSH2 0x144A JUMP JUMPDEST JUMPDEST PUSH1 0x0 PUSH2 0x2345 DUP5 DUP3 DUP6 ADD PUSH2 0x230C JUMP JUMPDEST SWAP2 POP POP SWAP3 SWAP2 POP POP JUMP JUMPDEST PUSH2 0x2357 DUP2 PUSH2 0x190F JUMP JUMPDEST DUP3 MSTORE POP POP JUMP JUMPDEST PUSH1 0x0 PUSH1 0x40 DUP3 ADD SWAP1 POP PUSH2 0x2372 PUSH1 0x0 DUP4 ADD DUP6 PUSH2 0x1416 JUMP JUMPDEST PUSH2 0x237F PUSH1 0x20 DUP4 ADD DUP5 PUSH2 0x234E JUMP JUMPDEST SWAP4 SWAP3 POP POP POP JUMP JUMPDEST PUSH1 0x0 DUP2 MLOAD SWAP1 POP PUSH2 0x2395 DUP2 PUSH2 0x18E3 JUMP JUMPDEST SWAP3 SWAP2 POP POP JUMP JUMPDEST PUSH1 0x0 PUSH1 0x20 DUP3 DUP5 SUB SLT ISZERO PUSH2 0x23B1 JUMPI PUSH2 0x23B0 PUSH2 0x144A JUMP JUMPDEST JUMPDEST PUSH1 0x0 PUSH2 0x23BF DUP5 DUP3 DUP6 ADD PUSH2 0x2386 JUMP JUMPDEST SWAP2 POP POP SWAP3 SWAP2 POP POP JUMP JUMPDEST PUSH1 0x0 PUSH2 0x23D3 DUP3 PUSH2 0x1454 JUMP JUMPDEST SWAP2 POP PUSH2 0x23DE DUP4 PUSH2 0x1454 JUMP JUMPDEST SWAP3 POP DUP3 DUP3 ADD SWAP1 POP DUP1 DUP3 GT ISZERO PUSH2 0x23F6 JUMPI PUSH2 0x23F5 PUSH2 0x202F JUMP JUMPDEST JUMPDEST SWAP3 SWAP2 POP POP JUMP JUMPDEST PUSH32 0x4E487B7100000000000000000000000000000000000000000000000000000000 PUSH1 0x0 MSTORE PUSH1 0x12 PUSH1 0x4 MSTORE PUSH1 0x24 PUSH1 0x0 REVERT JUMPDEST PUSH1 0x0 PUSH2 0x2436 DUP3 PUSH2 0x1454 JUMP JUMPDEST SWAP2 POP PUSH2 0x2441 DUP4 PUSH2 0x1454 JUMP JUMPDEST SWAP3 POP DUP3 PUSH2 0x2451 JUMPI PUSH2 0x2450 PUSH2 0x23FC JUMP JUMPDEST JUMPDEST DUP3 DUP3 MOD SWAP1 POP SWAP3 SWAP2 POP POP JUMP INVALID LOG2 PUSH5 0x6970667358 0x22 SLT KECCAK256 0x26 PUSH2 0x1E31 0xBB SWAP16 0xEA 0xF6 PUSH31 0x893178121BAF58FE1693D5D97D6A5A11C39D2461384A1764736F6C63430008 GT STOP CALLER "
        },
        "methodIdentifiers": {
          "_entropyCallback(uint64,address,bytes32)": "52a5f1f8",
          "checkUpkeep(bytes)": "6e04ff0d",
          "entropy()": "47ce07cc",
          "getLikes(uint256)": "a209081e",
          "getUser()": "832880e7",
          "interactionCount()": "a890610b",
          "interactions(uint256)": "0ba460ff",
          "likeInteraction(uint256)": "728f9b3d",
          "nextEventTimestamp()": "c3066e2a",
          "owner()": "8da5cb5b",
          "performUpkeep(bytes)": "4585e33b",
          "postInteraction(string)": "1e88b388",
          "provider()": "085d4883",
          "registerUser(string,address)": "0e54b872",
          "timeUntilNextEvent()": "9534d199",
          "triggerCameras()": "938d0b1e",
          "updateBio(string)": "76487b38",
          "users(address)": "a87430ba",
          "viewBio(address)": "f22f6fb6"
        }
      }
    }
  }
}