{
  "_format": "hh-sol-artifact-1",
  "contractName": "AdContract",
  "sourceName": "contracts/AdContract.sol",
  "abi": [
    {
      "inputs": [],
      "stateMutability": "nonpayable",
      "type": "constructor"
    },
    {
      "anonymous": false,
      "inputs": [
        {
          "indexed": false,
          "internalType": "string",
          "name": "ipfsLink",
          "type": "string"
        }
      ],
      "name": "AdSubmitted",
      "type": "event"
    },
    {
      "inputs": [],
      "name": "adCost",
      "outputs": [
        {
          "internalType": "uint256",
          "name": "",
          "type": "uint256"
        }
      ],
      "stateMutability": "view",
      "type": "function"
    },
    {
      "inputs": [
        {
          "internalType": "uint256",
          "name": "",
          "type": "uint256"
        }
      ],
      "name": "ads",
      "outputs": [
        {
          "internalType": "string",
          "name": "",
          "type": "string"
        }
      ],
      "stateMutability": "view",
      "type": "function"
    },
    {
      "inputs": [
        {
          "internalType": "uint256",
          "name": "_index",
          "type": "uint256"
        }
      ],
      "name": "getAd",
      "outputs": [
        {
          "internalType": "string",
          "name": "",
          "type": "string"
        }
      ],
      "stateMutability": "view",
      "type": "function"
    },
    {
      "inputs": [],
      "name": "getAllAds",
      "outputs": [
        {
          "internalType": "string[]",
          "name": "",
          "type": "string[]"
        }
      ],
      "stateMutability": "view",
      "type": "function"
    },
    {
      "inputs": [],
      "name": "owner",
      "outputs": [
        {
          "internalType": "address payable",
          "name": "",
          "type": "address"
        }
      ],
      "stateMutability": "view",
      "type": "function"
    },
    {
      "inputs": [
        {
          "internalType": "string",
          "name": "ipfs_ad",
          "type": "string"
        }
      ],
      "name": "submitAd",
      "outputs": [],
      "stateMutability": "payable",
      "type": "function"
    },
    {
      "inputs": [],
      "name": "withdrawFunds",
      "outputs": [],
      "stateMutability": "nonpayable",
      "type": "function"
    }
  ],
  "bytecode": "0x60806040526305f5e10060015534801561001857600080fd5b50336000806101000a81548173ffffffffffffffffffffffffffffffffffffffff021916908373ffffffffffffffffffffffffffffffffffffffff160217905550610eb0806100686000396000f3fe6080604052600436106100705760003560e01c80638da5cb5b1161004e5780638da5cb5b14610106578063b79f442314610131578063c9430e6a1461015c578063c9f21c381461018757610070565b806311a7a4c01461007557806324600fc3146100b25780637ede1c07146100c9575b600080fd5b34801561008157600080fd5b5061009c600480360381019061009791906105f2565b6101a3565b6040516100a991906106af565b60405180910390f35b3480156100be57600080fd5b506100c761024f565b005b3480156100d557600080fd5b506100f060048036038101906100eb91906105f2565b6102fb565b6040516100fd91906106af565b60405180910390f35b34801561011257600080fd5b5061011b6103f2565b6040516101289190610712565b60405180910390f35b34801561013d57600080fd5b50610146610416565b6040516101539190610839565b60405180910390f35b34801561016857600080fd5b506101716104ef565b60405161017e919061086a565b60405180910390f35b6101a1600480360381019061019c91906109ba565b6104f5565b005b600281815481106101b357600080fd5b9060005260206000200160009150905080546101ce90610a32565b80601f01602080910402602001604051908101604052809291908181526020018280546101fa90610a32565b80156102475780601f1061021c57610100808354040283529160200191610247565b820191906000526020600020905b81548152906001019060200180831161022a57829003601f168201915b505050505081565b60004711610292576040517f08c379a000000000000000000000000000000000000000000000000000000000815260040161028990610aaf565b60405180910390fd5b60008054906101000a900473ffffffffffffffffffffffffffffffffffffffff1673ffffffffffffffffffffffffffffffffffffffff166108fc479081150290604051600060405180830381858888f193505050501580156102f8573d6000803e3d6000fd5b50565b60606002805490508210610344576040517f08c379a000000000000000000000000000000000000000000000000000000000815260040161033b90610b1b565b60405180910390fd5b6002828154811061035857610357610b3b565b5b90600052602060002001805461036d90610a32565b80601f016020809104026020016040519081016040528092919081815260200182805461039990610a32565b80156103e65780601f106103bb576101008083540402835291602001916103e6565b820191906000526020600020905b8154815290600101906020018083116103c957829003601f168201915b50505050509050919050565b60008054906101000a900473ffffffffffffffffffffffffffffffffffffffff1681565b60606002805480602002602001604051908101604052809291908181526020016000905b828210156104e657838290600052602060002001805461045990610a32565b80601f016020809104026020016040519081016040528092919081815260200182805461048590610a32565b80156104d25780601f106104a7576101008083540402835291602001916104d2565b820191906000526020600020905b8154815290600101906020018083116104b557829003601f168201915b50505050508152602001906001019061043a565b50505050905090565b60015481565b6001543414610539576040517f08c379a000000000000000000000000000000000000000000000000000000000815260040161053090610bdc565b60405180910390fd5b60028190806001815401808255809150506001900390600052602060002001600090919091909150908161056d9190610da8565b507f4740f117d4149275cd46780c96fb8aa3d31da51914c372d8b650336a3d3f80c88160405161059d91906106af565b60405180910390a150565b6000604051905090565b600080fd5b600080fd5b6000819050919050565b6105cf816105bc565b81146105da57600080fd5b50565b6000813590506105ec816105c6565b92915050565b600060208284031215610608576106076105b2565b5b6000610616848285016105dd565b91505092915050565b600081519050919050565b600082825260208201905092915050565b60005b8381101561065957808201518184015260208101905061063e565b60008484015250505050565b6000601f19601f8301169050919050565b60006106818261061f565b61068b818561062a565b935061069b81856020860161063b565b6106a481610665565b840191505092915050565b600060208201905081810360008301526106c98184610676565b905092915050565b600073ffffffffffffffffffffffffffffffffffffffff82169050919050565b60006106fc826106d1565b9050919050565b61070c816106f1565b82525050565b60006020820190506107276000830184610703565b92915050565b600081519050919050565b600082825260208201905092915050565b6000819050602082019050919050565b600082825260208201905092915050565b60006107758261061f565b61077f8185610759565b935061078f81856020860161063b565b61079881610665565b840191505092915050565b60006107af838361076a565b905092915050565b6000602082019050919050565b60006107cf8261072d565b6107d98185610738565b9350836020820285016107eb85610749565b8060005b85811015610827578484038952815161080885826107a3565b9450610813836107b7565b925060208a019950506001810190506107ef565b50829750879550505050505092915050565b6000602082019050818103600083015261085381846107c4565b905092915050565b610864816105bc565b82525050565b600060208201905061087f600083018461085b565b92915050565b600080fd5b600080fd5b7f4e487b7100000000000000000000000000000000000000000000000000000000600052604160045260246000fd5b6108c782610665565b810181811067ffffffffffffffff821117156108e6576108e561088f565b5b80604052505050565b60006108f96105a8565b905061090582826108be565b919050565b600067ffffffffffffffff8211156109255761092461088f565b5b61092e82610665565b9050602081019050919050565b82818337600083830152505050565b600061095d6109588461090a565b6108ef565b9050828152602081018484840111156109795761097861088a565b5b61098484828561093b565b509392505050565b600082601f8301126109a1576109a0610885565b5b81356109b184826020860161094a565b91505092915050565b6000602082840312156109d0576109cf6105b2565b5b600082013567ffffffffffffffff8111156109ee576109ed6105b7565b5b6109fa8482850161098c565b91505092915050565b7f4e487b7100000000000000000000000000000000000000000000000000000000600052602260045260246000fd5b60006002820490506001821680610a4a57607f821691505b602082108103610a5d57610a5c610a03565b5b50919050565b7f436f6e74726163742062616c616e6365206973207a65726f0000000000000000600082015250565b6000610a9960188361062a565b9150610aa482610a63565b602082019050919050565b60006020820190508181036000830152610ac881610a8c565b9050919050565b7f416420646f6573206e6f742065786973742e0000000000000000000000000000600082015250565b6000610b0560128361062a565b9150610b1082610acf565b602082019050919050565b60006020820190508181036000830152610b3481610af8565b9050919050565b7f4e487b7100000000000000000000000000000000000000000000000000000000600052603260045260246000fd5b7f496e636f7272656374207061796d656e7420616d6f756e742e20416420636f7360008201527f747320302e30303030303030303031204554482e000000000000000000000000602082015250565b6000610bc660348361062a565b9150610bd182610b6a565b604082019050919050565b60006020820190508181036000830152610bf581610bb9565b9050919050565b60008190508160005260206000209050919050565b60006020601f8301049050919050565b600082821b905092915050565b600060088302610c5e7fffffffffffffffffffffffffffffffffffffffffffffffffffffffffffffffff82610c21565b610c688683610c21565b95508019841693508086168417925050509392505050565b6000819050919050565b6000610ca5610ca0610c9b846105bc565b610c80565b6105bc565b9050919050565b6000819050919050565b610cbf83610c8a565b610cd3610ccb82610cac565b848454610c2e565b825550505050565b600090565b610ce8610cdb565b610cf3818484610cb6565b505050565b5b81811015610d1757610d0c600082610ce0565b600181019050610cf9565b5050565b601f821115610d5c57610d2d81610bfc565b610d3684610c11565b81016020851015610d45578190505b610d59610d5185610c11565b830182610cf8565b50505b505050565b600082821c905092915050565b6000610d7f60001984600802610d61565b1980831691505092915050565b6000610d988383610d6e565b9150826002028217905092915050565b610db18261061f565b67ffffffffffffffff811115610dca57610dc961088f565b5b610dd48254610a32565b610ddf828285610d1b565b600060209050601f831160018114610e125760008415610e00578287015190505b610e0a8582610d8c565b865550610e72565b601f198416610e2086610bfc565b60005b82811015610e4857848901518255600182019150602085019450602081019050610e23565b86831015610e655784890151610e61601f891682610d6e565b8355505b6001600288020188555050505b50505050505056fea264697066735822122025bbbd2ccdc4f132ddd2358b088d89971fd796604fc9efae2f1e7d3829e29f6664736f6c63430008110033",
  "linkReferences": {},
  "deployedLinkReferences": {}
}