{
  "_format": "hh-sol-artifact-1",
  "contractName": "DeReal",
  "sourceName": "contracts/DeReal.sol",
  "abi": [
    {
      "inputs": [],
      "stateMutability": "payable",
      "type": "constructor"
    },
    {
      "anonymous": false,
      "inputs": [
        {
          "indexed": false,
          "internalType": "address",
          "name": "triggeredBy",
          "type": "address"
        },
        {
          "indexed": false,
          "internalType": "uint256",
          "name": "timestamp",
          "type": "uint256"
        }
      ],
      "name": "CamerasTriggered",
      "type": "event"
    },
    {
      "anonymous": false,
      "inputs": [
        {
          "indexed": false,
          "internalType": "address",
          "name": "triggeredBy",
          "type": "address"
        },
        {
          "indexed": false,
          "internalType": "uint256",
          "name": "timestamp",
          "type": "uint256"
        },
        {
          "indexed": false,
          "internalType": "uint256",
          "name": "eventId",
          "type": "uint256"
        }
      ],
      "name": "EventTriggered",
      "type": "event"
    },
    {
      "anonymous": false,
      "inputs": [
        {
          "indexed": false,
          "internalType": "address",
          "name": "user",
          "type": "address"
        },
        {
          "indexed": false,
          "internalType": "uint256",
          "name": "postId",
          "type": "uint256"
        },
        {
          "indexed": false,
          "internalType": "bool",
          "name": "isLiked",
          "type": "bool"
        }
      ],
      "name": "LikeToggled",
      "type": "event"
    },
    {
      "anonymous": false,
      "inputs": [
        {
          "indexed": false,
          "internalType": "uint256",
          "name": "timestamp",
          "type": "uint256"
        }
      ],
      "name": "NextEventScheduled",
      "type": "event"
    },
    {
      "anonymous": false,
      "inputs": [
        {
          "indexed": false,
          "internalType": "address",
          "name": "user",
          "type": "address"
        },
        {
          "indexed": false,
          "internalType": "uint256",
          "name": "postId",
          "type": "uint256"
        },
        {
          "indexed": false,
          "internalType": "bool",
          "name": "isEventPost",
          "type": "bool"
        }
      ],
      "name": "PostCreated",
      "type": "event"
    },
    {
      "anonymous": false,
      "inputs": [
        {
          "indexed": false,
          "internalType": "address",
          "name": "user",
          "type": "address"
        }
      ],
      "name": "UserBioUpdated",
      "type": "event"
    },
    {
      "anonymous": false,
      "inputs": [
        {
          "indexed": false,
          "internalType": "address",
          "name": "user",
          "type": "address"
        }
      ],
      "name": "UserRegistered",
      "type": "event"
    },
    {
      "inputs": [
        {
          "internalType": "string",
          "name": "_ipfsHash",
          "type": "string"
        }
      ],
      "name": "createPost",
      "outputs": [],
      "stateMutability": "nonpayable",
      "type": "function"
    },
    {
      "inputs": [
        {
          "internalType": "string",
          "name": "_ipfsHash",
          "type": "string"
        },
        {
          "internalType": "uint256",
          "name": "_eventId",
          "type": "uint256"
        }
      ],
      "name": "createPostDuringEvent",
      "outputs": [],
      "stateMutability": "nonpayable",
      "type": "function"
    },
    {
      "inputs": [],
      "name": "eventId",
      "outputs": [
        {
          "internalType": "uint256",
          "name": "",
          "type": "uint256"
        }
      ],
      "stateMutability": "view",
      "type": "function"
    },
    {
      "inputs": [],
      "name": "getAllPosts",
      "outputs": [
        {
          "components": [
            {
              "internalType": "address",
              "name": "user",
              "type": "address"
            },
            {
              "internalType": "string",
              "name": "content",
              "type": "string"
            },
            {
              "internalType": "uint256",
              "name": "timestamp",
              "type": "uint256"
            },
            {
              "internalType": "address[]",
              "name": "likedBy",
              "type": "address[]"
            },
            {
              "internalType": "bool",
              "name": "isEventPost",
              "type": "bool"
            }
          ],
          "internalType": "struct DeReal.Post[]",
          "name": "",
          "type": "tuple[]"
        }
      ],
      "stateMutability": "view",
      "type": "function"
    },
    {
      "inputs": [
        {
          "internalType": "uint256",
          "name": "_postId",
          "type": "uint256"
        }
      ],
      "name": "getLikes",
      "outputs": [
        {
          "internalType": "uint256",
          "name": "",
          "type": "uint256"
        }
      ],
      "stateMutability": "view",
      "type": "function"
    },
    {
      "inputs": [
        {
          "internalType": "uint256",
          "name": "_postId",
          "type": "uint256"
        }
      ],
      "name": "getPost",
      "outputs": [
        {
          "components": [
            {
              "internalType": "address",
              "name": "user",
              "type": "address"
            },
            {
              "internalType": "string",
              "name": "content",
              "type": "string"
            },
            {
              "internalType": "uint256",
              "name": "timestamp",
              "type": "uint256"
            },
            {
              "internalType": "address[]",
              "name": "likedBy",
              "type": "address[]"
            },
            {
              "internalType": "bool",
              "name": "isEventPost",
              "type": "bool"
            }
          ],
          "internalType": "struct DeReal.Post",
          "name": "",
          "type": "tuple"
        }
      ],
      "stateMutability": "view",
      "type": "function"
    },
    {
      "inputs": [],
      "name": "getUser",
      "outputs": [
        {
          "components": [
            {
              "internalType": "string",
              "name": "bio",
              "type": "string"
            }
          ],
          "internalType": "struct DeReal.User",
          "name": "",
          "type": "tuple"
        }
      ],
      "stateMutability": "view",
      "type": "function"
    },
    {
      "inputs": [
        {
          "internalType": "uint256",
          "name": "_postId",
          "type": "uint256"
        }
      ],
      "name": "likePost",
      "outputs": [],
      "stateMutability": "nonpayable",
      "type": "function"
    },
    {
      "inputs": [],
      "name": "nextEventTimestamp",
      "outputs": [
        {
          "internalType": "uint256",
          "name": "",
          "type": "uint256"
        }
      ],
      "stateMutability": "view",
      "type": "function"
    },
    {
      "inputs": [],
      "name": "owner",
      "outputs": [
        {
          "internalType": "address",
          "name": "",
          "type": "address"
        }
      ],
      "stateMutability": "view",
      "type": "function"
    },
    {
      "inputs": [],
      "name": "postCount",
      "outputs": [
        {
          "internalType": "uint256",
          "name": "",
          "type": "uint256"
        }
      ],
      "stateMutability": "view",
      "type": "function"
    },
    {
      "inputs": [
        {
          "internalType": "uint256",
          "name": "",
          "type": "uint256"
        }
      ],
      "name": "posts",
      "outputs": [
        {
          "internalType": "address",
          "name": "user",
          "type": "address"
        },
        {
          "internalType": "string",
          "name": "content",
          "type": "string"
        },
        {
          "internalType": "uint256",
          "name": "timestamp",
          "type": "uint256"
        },
        {
          "internalType": "bool",
          "name": "isEventPost",
          "type": "bool"
        }
      ],
      "stateMutability": "view",
      "type": "function"
    },
    {
      "inputs": [
        {
          "internalType": "string",
          "name": "_bio",
          "type": "string"
        }
      ],
      "name": "registerUser",
      "outputs": [],
      "stateMutability": "nonpayable",
      "type": "function"
    },
    {
      "inputs": [],
      "name": "triggerCamera",
      "outputs": [],
      "stateMutability": "nonpayable",
      "type": "function"
    },
    {
      "inputs": [
        {
          "internalType": "string",
          "name": "_bio",
          "type": "string"
        }
      ],
      "name": "updateBio",
      "outputs": [],
      "stateMutability": "nonpayable",
      "type": "function"
    },
    {
      "inputs": [
        {
          "internalType": "address",
          "name": "",
          "type": "address"
        }
      ],
      "name": "users",
      "outputs": [
        {
          "internalType": "string",
          "name": "bio",
          "type": "string"
        }
      ],
      "stateMutability": "view",
      "type": "function"
    },
    {
      "inputs": [
        {
          "internalType": "address",
          "name": "_address",
          "type": "address"
        }
      ],
      "name": "viewBio",
      "outputs": [
        {
          "internalType": "string",
          "name": "",
          "type": "string"
        }
      ],
      "stateMutability": "view",
      "type": "function"
    }
  ],
  "bytecode": "0x6080604052336000806101000a81548173ffffffffffffffffffffffffffffffffffffffff021916908373ffffffffffffffffffffffffffffffffffffffff16021790555062015180426200005591906200009a565b600481905550620000d5565b6000819050919050565b7f4e487b7100000000000000000000000000000000000000000000000000000000600052601160045260246000fd5b6000620000a78262000061565b9150620000b48362000061565b9250828201905080821115620000cf57620000ce6200006b565b5b92915050565b61244b80620000e56000396000f3fe608060405234801561001057600080fd5b506004361061010b5760003560e01c806376487b38116100a2578063a87430ba11610071578063a87430ba14610297578063c3066e2a146102c7578063c7303c61146102e5578063f06421bc14610301578063f22f6fb61461031d5761010b565b806376487b381461020f578063832880e71461022b5780638da5cb5b14610249578063a209081e146102675761010b565b806330561100116100de578063305611001461018957806340731c24146101a7578063704f1b94146101d7578063725009d3146101f35761010b565b8063089cdd0c146101105780630b1e7f831461012e57806317906c2e1461016157806326a0ea081461017f575b600080fd5b61011861034d565b60405161012591906115a8565b60405180910390f35b61014860048036038101906101439190611603565b610353565b604051610158949392919061171c565b60405180910390f35b610169610438565b60405161017691906115a8565b60405180910390f35b61018761043e565b005b6101916104c5565b60405161019e91906119cd565b60405180910390f35b6101c160048036038101906101bc9190611603565b61072f565b6040516101ce9190611a6c565b60405180910390f35b6101f160048036038101906101ec9190611bc3565b610948565b005b61020d60048036038101906102089190611603565b610a7a565b005b61022960048036038101906102249190611bc3565b610d2c565b005b610233610db6565b6040516102409190611c36565b60405180910390f35b610251610e9f565b60405161025e9190611c58565b60405180910390f35b610281600480360381019061027c9190611603565b610ec3565b60405161028e91906115a8565b60405180910390f35b6102b160048036038101906102ac9190611c9f565b610f36565b6040516102be9190611ccc565b60405180910390f35b6102cf610fdc565b6040516102dc91906115a8565b60405180910390f35b6102ff60048036038101906102fa9190611bc3565b610fe2565b005b61031b60048036038101906103169190611cee565b611180565b005b61033760048036038101906103329190611c9f565b6113ba565b6040516103449190611ccc565b60405180910390f35b60055481565b60026020528060005260406000206000915090508060000160009054906101000a900473ffffffffffffffffffffffffffffffffffffffff169080600101805461039c90611d79565b80601f01602080910402602001604051908101604052809291908181526020018280546103c890611d79565b80156104155780601f106103ea57610100808354040283529160200191610415565b820191906000526020600020905b8154815290600101906020018083116103f857829003601f168201915b5050505050908060020154908060040160009054906101000a900460ff16905084565b60035481565b6005600081548092919061045190611dd9565b91905055506040518060400160405280428152602001600554815250600660008201518160000155602082015181600101559050507f225360e90508d0205c478ae016d2c5fda3471af1906c8d9da5ec4f49d706868b33426005546040516104bb93929190611e21565b60405180910390a1565b6060600060035467ffffffffffffffff8111156104e5576104e4611a98565b5b60405190808252806020026020018201604052801561051e57816020015b61050b61148e565b8152602001906001900390816105035790505b5090506000600190505b600354811161072757600260008281526020019081526020016000206040518060a00160405290816000820160009054906101000a900473ffffffffffffffffffffffffffffffffffffffff1673ffffffffffffffffffffffffffffffffffffffff1673ffffffffffffffffffffffffffffffffffffffff1681526020016001820180546105b590611d79565b80601f01602080910402602001604051908101604052809291908181526020018280546105e190611d79565b801561062e5780601f106106035761010080835404028352916020019161062e565b820191906000526020600020905b81548152906001019060200180831161061157829003601f168201915b5050505050815260200160028201548152602001600382018054806020026020016040519081016040528092919081815260200182805480156106c657602002820191906000526020600020905b8160009054906101000a900473ffffffffffffffffffffffffffffffffffffffff1673ffffffffffffffffffffffffffffffffffffffff168152602001906001019080831161067c575b505050505081526020016004820160009054906101000a900460ff161515151581525050826001836106f89190611e58565b8151811061070957610708611e8c565b5b6020026020010181905250808061071f90611dd9565b915050610528565b508091505090565b61073761148e565b60008211801561074957506003548211155b610788576040517f08c379a000000000000000000000000000000000000000000000000000000000815260040161077f90611f07565b60405180910390fd5b600260008381526020019081526020016000206040518060a00160405290816000820160009054906101000a900473ffffffffffffffffffffffffffffffffffffffff1673ffffffffffffffffffffffffffffffffffffffff1673ffffffffffffffffffffffffffffffffffffffff16815260200160018201805461080c90611d79565b80601f016020809104026020016040519081016040528092919081815260200182805461083890611d79565b80156108855780601f1061085a57610100808354040283529160200191610885565b820191906000526020600020905b81548152906001019060200180831161086857829003601f168201915b50505050508152602001600282015481526020016003820180548060200260200160405190810160405280929190818152602001828054801561091d57602002820191906000526020600020905b8160009054906101000a900473ffffffffffffffffffffffffffffffffffffffff1673ffffffffffffffffffffffffffffffffffffffff16815260200190600101908083116108d3575b505050505081526020016004820160009054906101000a900460ff1615151515815250509050919050565b6000600160003373ffffffffffffffffffffffffffffffffffffffff1673ffffffffffffffffffffffffffffffffffffffff168152602001908152602001600020600001805461099790611d79565b9050146109d9576040517f08c379a00000000000000000000000000000000000000000000000000000000081526004016109d090611f73565b60405180910390fd5b604051806020016040528082815250600160003373ffffffffffffffffffffffffffffffffffffffff1673ffffffffffffffffffffffffffffffffffffffff1681526020019081526020016000206000820151816000019081610a3c919061213f565b509050507f54db7a5cb4735e1aac1f53db512d3390390bb6637bd30ad4bf9fc98667d9b9b933604051610a6f9190611c58565b60405180910390a150565b600081118015610a8c57506003548111155b610acb576040517f08c379a0000000000000000000000000000000000000000000000000000000008152600401610ac29061225d565b60405180910390fd5b60006002600083815260200190815260200160002090506000805b8260030180549050811015610c7f573373ffffffffffffffffffffffffffffffffffffffff16836003018281548110610b2257610b21611e8c565b5b9060005260206000200160009054906101000a900473ffffffffffffffffffffffffffffffffffffffff1673ffffffffffffffffffffffffffffffffffffffff1603610c6c578260030160018460030180549050610b809190611e58565b81548110610b9157610b90611e8c565b5b9060005260206000200160009054906101000a900473ffffffffffffffffffffffffffffffffffffffff16836003018281548110610bd257610bd1611e8c565b5b9060005260206000200160006101000a81548173ffffffffffffffffffffffffffffffffffffffff021916908373ffffffffffffffffffffffffffffffffffffffff16021790555082600301805480610c2e57610c2d61227d565b5b6001900381819060005260206000200160006101000a81549073ffffffffffffffffffffffffffffffffffffffff0219169055905560019150610c7f565b8080610c7790611dd9565b915050610ae6565b5080610ceb5781600301339080600181540180825580915050600190039060005260206000200160009091909190916101000a81548173ffffffffffffffffffffffffffffffffffffffff021916908373ffffffffffffffffffffffffffffffffffffffff1602179055505b7f4d5c3df35a8d7d04f2e10db1454548af37ee7449c97a4b4c243681f29c2ea40733848315604051610d1f939291906122ac565b60405180910390a1505050565b80600160003373ffffffffffffffffffffffffffffffffffffffff1673ffffffffffffffffffffffffffffffffffffffff1681526020019081526020016000206000019081610d7b919061213f565b507f4fb6ef93ce36ff223115f0546a70e86405e3843d8ffe9f9ddc5d3107dd58245333604051610dab9190611c58565b60405180910390a150565b610dbe6114d5565b600160003373ffffffffffffffffffffffffffffffffffffffff1673ffffffffffffffffffffffffffffffffffffffff168152602001908152602001600020604051806020016040529081600082018054610e1890611d79565b80601f0160208091040260200160405190810160405280929190818152602001828054610e4490611d79565b8015610e915780601f10610e6657610100808354040283529160200191610e91565b820191906000526020600020905b815481529060010190602001808311610e7457829003601f168201915b505050505081525050905090565b60008054906101000a900473ffffffffffffffffffffffffffffffffffffffff1681565b60008082118015610ed657506003548211155b610f15576040517f08c379a0000000000000000000000000000000000000000000000000000000008152600401610f0c9061225d565b60405180910390fd5b60026000838152602001908152602001600020600301805490509050919050565b6001602052806000526040600020600091509050806000018054610f5990611d79565b80601f0160208091040260200160405190810160405280929190818152602001828054610f8590611d79565b8015610fd25780601f10610fa757610100808354040283529160200191610fd2565b820191906000526020600020905b815481529060010190602001808311610fb557829003601f168201915b5050505050905081565b60045481565b60036000815480929190610ff590611dd9565b91905055506040518060a001604052803373ffffffffffffffffffffffffffffffffffffffff168152602001828152602001428152602001600067ffffffffffffffff81111561104857611047611a98565b5b6040519080825280602002602001820160405280156110765781602001602082028036833780820191505090505b5081526020016000151581525060026000600354815260200190815260200160002060008201518160000160006101000a81548173ffffffffffffffffffffffffffffffffffffffff021916908373ffffffffffffffffffffffffffffffffffffffff16021790555060208201518160010190816110f4919061213f565b5060408201518160020155606082015181600301908051906020019061111b9291906114e8565b5060808201518160040160006101000a81548160ff0219169083151502179055509050507f0c1e599bc9340034e1e088819097f9fe030387112109fec1513f52c10933920d336003546000604051611175939291906122ac565b60405180910390a150565b607860066000015461119291906122e3565b4211156111d4576040517f08c379a00000000000000000000000000000000000000000000000000000000081526004016111cb90612389565b60405180910390fd5b600660010154811461121b576040517f08c379a0000000000000000000000000000000000000000000000000000000008152600401611212906123f5565b60405180910390fd5b6003600081548092919061122e90611dd9565b91905055506040518060a001604052803373ffffffffffffffffffffffffffffffffffffffff168152602001838152602001428152602001600067ffffffffffffffff81111561128157611280611a98565b5b6040519080825280602002602001820160405280156112af5781602001602082028036833780820191505090505b5081526020016001151581525060026000600354815260200190815260200160002060008201518160000160006101000a81548173ffffffffffffffffffffffffffffffffffffffff021916908373ffffffffffffffffffffffffffffffffffffffff160217905550602082015181600101908161132d919061213f565b506040820151816002015560608201518160030190805190602001906113549291906114e8565b5060808201518160040160006101000a81548160ff0219169083151502179055509050507f0c1e599bc9340034e1e088819097f9fe030387112109fec1513f52c10933920d3360035460016040516113ae939291906122ac565b60405180910390a15050565b6060600160008373ffffffffffffffffffffffffffffffffffffffff1673ffffffffffffffffffffffffffffffffffffffff168152602001908152602001600020600001805461140990611d79565b80601f016020809104026020016040519081016040528092919081815260200182805461143590611d79565b80156114825780601f1061145757610100808354040283529160200191611482565b820191906000526020600020905b81548152906001019060200180831161146557829003601f168201915b50505050509050919050565b6040518060a00160405280600073ffffffffffffffffffffffffffffffffffffffff1681526020016060815260200160008152602001606081526020016000151581525090565b6040518060200160405280606081525090565b828054828255906000526020600020908101928215611561579160200282015b828111156115605782518260006101000a81548173ffffffffffffffffffffffffffffffffffffffff021916908373ffffffffffffffffffffffffffffffffffffffff16021790555091602001919060010190611508565b5b50905061156e9190611572565b5090565b5b8082111561158b576000816000905550600101611573565b5090565b6000819050919050565b6115a28161158f565b82525050565b60006020820190506115bd6000830184611599565b92915050565b6000604051905090565b600080fd5b600080fd5b6115e08161158f565b81146115eb57600080fd5b50565b6000813590506115fd816115d7565b92915050565b600060208284031215611619576116186115cd565b5b6000611627848285016115ee565b91505092915050565b600073ffffffffffffffffffffffffffffffffffffffff82169050919050565b600061165b82611630565b9050919050565b61166b81611650565b82525050565b600081519050919050565b600082825260208201905092915050565b60005b838110156116ab578082015181840152602081019050611690565b60008484015250505050565b6000601f19601f8301169050919050565b60006116d382611671565b6116dd818561167c565b93506116ed81856020860161168d565b6116f6816116b7565b840191505092915050565b60008115159050919050565b61171681611701565b82525050565b60006080820190506117316000830187611662565b818103602083015261174381866116c8565b90506117526040830185611599565b61175f606083018461170d565b95945050505050565b600081519050919050565b600082825260208201905092915050565b6000819050602082019050919050565b61179d81611650565b82525050565b600082825260208201905092915050565b60006117bf82611671565b6117c981856117a3565b93506117d981856020860161168d565b6117e2816116b7565b840191505092915050565b6117f68161158f565b82525050565b600081519050919050565b600082825260208201905092915050565b6000819050602082019050919050565b60006118348383611794565b60208301905092915050565b6000602082019050919050565b6000611858826117fc565b6118628185611807565b935061186d83611818565b8060005b8381101561189e5781516118858882611828565b975061189083611840565b925050600181019050611871565b5085935050505092915050565b6118b481611701565b82525050565b600060a0830160008301516118d26000860182611794565b50602083015184820360208601526118ea82826117b4565b91505060408301516118ff60408601826117ed565b5060608301518482036060860152611917828261184d565b915050608083015161192c60808601826118ab565b508091505092915050565b600061194383836118ba565b905092915050565b6000602082019050919050565b600061196382611768565b61196d8185611773565b93508360208202850161197f85611784565b8060005b858110156119bb578484038952815161199c8582611937565b94506119a78361194b565b925060208a01995050600181019050611983565b50829750879550505050505092915050565b600060208201905081810360008301526119e78184611958565b905092915050565b600060a083016000830151611a076000860182611794565b5060208301518482036020860152611a1f82826117b4565b9150506040830151611a3460408601826117ed565b5060608301518482036060860152611a4c828261184d565b9150506080830151611a6160808601826118ab565b508091505092915050565b60006020820190508181036000830152611a8681846119ef565b905092915050565b600080fd5b600080fd5b7f4e487b7100000000000000000000000000000000000000000000000000000000600052604160045260246000fd5b611ad0826116b7565b810181811067ffffffffffffffff82111715611aef57611aee611a98565b5b80604052505050565b6000611b026115c3565b9050611b0e8282611ac7565b919050565b600067ffffffffffffffff821115611b2e57611b2d611a98565b5b611b37826116b7565b9050602081019050919050565b82818337600083830152505050565b6000611b66611b6184611b13565b611af8565b905082815260208101848484011115611b8257611b81611a93565b5b611b8d848285611b44565b509392505050565b600082601f830112611baa57611ba9611a8e565b5b8135611bba848260208601611b53565b91505092915050565b600060208284031215611bd957611bd86115cd565b5b600082013567ffffffffffffffff811115611bf757611bf66115d2565b5b611c0384828501611b95565b91505092915050565b60006020830160008301518482036000860152611c2982826117b4565b9150508091505092915050565b60006020820190508181036000830152611c508184611c0c565b905092915050565b6000602082019050611c6d6000830184611662565b92915050565b611c7c81611650565b8114611c8757600080fd5b50565b600081359050611c9981611c73565b92915050565b600060208284031215611cb557611cb46115cd565b5b6000611cc384828501611c8a565b91505092915050565b60006020820190508181036000830152611ce681846116c8565b905092915050565b60008060408385031215611d0557611d046115cd565b5b600083013567ffffffffffffffff811115611d2357611d226115d2565b5b611d2f85828601611b95565b9250506020611d40858286016115ee565b9150509250929050565b7f4e487b7100000000000000000000000000000000000000000000000000000000600052602260045260246000fd5b60006002820490506001821680611d9157607f821691505b602082108103611da457611da3611d4a565b5b50919050565b7f4e487b7100000000000000000000000000000000000000000000000000000000600052601160045260246000fd5b6000611de48261158f565b91507fffffffffffffffffffffffffffffffffffffffffffffffffffffffffffffffff8203611e1657611e15611daa565b5b600182019050919050565b6000606082019050611e366000830186611662565b611e436020830185611599565b611e506040830184611599565b949350505050565b6000611e638261158f565b9150611e6e8361158f565b9250828203905081811115611e8657611e85611daa565b5b92915050565b7f4e487b7100000000000000000000000000000000000000000000000000000000600052603260045260246000fd5b7f4e6f207375636820706f73742065786973747300000000000000000000000000600082015250565b6000611ef160138361167c565b9150611efc82611ebb565b602082019050919050565b60006020820190508181036000830152611f2081611ee4565b9050919050565b7f5573657220616c72656164792072656769737465726564000000000000000000600082015250565b6000611f5d60178361167c565b9150611f6882611f27565b602082019050919050565b60006020820190508181036000830152611f8c81611f50565b9050919050565b60008190508160005260206000209050919050565b60006020601f8301049050919050565b600082821b905092915050565b600060088302611ff57fffffffffffffffffffffffffffffffffffffffffffffffffffffffffffffffff82611fb8565b611fff8683611fb8565b95508019841693508086168417925050509392505050565b6000819050919050565b600061203c6120376120328461158f565b612017565b61158f565b9050919050565b6000819050919050565b61205683612021565b61206a61206282612043565b848454611fc5565b825550505050565b600090565b61207f612072565b61208a81848461204d565b505050565b5b818110156120ae576120a3600082612077565b600181019050612090565b5050565b601f8211156120f3576120c481611f93565b6120cd84611fa8565b810160208510156120dc578190505b6120f06120e885611fa8565b83018261208f565b50505b505050565b600082821c905092915050565b6000612116600019846008026120f8565b1980831691505092915050565b600061212f8383612105565b9150826002028217905092915050565b61214882611671565b67ffffffffffffffff81111561216157612160611a98565b5b61216b8254611d79565b6121768282856120b2565b600060209050601f8311600181146121a95760008415612197578287015190505b6121a18582612123565b865550612209565b601f1984166121b786611f93565b60005b828110156121df578489015182556001820191506020850194506020810190506121ba565b868310156121fc57848901516121f8601f891682612105565b8355505b6001600288020188555050505b505050505050565b7f496e76616c696420706f73742049440000000000000000000000000000000000600082015250565b6000612247600f8361167c565b915061225282612211565b602082019050919050565b600060208201905081810360008301526122768161223a565b9050919050565b7f4e487b7100000000000000000000000000000000000000000000000000000000600052603160045260246000fd5b60006060820190506122c16000830186611662565b6122ce6020830185611599565b6122db604083018461170d565b949350505050565b60006122ee8261158f565b91506122f98361158f565b925082820190508082111561231157612310611daa565b5b92915050565b7f5468652074696d6520706572696f6420666f72206576656e74206973206f766560008201527f7200000000000000000000000000000000000000000000000000000000000000602082015250565b600061237360218361167c565b915061237e82612317565b604082019050919050565b600060208201905081810360008301526123a281612366565b9050919050565b7f4e6f74207468652073616d65206576656e742069640000000000000000000000600082015250565b60006123df60158361167c565b91506123ea826123a9565b602082019050919050565b6000602082019050818103600083015261240e816123d2565b905091905056fea2646970667358221220690d7e5f3034ec5fa73f450f01d37aecb893f881ce3faf21b7ff3890fae96c9464736f6c63430008110033",
  "linkReferences": {},
  "deployedLinkReferences": {}
}